{
  "_format": "hh-sol-artifact-1",
  "contractName": "MetamaskDiploma",
  "sourceName": "contracts/MetamaskDiploma.sol",
  "abi": [
    {
      "inputs": [
        {
          "internalType": "string",
          "name": "baseURI",
          "type": "string"
        }
      ],
      "stateMutability": "nonpayable",
      "type": "constructor"
    },
    {
      "anonymous": false,
      "inputs": [
        {
          "indexed": true,
          "internalType": "address",
          "name": "owner",
          "type": "address"
        },
        {
          "indexed": true,
          "internalType": "address",
          "name": "approved",
          "type": "address"
        },
        {
          "indexed": true,
          "internalType": "uint256",
          "name": "tokenId",
          "type": "uint256"
        }
      ],
      "name": "Approval",
      "type": "event"
    },
    {
      "anonymous": false,
      "inputs": [
        {
          "indexed": true,
          "internalType": "address",
          "name": "owner",
          "type": "address"
        },
        {
          "indexed": true,
          "internalType": "address",
          "name": "operator",
          "type": "address"
        },
        {
          "indexed": false,
          "internalType": "bool",
          "name": "approved",
          "type": "bool"
        }
      ],
      "name": "ApprovalForAll",
      "type": "event"
    },
    {
      "anonymous": false,
      "inputs": [
        {
          "indexed": true,
          "internalType": "address",
          "name": "from",
          "type": "address"
        },
        {
          "indexed": true,
          "internalType": "address",
          "name": "to",
          "type": "address"
        },
        {
          "indexed": true,
          "internalType": "uint256",
          "name": "tokenId",
          "type": "uint256"
        }
      ],
      "name": "Transfer",
      "type": "event"
    },
    {
      "inputs": [],
      "name": "MAX_PER_MINT",
      "outputs": [
        {
          "internalType": "uint256",
          "name": "",
          "type": "uint256"
        }
      ],
      "stateMutability": "view",
      "type": "function"
    },
    {
      "inputs": [],
      "name": "PRICE",
      "outputs": [
        {
          "internalType": "uint256",
          "name": "",
          "type": "uint256"
        }
      ],
      "stateMutability": "view",
      "type": "function"
    },
    {
      "inputs": [
        {
          "internalType": "address",
          "name": "to",
          "type": "address"
        },
        {
          "internalType": "uint256",
          "name": "tokenId",
          "type": "uint256"
        }
      ],
      "name": "approve",
      "outputs": [],
      "stateMutability": "nonpayable",
      "type": "function"
    },
    {
      "inputs": [
        {
          "internalType": "address",
          "name": "owner",
          "type": "address"
        }
      ],
      "name": "balanceOf",
      "outputs": [
        {
          "internalType": "uint256",
          "name": "",
          "type": "uint256"
        }
      ],
      "stateMutability": "view",
      "type": "function"
    },
    {
      "inputs": [],
      "name": "baseTokenURI",
      "outputs": [
        {
          "internalType": "string",
          "name": "",
          "type": "string"
        }
      ],
      "stateMutability": "view",
      "type": "function"
    },
    {
      "inputs": [
        {
          "internalType": "uint256",
          "name": "tokenId",
          "type": "uint256"
        }
      ],
      "name": "getApproved",
      "outputs": [
        {
          "internalType": "address",
          "name": "",
          "type": "address"
        }
      ],
      "stateMutability": "view",
      "type": "function"
    },
    {
      "inputs": [
        {
          "internalType": "address",
          "name": "owner",
          "type": "address"
        },
        {
          "internalType": "address",
          "name": "operator",
          "type": "address"
        }
      ],
      "name": "isApprovedForAll",
      "outputs": [
        {
          "internalType": "bool",
          "name": "",
          "type": "bool"
        }
      ],
      "stateMutability": "view",
      "type": "function"
    },
    {
      "inputs": [
        {
          "internalType": "address",
          "name": "_owner",
          "type": "address"
        }
      ],
      "name": "isNFTOwner",
      "outputs": [
        {
          "internalType": "bool",
          "name": "",
          "type": "bool"
        }
      ],
      "stateMutability": "view",
      "type": "function"
    },
    {
      "inputs": [
        {
          "internalType": "uint256",
          "name": "_count",
          "type": "uint256"
        }
      ],
      "name": "mintNFTs",
      "outputs": [],
      "stateMutability": "payable",
      "type": "function"
    },
    {
      "inputs": [],
      "name": "name",
      "outputs": [
        {
          "internalType": "string",
          "name": "",
          "type": "string"
        }
      ],
      "stateMutability": "view",
      "type": "function"
    },
    {
      "inputs": [
        {
          "internalType": "uint256",
          "name": "",
          "type": "uint256"
        }
      ],
      "name": "nftOwners",
      "outputs": [
        {
          "internalType": "address",
          "name": "",
          "type": "address"
        }
      ],
      "stateMutability": "view",
      "type": "function"
    },
    {
      "inputs": [
        {
          "internalType": "uint256",
          "name": "tokenId",
          "type": "uint256"
        }
      ],
      "name": "ownerOf",
      "outputs": [
        {
          "internalType": "address",
          "name": "",
          "type": "address"
        }
      ],
      "stateMutability": "view",
      "type": "function"
    },
    {
      "inputs": [
        {
          "internalType": "address",
          "name": "from",
          "type": "address"
        },
        {
          "internalType": "address",
          "name": "to",
          "type": "address"
        },
        {
          "internalType": "uint256",
          "name": "tokenId",
          "type": "uint256"
        }
      ],
      "name": "safeTransferFrom",
      "outputs": [],
      "stateMutability": "nonpayable",
      "type": "function"
    },
    {
      "inputs": [
        {
          "internalType": "address",
          "name": "from",
          "type": "address"
        },
        {
          "internalType": "address",
          "name": "to",
          "type": "address"
        },
        {
          "internalType": "uint256",
          "name": "tokenId",
          "type": "uint256"
        },
        {
          "internalType": "bytes",
          "name": "_data",
          "type": "bytes"
        }
      ],
      "name": "safeTransferFrom",
      "outputs": [],
      "stateMutability": "nonpayable",
      "type": "function"
    },
    {
      "inputs": [
        {
          "internalType": "address",
          "name": "",
          "type": "address"
        }
      ],
      "name": "scoreBoard",
      "outputs": [
        {
          "internalType": "uint256",
          "name": "",
          "type": "uint256"
        }
      ],
      "stateMutability": "view",
      "type": "function"
    },
    {
      "inputs": [
        {
          "internalType": "address",
          "name": "operator",
          "type": "address"
        },
        {
          "internalType": "bool",
          "name": "approved",
          "type": "bool"
        }
      ],
      "name": "setApprovalForAll",
      "outputs": [],
      "stateMutability": "nonpayable",
      "type": "function"
    },
    {
      "inputs": [
        {
          "internalType": "string",
          "name": "_baseTokenURI",
          "type": "string"
        }
      ],
      "name": "setBaseURI",
      "outputs": [],
      "stateMutability": "nonpayable",
      "type": "function"
    },
    {
      "inputs": [
        {
          "internalType": "address",
          "name": "player",
          "type": "address"
        },
        {
          "internalType": "uint256",
          "name": "score",
          "type": "uint256"
        }
      ],
      "name": "setScoreForPlayer",
      "outputs": [
        {
          "internalType": "bool",
          "name": "",
          "type": "bool"
        }
      ],
      "stateMutability": "nonpayable",
      "type": "function"
    },
    {
      "inputs": [
        {
          "internalType": "bytes4",
          "name": "interfaceId",
          "type": "bytes4"
        }
      ],
      "name": "supportsInterface",
      "outputs": [
        {
          "internalType": "bool",
          "name": "",
          "type": "bool"
        }
      ],
      "stateMutability": "view",
      "type": "function"
    },
    {
      "inputs": [],
      "name": "symbol",
      "outputs": [
        {
          "internalType": "string",
          "name": "",
          "type": "string"
        }
      ],
      "stateMutability": "view",
      "type": "function"
    },
    {
      "inputs": [
        {
          "internalType": "uint256",
          "name": "index",
          "type": "uint256"
        }
      ],
      "name": "tokenByIndex",
      "outputs": [
        {
          "internalType": "uint256",
          "name": "",
          "type": "uint256"
        }
      ],
      "stateMutability": "view",
      "type": "function"
    },
    {
      "inputs": [
        {
          "internalType": "address",
          "name": "owner",
          "type": "address"
        },
        {
          "internalType": "uint256",
          "name": "index",
          "type": "uint256"
        }
      ],
      "name": "tokenOfOwnerByIndex",
      "outputs": [
        {
          "internalType": "uint256",
          "name": "",
          "type": "uint256"
        }
      ],
      "stateMutability": "view",
      "type": "function"
    },
    {
      "inputs": [
        {
          "internalType": "uint256",
          "name": "tokenId",
          "type": "uint256"
        }
      ],
      "name": "tokenURI",
      "outputs": [
        {
          "internalType": "string",
          "name": "",
          "type": "string"
        }
      ],
      "stateMutability": "view",
      "type": "function"
    },
    {
      "inputs": [
        {
          "internalType": "address",
          "name": "_owner",
          "type": "address"
        }
      ],
      "name": "tokensOfOwner",
      "outputs": [
        {
          "internalType": "uint256[]",
          "name": "",
          "type": "uint256[]"
        }
      ],
      "stateMutability": "view",
      "type": "function"
    },
    {
      "inputs": [],
      "name": "totalSupply",
      "outputs": [
        {
          "internalType": "uint256",
          "name": "",
          "type": "uint256"
        }
      ],
      "stateMutability": "view",
      "type": "function"
    },
    {
      "inputs": [
        {
          "internalType": "address",
          "name": "from",
          "type": "address"
        },
        {
          "internalType": "address",
          "name": "to",
          "type": "address"
        },
        {
          "internalType": "uint256",
          "name": "tokenId",
          "type": "uint256"
        }
      ],
      "name": "transferFrom",
      "outputs": [],
      "stateMutability": "nonpayable",
      "type": "function"
    },
    {
      "inputs": [],
      "name": "withdraw",
      "outputs": [],
      "stateMutability": "payable",
      "type": "function"
    }
  ],
  "bytecode": "0x60806040523480156200001157600080fd5b506040516200424f3803806200424f833981810160405281019062000037919062000289565b6040518060400160405280600f81526020017f4d6574616d61736b4469706c6f6d6100000000000000000000000000000000008152506040518060400160405280600f81526020017f4d6574616d61736b4469706c6f6d6100000000000000000000000000000000008152508160009081620000b4919062000525565b508060019081620000c6919062000525565b505050620000da81620000e160201b60201c565b506200060c565b80600d9081620000f2919062000525565b5050565b6000604051905090565b600080fd5b600080fd5b600080fd5b600080fd5b6000601f19601f8301169050919050565b7f4e487b7100000000000000000000000000000000000000000000000000000000600052604160045260246000fd5b6200015f8262000114565b810181811067ffffffffffffffff8211171562000181576200018062000125565b5b80604052505050565b600062000196620000f6565b9050620001a4828262000154565b919050565b600067ffffffffffffffff821115620001c757620001c662000125565b5b620001d28262000114565b9050602081019050919050565b60005b83811015620001ff578082015181840152602081019050620001e2565b60008484015250505050565b6000620002226200021c84620001a9565b6200018a565b9050828152602081018484840111156200024157620002406200010f565b5b6200024e848285620001df565b509392505050565b600082601f8301126200026e576200026d6200010a565b5b8151620002808482602086016200020b565b91505092915050565b600060208284031215620002a257620002a162000100565b5b600082015167ffffffffffffffff811115620002c357620002c262000105565b5b620002d18482850162000256565b91505092915050565b600081519050919050565b7f4e487b7100000000000000000000000000000000000000000000000000000000600052602260045260246000fd5b600060028204905060018216806200032d57607f821691505b602082108103620003435762000342620002e5565b5b50919050565b60008190508160005260206000209050919050565b60006020601f8301049050919050565b600082821b905092915050565b600060088302620003ad7fffffffffffffffffffffffffffffffffffffffffffffffffffffffffffffffff826200036e565b620003b986836200036e565b95508019841693508086168417925050509392505050565b6000819050919050565b6000819050919050565b60006200040662000400620003fa84620003d1565b620003db565b620003d1565b9050919050565b6000819050919050565b6200042283620003e5565b6200043a62000431826200040d565b8484546200037b565b825550505050565b600090565b6200045162000442565b6200045e81848462000417565b505050565b5b8181101562000486576200047a60008262000447565b60018101905062000464565b5050565b601f821115620004d5576200049f8162000349565b620004aa846200035e565b81016020851015620004ba578190505b620004d2620004c9856200035e565b83018262000463565b50505b505050565b600082821c905092915050565b6000620004fa60001984600802620004da565b1980831691505092915050565b6000620005158383620004e7565b9150826002028217905092915050565b6200053082620002da565b67ffffffffffffffff8111156200054c576200054b62000125565b5b62000558825462000314565b620005658282856200048a565b600060209050601f8311600181146200059d576000841562000588578287015190505b62000594858262000507565b86555062000604565b601f198416620005ad8662000349565b60005b82811015620005d757848901518255600182019150602085019450602081019050620005b0565b86831015620005f75784890151620005f3601f891682620004e7565b8355505b6001600288020188555050505b505050505050565b613c33806200061c6000396000f3fe60806040526004361061019c5760003560e01c806355f804b3116100ec578063b88d4fde1161008a578063c87b56dd11610064578063c87b56dd146105f6578063d547cfb714610633578063e985e9c51461065e578063f12f43cf1461069b5761019c565b8063b88d4fde14610553578063b926078f1461057c578063bbd94c2f146105b95761019c565b80638462151c116100c65780638462151c146104975780638d859f3e146104d457806395d89b41146104ff578063a22cb4651461052a5761019c565b806355f804b3146103f45780636352211e1461041d57806370a082311461045a5761019c565b806318160ddd116101595780633b4b1381116101335780633b4b1381146103685780633ccfd60b1461038457806342842e0e1461038e5780634f6ccce7146103b75761019c565b806318160ddd146102d757806323b872dd146103025780632f745c591461032b5761019c565b806301ffc9a7146101a157806306fdde03146101de578063081812fc14610209578063095ea7b31461024657806309d42b301461026f5780630caa87b21461029a575b600080fd5b3480156101ad57600080fd5b506101c860048036038101906101c3919061252a565b6106d8565b6040516101d59190612572565b60405180910390f35b3480156101ea57600080fd5b506101f3610752565b604051610200919061261d565b60405180910390f35b34801561021557600080fd5b50610230600480360381019061022b9190612675565b6107e4565b60405161023d91906126e3565b60405180910390f35b34801561025257600080fd5b5061026d6004803603810190610268919061272a565b610869565b005b34801561027b57600080fd5b50610284610980565b6040516102919190612779565b60405180910390f35b3480156102a657600080fd5b506102c160048036038101906102bc9190612794565b610985565b6040516102ce9190612572565b60405180910390f35b3480156102e357600080fd5b506102ec610a33565b6040516102f99190612779565b60405180910390f35b34801561030e57600080fd5b50610329600480360381019061032491906127c1565b610a40565b005b34801561033757600080fd5b50610352600480360381019061034d919061272a565b610aa0565b60405161035f9190612779565b60405180910390f35b610382600480360381019061037d9190612675565b610b45565b005b61038c610b50565b005b34801561039a57600080fd5b506103b560048036038101906103b091906127c1565b610c48565b005b3480156103c357600080fd5b506103de60048036038101906103d99190612675565b610c68565b6040516103eb9190612779565b60405180910390f35b34801561040057600080fd5b5061041b60048036038101906104169190612949565b610cd9565b005b34801561042957600080fd5b50610444600480360381019061043f9190612675565b610cec565b60405161045191906126e3565b60405180910390f35b34801561046657600080fd5b50610481600480360381019061047c9190612794565b610d9d565b60405161048e9190612779565b60405180910390f35b3480156104a357600080fd5b506104be60048036038101906104b99190612794565b610e54565b6040516104cb9190612a50565b60405180910390f35b3480156104e057600080fd5b506104e9610f02565b6040516104f69190612779565b60405180910390f35b34801561050b57600080fd5b50610514610f07565b604051610521919061261d565b60405180910390f35b34801561053657600080fd5b50610551600480360381019061054c9190612a9e565b610f99565b005b34801561055f57600080fd5b5061057a60048036038101906105759190612b7f565b610faf565b005b34801561058857600080fd5b506105a3600480360381019061059e919061272a565b611011565b6040516105b09190612572565b60405180910390f35b3480156105c557600080fd5b506105e060048036038101906105db9190612675565b61105d565b6040516105ed91906126e3565b60405180910390f35b34801561060257600080fd5b5061061d60048036038101906106189190612675565b61109c565b60405161062a919061261d565b60405180910390f35b34801561063f57600080fd5b50610648611143565b604051610655919061261d565b60405180910390f35b34801561066a57600080fd5b5061068560048036038101906106809190612c02565b6111d1565b6040516106929190612572565b60405180910390f35b3480156106a757600080fd5b506106c260048036038101906106bd9190612794565b611265565b6040516106cf9190612779565b60405180910390f35b60007f780e9d63000000000000000000000000000000000000000000000000000000007bffffffffffffffffffffffffffffffffffffffffffffffffffffffff1916827bffffffffffffffffffffffffffffffffffffffffffffffffffffffff1916148061074b575061074a8261127d565b5b9050919050565b60606000805461076190612c71565b80601f016020809104026020016040519081016040528092919081815260200182805461078d90612c71565b80156107da5780601f106107af576101008083540402835291602001916107da565b820191906000526020600020905b8154815290600101906020018083116107bd57829003601f168201915b5050505050905090565b60006107ef8261135f565b61082e576040517f08c379a000000000000000000000000000000000000000000000000000000000815260040161082590612d14565b60405180910390fd5b6004600083815260200190815260200160002060009054906101000a900473ffffffffffffffffffffffffffffffffffffffff169050919050565b600061087482610cec565b90508073ffffffffffffffffffffffffffffffffffffffff168373ffffffffffffffffffffffffffffffffffffffff16036108e4576040517f08c379a00000000000000000000000000000000000000000000000000000000081526004016108db90612da6565b60405180910390fd5b8073ffffffffffffffffffffffffffffffffffffffff166109036113cb565b73ffffffffffffffffffffffffffffffffffffffff16148061093257506109318161092c6113cb565b6111d1565b5b610971576040517f08c379a000000000000000000000000000000000000000000000000000000000815260040161096890612e38565b60405180910390fd5b61097b83836113d3565b505050565b600181565b600080600090505b600b80549050811015610a28578273ffffffffffffffffffffffffffffffffffffffff16600b82815481106109c5576109c4612e58565b5b9060005260206000200160009054906101000a900473ffffffffffffffffffffffffffffffffffffffff1673ffffffffffffffffffffffffffffffffffffffff1603610a15576001915050610a2e565b8080610a2090612eb6565b91505061098d565b50600090505b919050565b6000600880549050905090565b610a51610a4b6113cb565b8261148c565b610a90576040517f08c379a0000000000000000000000000000000000000000000000000000000008152600401610a8790612f70565b60405180910390fd5b610a9b83838361156a565b505050565b6000610aab83610d9d565b8210610aec576040517f08c379a0000000000000000000000000000000000000000000000000000000008152600401610ae390613002565b60405180910390fd5b600660008473ffffffffffffffffffffffffffffffffffffffff1673ffffffffffffffffffffffffffffffffffffffff168152602001908152602001600020600083815260200190815260200160002054905092915050565b610b4d6117d0565b50565b600047905060008111610b98576040517f08c379a0000000000000000000000000000000000000000000000000000000008152600401610b8f9061306e565b60405180910390fd5b60003373ffffffffffffffffffffffffffffffffffffffff1682604051610bbe906130bf565b60006040518083038185875af1925050503d8060008114610bfb576040519150601f19603f3d011682016040523d82523d6000602084013e610c00565b606091505b5050905080610c44576040517f08c379a0000000000000000000000000000000000000000000000000000000008152600401610c3b90613120565b60405180910390fd5b5050565b610c6383838360405180602001604052806000815250610faf565b505050565b6000610c72610a33565b8210610cb3576040517f08c379a0000000000000000000000000000000000000000000000000000000008152600401610caa906131b2565b60405180910390fd5b60088281548110610cc757610cc6612e58565b5b90600052602060002001549050919050565b80600d9081610ce8919061337e565b5050565b6000806002600084815260200190815260200160002060009054906101000a900473ffffffffffffffffffffffffffffffffffffffff169050600073ffffffffffffffffffffffffffffffffffffffff168173ffffffffffffffffffffffffffffffffffffffff1603610d94576040517f08c379a0000000000000000000000000000000000000000000000000000000008152600401610d8b906134c2565b60405180910390fd5b80915050919050565b60008073ffffffffffffffffffffffffffffffffffffffff168273ffffffffffffffffffffffffffffffffffffffff1603610e0d576040517f08c379a0000000000000000000000000000000000000000000000000000000008152600401610e0490613554565b60405180910390fd5b600360008373ffffffffffffffffffffffffffffffffffffffff1673ffffffffffffffffffffffffffffffffffffffff168152602001908152602001600020549050919050565b60606000610e6183610d9d565b905060008167ffffffffffffffff811115610e7f57610e7e61281e565b5b604051908082528060200260200182016040528015610ead5781602001602082028036833780820191505090505b50905060005b82811015610ef757610ec58582610aa0565b828281518110610ed857610ed7612e58565b5b6020026020010181815250508080610eef90612eb6565b915050610eb3565b508092505050919050565b600081565b606060018054610f1690612c71565b80601f0160208091040260200160405190810160405280929190818152602001828054610f4290612c71565b8015610f8f5780601f10610f6457610100808354040283529160200191610f8f565b820191906000526020600020905b815481529060010190602001808311610f7257829003601f168201915b5050505050905090565b610fab610fa46113cb565b8383611858565b5050565b610fc0610fba6113cb565b8361148c565b610fff576040517f08c379a0000000000000000000000000000000000000000000000000000000008152600401610ff690612f70565b60405180910390fd5b61100b848484846119c4565b50505050565b600081600c60008573ffffffffffffffffffffffffffffffffffffffff1673ffffffffffffffffffffffffffffffffffffffff1681526020019081526020016000208190555092915050565b600b818154811061106d57600080fd5b906000526020600020016000915054906101000a900473ffffffffffffffffffffffffffffffffffffffff1681565b60606110a78261135f565b6110e6576040517f08c379a00000000000000000000000000000000000000000000000000000000081526004016110dd906135e6565b60405180910390fd5b60006110f0611a20565b90506000815111611110576040518060200160405280600081525061113b565b8061111a84611ab2565b60405160200161112b929190613642565b6040516020818303038152906040525b915050919050565b600d805461115090612c71565b80601f016020809104026020016040519081016040528092919081815260200182805461117c90612c71565b80156111c95780601f1061119e576101008083540402835291602001916111c9565b820191906000526020600020905b8154815290600101906020018083116111ac57829003601f168201915b505050505081565b6000600560008473ffffffffffffffffffffffffffffffffffffffff1673ffffffffffffffffffffffffffffffffffffffff16815260200190815260200160002060008373ffffffffffffffffffffffffffffffffffffffff1673ffffffffffffffffffffffffffffffffffffffff16815260200190815260200160002060009054906101000a900460ff16905092915050565b600c6020528060005260406000206000915090505481565b60007f80ac58cd000000000000000000000000000000000000000000000000000000007bffffffffffffffffffffffffffffffffffffffffffffffffffffffff1916827bffffffffffffffffffffffffffffffffffffffffffffffffffffffff1916148061134857507f5b5e139f000000000000000000000000000000000000000000000000000000007bffffffffffffffffffffffffffffffffffffffffffffffffffffffff1916827bffffffffffffffffffffffffffffffffffffffffffffffffffffffff1916145b80611358575061135782611c12565b5b9050919050565b60008073ffffffffffffffffffffffffffffffffffffffff166002600084815260200190815260200160002060009054906101000a900473ffffffffffffffffffffffffffffffffffffffff1673ffffffffffffffffffffffffffffffffffffffff1614159050919050565b600033905090565b816004600083815260200190815260200160002060006101000a81548173ffffffffffffffffffffffffffffffffffffffff021916908373ffffffffffffffffffffffffffffffffffffffff160217905550808273ffffffffffffffffffffffffffffffffffffffff1661144683610cec565b73ffffffffffffffffffffffffffffffffffffffff167f8c5be1e5ebec7d5bd14f71427d1e84f3dd0314c0f7b2291e5b200ac8c7c3b92560405160405180910390a45050565b60006114978261135f565b6114d6576040517f08c379a00000000000000000000000000000000000000000000000000000000081526004016114cd906136d8565b60405180910390fd5b60006114e183610cec565b90508073ffffffffffffffffffffffffffffffffffffffff168473ffffffffffffffffffffffffffffffffffffffff161480611523575061152281856111d1565b5b8061156157508373ffffffffffffffffffffffffffffffffffffffff16611549846107e4565b73ffffffffffffffffffffffffffffffffffffffff16145b91505092915050565b8273ffffffffffffffffffffffffffffffffffffffff1661158a82610cec565b73ffffffffffffffffffffffffffffffffffffffff16146115e0576040517f08c379a00000000000000000000000000000000000000000000000000000000081526004016115d79061376a565b60405180910390fd5b600073ffffffffffffffffffffffffffffffffffffffff168273ffffffffffffffffffffffffffffffffffffffff160361164f576040517f08c379a0000000000000000000000000000000000000000000000000000000008152600401611646906137fc565b60405180910390fd5b61165a838383611c7c565b6116656000826113d3565b6001600360008573ffffffffffffffffffffffffffffffffffffffff1673ffffffffffffffffffffffffffffffffffffffff16815260200190815260200160002060008282546116b5919061381c565b925050819055506001600360008473ffffffffffffffffffffffffffffffffffffffff1673ffffffffffffffffffffffffffffffffffffffff168152602001908152602001600020600082825461170c9190613850565b92505081905550816002600083815260200190815260200160002060006101000a81548173ffffffffffffffffffffffffffffffffffffffff021916908373ffffffffffffffffffffffffffffffffffffffff160217905550808273ffffffffffffffffffffffffffffffffffffffff168473ffffffffffffffffffffffffffffffffffffffff167fddf252ad1be2c89b69c2b068fc378daa952ba7f163c4a11628f55a4df523b3ef60405160405180910390a46117cb838383611d8e565b505050565b60006117dc600a611d93565b90506117e83382611da1565b6117f2600a611dbf565b600b339080600181540180825580915050600190039060005260206000200160009091909190916101000a81548173ffffffffffffffffffffffffffffffffffffffff021916908373ffffffffffffffffffffffffffffffffffffffff16021790555050565b8173ffffffffffffffffffffffffffffffffffffffff168373ffffffffffffffffffffffffffffffffffffffff16036118c6576040517f08c379a00000000000000000000000000000000000000000000000000000000081526004016118bd906138d0565b60405180910390fd5b80600560008573ffffffffffffffffffffffffffffffffffffffff1673ffffffffffffffffffffffffffffffffffffffff16815260200190815260200160002060008473ffffffffffffffffffffffffffffffffffffffff1673ffffffffffffffffffffffffffffffffffffffff16815260200190815260200160002060006101000a81548160ff0219169083151502179055508173ffffffffffffffffffffffffffffffffffffffff168373ffffffffffffffffffffffffffffffffffffffff167f17307eab39ab6107e8899845ad3d59bd9653f200f220920489ca2b5937696c31836040516119b79190612572565b60405180910390a3505050565b6119cf84848461156a565b6119db84848484611dd5565b611a1a576040517f08c379a0000000000000000000000000000000000000000000000000000000008152600401611a1190613962565b60405180910390fd5b50505050565b6060600d8054611a2f90612c71565b80601f0160208091040260200160405190810160405280929190818152602001828054611a5b90612c71565b8015611aa85780601f10611a7d57610100808354040283529160200191611aa8565b820191906000526020600020905b815481529060010190602001808311611a8b57829003601f168201915b5050505050905090565b606060008203611af9576040518060400160405280600181526020017f30000000000000000000000000000000000000000000000000000000000000008152509050611c0d565b600082905060005b60008214611b2b578080611b1490612eb6565b915050600a82611b2491906139b1565b9150611b01565b60008167ffffffffffffffff811115611b4757611b4661281e565b5b6040519080825280601f01601f191660200182016040528015611b795781602001600182028036833780820191505090505b5090505b60008514611c0657600182611b92919061381c565b9150600a85611ba191906139e2565b6030611bad9190613850565b60f81b818381518110611bc357611bc2612e58565b5b60200101907effffffffffffffffffffffffffffffffffffffffffffffffffffffffffffff1916908160001a905350600a85611bff91906139b1565b9450611b7d565b8093505050505b919050565b60007f01ffc9a7000000000000000000000000000000000000000000000000000000007bffffffffffffffffffffffffffffffffffffffffffffffffffffffff1916827bffffffffffffffffffffffffffffffffffffffffffffffffffffffff1916149050919050565b611c87838383611f5c565b600073ffffffffffffffffffffffffffffffffffffffff168373ffffffffffffffffffffffffffffffffffffffff1603611cc957611cc481611f61565b611d08565b8173ffffffffffffffffffffffffffffffffffffffff168373ffffffffffffffffffffffffffffffffffffffff1614611d0757611d068382611faa565b5b5b600073ffffffffffffffffffffffffffffffffffffffff168273ffffffffffffffffffffffffffffffffffffffff1603611d4a57611d4581612117565b611d89565b8273ffffffffffffffffffffffffffffffffffffffff168273ffffffffffffffffffffffffffffffffffffffff1614611d8857611d8782826121e8565b5b5b505050565b505050565b600081600001549050919050565b611dbb828260405180602001604052806000815250612267565b5050565b6001816000016000828254019250508190555050565b6000611df68473ffffffffffffffffffffffffffffffffffffffff166122c2565b15611f4f578373ffffffffffffffffffffffffffffffffffffffff1663150b7a02611e1f6113cb565b8786866040518563ffffffff1660e01b8152600401611e419493929190613a68565b6020604051808303816000875af1925050508015611e7d57506040513d601f19601f82011682018060405250810190611e7a9190613ac9565b60015b611eff573d8060008114611ead576040519150601f19603f3d011682016040523d82523d6000602084013e611eb2565b606091505b506000815103611ef7576040517f08c379a0000000000000000000000000000000000000000000000000000000008152600401611eee90613962565b60405180910390fd5b805181602001fd5b63150b7a0260e01b7bffffffffffffffffffffffffffffffffffffffffffffffffffffffff1916817bffffffffffffffffffffffffffffffffffffffffffffffffffffffff191614915050611f54565b600190505b949350505050565b505050565b6008805490506009600083815260200190815260200160002081905550600881908060018154018082558091505060019003906000526020600020016000909190919091505550565b60006001611fb784610d9d565b611fc1919061381c565b90506000600760008481526020019081526020016000205490508181146120a6576000600660008673ffffffffffffffffffffffffffffffffffffffff1673ffffffffffffffffffffffffffffffffffffffff168152602001908152602001600020600084815260200190815260200160002054905080600660008773ffffffffffffffffffffffffffffffffffffffff1673ffffffffffffffffffffffffffffffffffffffff168152602001908152602001600020600084815260200190815260200160002081905550816007600083815260200190815260200160002081905550505b6007600084815260200190815260200160002060009055600660008573ffffffffffffffffffffffffffffffffffffffff1673ffffffffffffffffffffffffffffffffffffffff16815260200190815260200160002060008381526020019081526020016000206000905550505050565b6000600160088054905061212b919061381c565b905060006009600084815260200190815260200160002054905060006008838154811061215b5761215a612e58565b5b90600052602060002001549050806008838154811061217d5761217c612e58565b5b9060005260206000200181905550816009600083815260200190815260200160002081905550600960008581526020019081526020016000206000905560088054806121cc576121cb613af6565b5b6001900381819060005260206000200160009055905550505050565b60006121f383610d9d565b905081600660008573ffffffffffffffffffffffffffffffffffffffff1673ffffffffffffffffffffffffffffffffffffffff168152602001908152602001600020600083815260200190815260200160002081905550806007600084815260200190815260200160002081905550505050565b61227183836122e5565b61227e6000848484611dd5565b6122bd576040517f08c379a00000000000000000000000000000000000000000000000000000000081526004016122b490613962565b60405180910390fd5b505050565b6000808273ffffffffffffffffffffffffffffffffffffffff163b119050919050565b600073ffffffffffffffffffffffffffffffffffffffff168273ffffffffffffffffffffffffffffffffffffffff1603612354576040517f08c379a000000000000000000000000000000000000000000000000000000000815260040161234b90613b71565b60405180910390fd5b61235d8161135f565b1561239d576040517f08c379a000000000000000000000000000000000000000000000000000000000815260040161239490613bdd565b60405180910390fd5b6123a960008383611c7c565b6001600360008473ffffffffffffffffffffffffffffffffffffffff1673ffffffffffffffffffffffffffffffffffffffff16815260200190815260200160002060008282546123f99190613850565b92505081905550816002600083815260200190815260200160002060006101000a81548173ffffffffffffffffffffffffffffffffffffffff021916908373ffffffffffffffffffffffffffffffffffffffff160217905550808273ffffffffffffffffffffffffffffffffffffffff16600073ffffffffffffffffffffffffffffffffffffffff167fddf252ad1be2c89b69c2b068fc378daa952ba7f163c4a11628f55a4df523b3ef60405160405180910390a46124ba60008383611d8e565b5050565b6000604051905090565b600080fd5b600080fd5b60007fffffffff0000000000000000000000000000000000000000000000000000000082169050919050565b612507816124d2565b811461251257600080fd5b50565b600081359050612524816124fe565b92915050565b6000602082840312156125405761253f6124c8565b5b600061254e84828501612515565b91505092915050565b60008115159050919050565b61256c81612557565b82525050565b60006020820190506125876000830184612563565b92915050565b600081519050919050565b600082825260208201905092915050565b60005b838110156125c75780820151818401526020810190506125ac565b60008484015250505050565b6000601f19601f8301169050919050565b60006125ef8261258d565b6125f98185612598565b93506126098185602086016125a9565b612612816125d3565b840191505092915050565b6000602082019050818103600083015261263781846125e4565b905092915050565b6000819050919050565b6126528161263f565b811461265d57600080fd5b50565b60008135905061266f81612649565b92915050565b60006020828403121561268b5761268a6124c8565b5b600061269984828501612660565b91505092915050565b600073ffffffffffffffffffffffffffffffffffffffff82169050919050565b60006126cd826126a2565b9050919050565b6126dd816126c2565b82525050565b60006020820190506126f860008301846126d4565b92915050565b612707816126c2565b811461271257600080fd5b50565b600081359050612724816126fe565b92915050565b60008060408385031215612741576127406124c8565b5b600061274f85828601612715565b925050602061276085828601612660565b9150509250929050565b6127738161263f565b82525050565b600060208201905061278e600083018461276a565b92915050565b6000602082840312156127aa576127a96124c8565b5b60006127b884828501612715565b91505092915050565b6000806000606084860312156127da576127d96124c8565b5b60006127e886828701612715565b93505060206127f986828701612715565b925050604061280a86828701612660565b9150509250925092565b600080fd5b600080fd5b7f4e487b7100000000000000000000000000000000000000000000000000000000600052604160045260246000fd5b612856826125d3565b810181811067ffffffffffffffff821117156128755761287461281e565b5b80604052505050565b60006128886124be565b9050612894828261284d565b919050565b600067ffffffffffffffff8211156128b4576128b361281e565b5b6128bd826125d3565b9050602081019050919050565b82818337600083830152505050565b60006128ec6128e784612899565b61287e565b90508281526020810184848401111561290857612907612819565b5b6129138482856128ca565b509392505050565b600082601f8301126129305761292f612814565b5b81356129408482602086016128d9565b91505092915050565b60006020828403121561295f5761295e6124c8565b5b600082013567ffffffffffffffff81111561297d5761297c6124cd565b5b6129898482850161291b565b91505092915050565b600081519050919050565b600082825260208201905092915050565b6000819050602082019050919050565b6129c78161263f565b82525050565b60006129d983836129be565b60208301905092915050565b6000602082019050919050565b60006129fd82612992565b612a07818561299d565b9350612a12836129ae565b8060005b83811015612a43578151612a2a88826129cd565b9750612a35836129e5565b925050600181019050612a16565b5085935050505092915050565b60006020820190508181036000830152612a6a81846129f2565b905092915050565b612a7b81612557565b8114612a8657600080fd5b50565b600081359050612a9881612a72565b92915050565b60008060408385031215612ab557612ab46124c8565b5b6000612ac385828601612715565b9250506020612ad485828601612a89565b9150509250929050565b600067ffffffffffffffff821115612af957612af861281e565b5b612b02826125d3565b9050602081019050919050565b6000612b22612b1d84612ade565b61287e565b905082815260208101848484011115612b3e57612b3d612819565b5b612b498482856128ca565b509392505050565b600082601f830112612b6657612b65612814565b5b8135612b76848260208601612b0f565b91505092915050565b60008060008060808587031215612b9957612b986124c8565b5b6000612ba787828801612715565b9450506020612bb887828801612715565b9350506040612bc987828801612660565b925050606085013567ffffffffffffffff811115612bea57612be96124cd565b5b612bf687828801612b51565b91505092959194509250565b60008060408385031215612c1957612c186124c8565b5b6000612c2785828601612715565b9250506020612c3885828601612715565b9150509250929050565b7f4e487b7100000000000000000000000000000000000000000000000000000000600052602260045260246000fd5b60006002820490506001821680612c8957607f821691505b602082108103612c9c57612c9b612c42565b5b50919050565b7f4552433732313a20617070726f76656420717565727920666f72206e6f6e657860008201527f697374656e7420746f6b656e0000000000000000000000000000000000000000602082015250565b6000612cfe602c83612598565b9150612d0982612ca2565b604082019050919050565b60006020820190508181036000830152612d2d81612cf1565b9050919050565b7f4552433732313a20617070726f76616c20746f2063757272656e74206f776e6560008201527f7200000000000000000000000000000000000000000000000000000000000000602082015250565b6000612d90602183612598565b9150612d9b82612d34565b604082019050919050565b60006020820190508181036000830152612dbf81612d83565b9050919050565b7f4552433732313a20617070726f76652063616c6c6572206973206e6f74206f7760008201527f6e6572206e6f7220617070726f76656420666f7220616c6c0000000000000000602082015250565b6000612e22603883612598565b9150612e2d82612dc6565b604082019050919050565b60006020820190508181036000830152612e5181612e15565b9050919050565b7f4e487b7100000000000000000000000000000000000000000000000000000000600052603260045260246000fd5b7f4e487b7100000000000000000000000000000000000000000000000000000000600052601160045260246000fd5b6000612ec18261263f565b91507fffffffffffffffffffffffffffffffffffffffffffffffffffffffffffffffff8203612ef357612ef2612e87565b5b600182019050919050565b7f4552433732313a207472616e736665722063616c6c6572206973206e6f74206f60008201527f776e6572206e6f7220617070726f766564000000000000000000000000000000602082015250565b6000612f5a603183612598565b9150612f6582612efe565b604082019050919050565b60006020820190508181036000830152612f8981612f4d565b9050919050565b7f455243373231456e756d657261626c653a206f776e657220696e646578206f7560008201527f74206f6620626f756e6473000000000000000000000000000000000000000000602082015250565b6000612fec602b83612598565b9150612ff782612f90565b604082019050919050565b6000602082019050818103600083015261301b81612fdf565b9050919050565b7f4e6f206574686572206c65667420746f20776974686472617700000000000000600082015250565b6000613058601983612598565b915061306382613022565b602082019050919050565b600060208201905081810360008301526130878161304b565b9050919050565b600081905092915050565b50565b60006130a960008361308e565b91506130b482613099565b600082019050919050565b60006130ca8261309c565b9150819050919050565b7f5472616e73666572206661696c65642e00000000000000000000000000000000600082015250565b600061310a601083612598565b9150613115826130d4565b602082019050919050565b60006020820190508181036000830152613139816130fd565b9050919050565b7f455243373231456e756d657261626c653a20676c6f62616c20696e646578206f60008201527f7574206f6620626f756e64730000000000000000000000000000000000000000602082015250565b600061319c602c83612598565b91506131a782613140565b604082019050919050565b600060208201905081810360008301526131cb8161318f565b9050919050565b60008190508160005260206000209050919050565b60006020601f8301049050919050565b600082821b905092915050565b6000600883026132347fffffffffffffffffffffffffffffffffffffffffffffffffffffffffffffffff826131f7565b61323e86836131f7565b95508019841693508086168417925050509392505050565b6000819050919050565b600061327b6132766132718461263f565b613256565b61263f565b9050919050565b6000819050919050565b61329583613260565b6132a96132a182613282565b848454613204565b825550505050565b600090565b6132be6132b1565b6132c981848461328c565b505050565b5b818110156132ed576132e26000826132b6565b6001810190506132cf565b5050565b601f82111561333257613303816131d2565b61330c846131e7565b8101602085101561331b578190505b61332f613327856131e7565b8301826132ce565b50505b505050565b600082821c905092915050565b600061335560001984600802613337565b1980831691505092915050565b600061336e8383613344565b9150826002028217905092915050565b6133878261258d565b67ffffffffffffffff8111156133a05761339f61281e565b5b6133aa8254612c71565b6133b58282856132f1565b600060209050601f8311600181146133e857600084156133d6578287015190505b6133e08582613362565b865550613448565b601f1984166133f6866131d2565b60005b8281101561341e578489015182556001820191506020850194506020810190506133f9565b8683101561343b5784890151613437601f891682613344565b8355505b6001600288020188555050505b505050505050565b7f4552433732313a206f776e657220717565727920666f72206e6f6e657869737460008201527f656e7420746f6b656e0000000000000000000000000000000000000000000000602082015250565b60006134ac602983612598565b91506134b782613450565b604082019050919050565b600060208201905081810360008301526134db8161349f565b9050919050565b7f4552433732313a2062616c616e636520717565727920666f7220746865207a6560008201527f726f206164647265737300000000000000000000000000000000000000000000602082015250565b600061353e602a83612598565b9150613549826134e2565b604082019050919050565b6000602082019050818103600083015261356d81613531565b9050919050565b7f4552433732314d657461646174613a2055524920717565727920666f72206e6f60008201527f6e6578697374656e7420746f6b656e0000000000000000000000000000000000602082015250565b60006135d0602f83612598565b91506135db82613574565b604082019050919050565b600060208201905081810360008301526135ff816135c3565b9050919050565b600081905092915050565b600061361c8261258d565b6136268185613606565b93506136368185602086016125a9565b80840191505092915050565b600061364e8285613611565b915061365a8284613611565b91508190509392505050565b7f4552433732313a206f70657261746f7220717565727920666f72206e6f6e657860008201527f697374656e7420746f6b656e0000000000000000000000000000000000000000602082015250565b60006136c2602c83612598565b91506136cd82613666565b604082019050919050565b600060208201905081810360008301526136f1816136b5565b9050919050565b7f4552433732313a207472616e736665722066726f6d20696e636f72726563742060008201527f6f776e6572000000000000000000000000000000000000000000000000000000602082015250565b6000613754602583612598565b915061375f826136f8565b604082019050919050565b6000602082019050818103600083015261378381613747565b9050919050565b7f4552433732313a207472616e7366657220746f20746865207a65726f2061646460008201527f7265737300000000000000000000000000000000000000000000000000000000602082015250565b60006137e6602483612598565b91506137f18261378a565b604082019050919050565b60006020820190508181036000830152613815816137d9565b9050919050565b60006138278261263f565b91506138328361263f565b925082820390508181111561384a57613849612e87565b5b92915050565b600061385b8261263f565b91506138668361263f565b925082820190508082111561387e5761387d612e87565b5b92915050565b7f4552433732313a20617070726f766520746f2063616c6c657200000000000000600082015250565b60006138ba601983612598565b91506138c582613884565b602082019050919050565b600060208201905081810360008301526138e9816138ad565b9050919050565b7f4552433732313a207472616e7366657220746f206e6f6e20455243373231526560008201527f63656976657220696d706c656d656e7465720000000000000000000000000000602082015250565b600061394c603283612598565b9150613957826138f0565b604082019050919050565b6000602082019050818103600083015261397b8161393f565b9050919050565b7f4e487b7100000000000000000000000000000000000000000000000000000000600052601260045260246000fd5b60006139bc8261263f565b91506139c78361263f565b9250826139d7576139d6613982565b5b828204905092915050565b60006139ed8261263f565b91506139f88361263f565b925082613a0857613a07613982565b5b828206905092915050565b600081519050919050565b600082825260208201905092915050565b6000613a3a82613a13565b613a448185613a1e565b9350613a548185602086016125a9565b613a5d816125d3565b840191505092915050565b6000608082019050613a7d60008301876126d4565b613a8a60208301866126d4565b613a97604083018561276a565b8181036060830152613aa98184613a2f565b905095945050505050565b600081519050613ac3816124fe565b92915050565b600060208284031215613adf57613ade6124c8565b5b6000613aed84828501613ab4565b91505092915050565b7f4e487b7100000000000000000000000000000000000000000000000000000000600052603160045260246000fd5b7f4552433732313a206d696e7420746f20746865207a65726f2061646472657373600082015250565b6000613b5b602083612598565b9150613b6682613b25565b602082019050919050565b60006020820190508181036000830152613b8a81613b4e565b9050919050565b7f4552433732313a20746f6b656e20616c7265616479206d696e74656400000000600082015250565b6000613bc7601c83612598565b9150613bd282613b91565b602082019050919050565b60006020820190508181036000830152613bf681613bba565b905091905056fea2646970667358221220403e053f3954eaa072dbfce4ae352e7da11149b81ca5fcd602b58c375ccb44ad64736f6c63430008140033",
  "linkReferences": {},
  "deployedLinkReferences": {}
}