{
  "_format": "hh-sol-artifact-1",
  "contractName": "CodingDiploma",
  "sourceName": "contracts/CodingDiploma.sol",
  "abi": [
    {
      "inputs": [
        {
          "internalType": "string",
          "name": "baseURI",
          "type": "string"
        }
      ],
      "stateMutability": "nonpayable",
      "type": "constructor"
    },
    {
      "anonymous": false,
      "inputs": [
        {
          "indexed": true,
          "internalType": "address",
          "name": "owner",
          "type": "address"
        },
        {
          "indexed": true,
          "internalType": "address",
          "name": "approved",
          "type": "address"
        },
        {
          "indexed": true,
          "internalType": "uint256",
          "name": "tokenId",
          "type": "uint256"
        }
      ],
      "name": "Approval",
      "type": "event"
    },
    {
      "anonymous": false,
      "inputs": [
        {
          "indexed": true,
          "internalType": "address",
          "name": "owner",
          "type": "address"
        },
        {
          "indexed": true,
          "internalType": "address",
          "name": "operator",
          "type": "address"
        },
        {
          "indexed": false,
          "internalType": "bool",
          "name": "approved",
          "type": "bool"
        }
      ],
      "name": "ApprovalForAll",
      "type": "event"
    },
    {
      "anonymous": false,
      "inputs": [
        {
          "indexed": true,
          "internalType": "address",
          "name": "from",
          "type": "address"
        },
        {
          "indexed": true,
          "internalType": "address",
          "name": "to",
          "type": "address"
        },
        {
          "indexed": true,
          "internalType": "uint256",
          "name": "tokenId",
          "type": "uint256"
        }
      ],
      "name": "Transfer",
      "type": "event"
    },
    {
      "inputs": [],
      "name": "MAX_PER_MINT",
      "outputs": [
        {
          "internalType": "uint256",
          "name": "",
          "type": "uint256"
        }
      ],
      "stateMutability": "view",
      "type": "function"
    },
    {
      "inputs": [],
      "name": "PRICE",
      "outputs": [
        {
          "internalType": "uint256",
          "name": "",
          "type": "uint256"
        }
      ],
      "stateMutability": "view",
      "type": "function"
    },
    {
      "inputs": [
        {
          "internalType": "address",
          "name": "to",
          "type": "address"
        },
        {
          "internalType": "uint256",
          "name": "tokenId",
          "type": "uint256"
        }
      ],
      "name": "approve",
      "outputs": [],
      "stateMutability": "nonpayable",
      "type": "function"
    },
    {
      "inputs": [
        {
          "internalType": "address",
          "name": "owner",
          "type": "address"
        }
      ],
      "name": "balanceOf",
      "outputs": [
        {
          "internalType": "uint256",
          "name": "",
          "type": "uint256"
        }
      ],
      "stateMutability": "view",
      "type": "function"
    },
    {
      "inputs": [],
      "name": "baseTokenURI",
      "outputs": [
        {
          "internalType": "string",
          "name": "",
          "type": "string"
        }
      ],
      "stateMutability": "view",
      "type": "function"
    },
    {
      "inputs": [
        {
          "internalType": "uint256",
          "name": "tokenId",
          "type": "uint256"
        }
      ],
      "name": "getApproved",
      "outputs": [
        {
          "internalType": "address",
          "name": "",
          "type": "address"
        }
      ],
      "stateMutability": "view",
      "type": "function"
    },
    {
      "inputs": [
        {
          "internalType": "address",
          "name": "owner",
          "type": "address"
        },
        {
          "internalType": "address",
          "name": "operator",
          "type": "address"
        }
      ],
      "name": "isApprovedForAll",
      "outputs": [
        {
          "internalType": "bool",
          "name": "",
          "type": "bool"
        }
      ],
      "stateMutability": "view",
      "type": "function"
    },
    {
      "inputs": [
        {
          "internalType": "uint256",
          "name": "_count",
          "type": "uint256"
        }
      ],
      "name": "mintNFTs",
      "outputs": [],
      "stateMutability": "payable",
      "type": "function"
    },
    {
      "inputs": [],
      "name": "name",
      "outputs": [
        {
          "internalType": "string",
          "name": "",
          "type": "string"
        }
      ],
      "stateMutability": "view",
      "type": "function"
    },
    {
      "inputs": [
        {
          "internalType": "uint256",
          "name": "tokenId",
          "type": "uint256"
        }
      ],
      "name": "ownerOf",
      "outputs": [
        {
          "internalType": "address",
          "name": "",
          "type": "address"
        }
      ],
      "stateMutability": "view",
      "type": "function"
    },
    {
      "inputs": [
        {
          "internalType": "address",
          "name": "from",
          "type": "address"
        },
        {
          "internalType": "address",
          "name": "to",
          "type": "address"
        },
        {
          "internalType": "uint256",
          "name": "tokenId",
          "type": "uint256"
        }
      ],
      "name": "safeTransferFrom",
      "outputs": [],
      "stateMutability": "nonpayable",
      "type": "function"
    },
    {
      "inputs": [
        {
          "internalType": "address",
          "name": "from",
          "type": "address"
        },
        {
          "internalType": "address",
          "name": "to",
          "type": "address"
        },
        {
          "internalType": "uint256",
          "name": "tokenId",
          "type": "uint256"
        },
        {
          "internalType": "bytes",
          "name": "_data",
          "type": "bytes"
        }
      ],
      "name": "safeTransferFrom",
      "outputs": [],
      "stateMutability": "nonpayable",
      "type": "function"
    },
    {
      "inputs": [
        {
          "internalType": "address",
          "name": "operator",
          "type": "address"
        },
        {
          "internalType": "bool",
          "name": "approved",
          "type": "bool"
        }
      ],
      "name": "setApprovalForAll",
      "outputs": [],
      "stateMutability": "nonpayable",
      "type": "function"
    },
    {
      "inputs": [
        {
          "internalType": "string",
          "name": "_baseTokenURI",
          "type": "string"
        }
      ],
      "name": "setBaseURI",
      "outputs": [],
      "stateMutability": "nonpayable",
      "type": "function"
    },
    {
      "inputs": [
        {
          "internalType": "bytes4",
          "name": "interfaceId",
          "type": "bytes4"
        }
      ],
      "name": "supportsInterface",
      "outputs": [
        {
          "internalType": "bool",
          "name": "",
          "type": "bool"
        }
      ],
      "stateMutability": "view",
      "type": "function"
    },
    {
      "inputs": [],
      "name": "symbol",
      "outputs": [
        {
          "internalType": "string",
          "name": "",
          "type": "string"
        }
      ],
      "stateMutability": "view",
      "type": "function"
    },
    {
      "inputs": [
        {
          "internalType": "uint256",
          "name": "index",
          "type": "uint256"
        }
      ],
      "name": "tokenByIndex",
      "outputs": [
        {
          "internalType": "uint256",
          "name": "",
          "type": "uint256"
        }
      ],
      "stateMutability": "view",
      "type": "function"
    },
    {
      "inputs": [
        {
          "internalType": "address",
          "name": "owner",
          "type": "address"
        },
        {
          "internalType": "uint256",
          "name": "index",
          "type": "uint256"
        }
      ],
      "name": "tokenOfOwnerByIndex",
      "outputs": [
        {
          "internalType": "uint256",
          "name": "",
          "type": "uint256"
        }
      ],
      "stateMutability": "view",
      "type": "function"
    },
    {
      "inputs": [
        {
          "internalType": "uint256",
          "name": "tokenId",
          "type": "uint256"
        }
      ],
      "name": "tokenURI",
      "outputs": [
        {
          "internalType": "string",
          "name": "",
          "type": "string"
        }
      ],
      "stateMutability": "view",
      "type": "function"
    },
    {
      "inputs": [
        {
          "internalType": "address",
          "name": "_owner",
          "type": "address"
        }
      ],
      "name": "tokensOfOwner",
      "outputs": [
        {
          "internalType": "uint256[]",
          "name": "",
          "type": "uint256[]"
        }
      ],
      "stateMutability": "view",
      "type": "function"
    },
    {
      "inputs": [],
      "name": "totalSupply",
      "outputs": [
        {
          "internalType": "uint256",
          "name": "",
          "type": "uint256"
        }
      ],
      "stateMutability": "view",
      "type": "function"
    },
    {
      "inputs": [
        {
          "internalType": "address",
          "name": "from",
          "type": "address"
        },
        {
          "internalType": "address",
          "name": "to",
          "type": "address"
        },
        {
          "internalType": "uint256",
          "name": "tokenId",
          "type": "uint256"
        }
      ],
      "name": "transferFrom",
      "outputs": [],
      "stateMutability": "nonpayable",
      "type": "function"
    },
    {
      "inputs": [],
      "name": "withdraw",
      "outputs": [],
      "stateMutability": "payable",
      "type": "function"
    }
  ],
  "bytecode": "0x60806040523480156200001157600080fd5b506040516200405b3803806200405b833981810160405281019062000037919062000289565b6040518060400160405280600d81526020017f436f64696e674469706c6f6d61000000000000000000000000000000000000008152506040518060400160405280600d81526020017f436f64696e674469706c6f6d61000000000000000000000000000000000000008152508160009081620000b4919062000525565b508060019081620000c6919062000525565b505050620000da81620000e160201b60201c565b506200060c565b80600b9081620000f2919062000525565b5050565b6000604051905090565b600080fd5b600080fd5b600080fd5b600080fd5b6000601f19601f8301169050919050565b7f4e487b7100000000000000000000000000000000000000000000000000000000600052604160045260246000fd5b6200015f8262000114565b810181811067ffffffffffffffff8211171562000181576200018062000125565b5b80604052505050565b600062000196620000f6565b9050620001a4828262000154565b919050565b600067ffffffffffffffff821115620001c757620001c662000125565b5b620001d28262000114565b9050602081019050919050565b60005b83811015620001ff578082015181840152602081019050620001e2565b60008484015250505050565b6000620002226200021c84620001a9565b6200018a565b9050828152602081018484840111156200024157620002406200010f565b5b6200024e848285620001df565b509392505050565b600082601f8301126200026e576200026d6200010a565b5b8151620002808482602086016200020b565b91505092915050565b600060208284031215620002a257620002a162000100565b5b600082015167ffffffffffffffff811115620002c357620002c262000105565b5b620002d18482850162000256565b91505092915050565b600081519050919050565b7f4e487b7100000000000000000000000000000000000000000000000000000000600052602260045260246000fd5b600060028204905060018216806200032d57607f821691505b602082108103620003435762000342620002e5565b5b50919050565b60008190508160005260206000209050919050565b60006020601f8301049050919050565b600082821b905092915050565b600060088302620003ad7fffffffffffffffffffffffffffffffffffffffffffffffffffffffffffffffff826200036e565b620003b986836200036e565b95508019841693508086168417925050509392505050565b6000819050919050565b6000819050919050565b60006200040662000400620003fa84620003d1565b620003db565b620003d1565b9050919050565b6000819050919050565b6200042283620003e5565b6200043a62000431826200040d565b8484546200037b565b825550505050565b600090565b6200045162000442565b6200045e81848462000417565b505050565b5b8181101562000486576200047a60008262000447565b60018101905062000464565b5050565b601f821115620004d5576200049f8162000349565b620004aa846200035e565b81016020851015620004ba578190505b620004d2620004c9856200035e565b83018262000463565b50505b505050565b600082821c905092915050565b6000620004fa60001984600802620004da565b1980831691505092915050565b6000620005158383620004e7565b9150826002028217905092915050565b6200053082620002da565b67ffffffffffffffff8111156200054c576200054b62000125565b5b62000558825462000314565b620005658282856200048a565b600060209050601f8311600181146200059d576000841562000588578287015190505b62000594858262000507565b86555062000604565b601f198416620005ad8662000349565b60005b82811015620005d757848901518255600182019150602085019450602081019050620005b0565b86831015620005f75784890151620005f3601f891682620004e7565b8355505b6001600288020188555050505b505050505050565b613a3f806200061c6000396000f3fe6080604052600436106101405760003560e01c80634f6ccce7116100b657806395d89b411161006f57806395d89b4114610466578063a22cb46514610491578063b88d4fde146104ba578063c87b56dd146104e3578063d547cfb714610520578063e985e9c51461054b57610140565b80634f6ccce71461031e57806355f804b31461035b5780636352211e1461038457806370a08231146103c15780638462151c146103fe5780638d859f3e1461043b57610140565b806318160ddd1161010857806318160ddd1461023e57806323b872dd146102695780632f745c59146102925780633b4b1381146102cf5780633ccfd60b146102eb57806342842e0e146102f557610140565b806301ffc9a71461014557806306fdde0314610182578063081812fc146101ad578063095ea7b3146101ea57806309d42b3014610213575b600080fd5b34801561015157600080fd5b5061016c600480360381019061016791906122a4565b610588565b60405161017991906122ec565b60405180910390f35b34801561018e57600080fd5b50610197610602565b6040516101a49190612397565b60405180910390f35b3480156101b957600080fd5b506101d460048036038101906101cf91906123ef565b610694565b6040516101e1919061245d565b60405180910390f35b3480156101f657600080fd5b50610211600480360381019061020c91906124a4565b610719565b005b34801561021f57600080fd5b50610228610830565b60405161023591906124f3565b60405180910390f35b34801561024a57600080fd5b50610253610835565b60405161026091906124f3565b60405180910390f35b34801561027557600080fd5b50610290600480360381019061028b919061250e565b610842565b005b34801561029e57600080fd5b506102b960048036038101906102b491906124a4565b6108a2565b6040516102c691906124f3565b60405180910390f35b6102e960048036038101906102e491906123ef565b610947565b005b6102f36109d0565b005b34801561030157600080fd5b5061031c6004803603810190610317919061250e565b610ac8565b005b34801561032a57600080fd5b50610345600480360381019061034091906123ef565b610ae8565b60405161035291906124f3565b60405180910390f35b34801561036757600080fd5b50610382600480360381019061037d9190612696565b610b59565b005b34801561039057600080fd5b506103ab60048036038101906103a691906123ef565b610b6c565b6040516103b8919061245d565b60405180910390f35b3480156103cd57600080fd5b506103e860048036038101906103e391906126df565b610c1d565b6040516103f591906124f3565b60405180910390f35b34801561040a57600080fd5b50610425600480360381019061042091906126df565b610cd4565b60405161043291906127ca565b60405180910390f35b34801561044757600080fd5b50610450610d82565b60405161045d91906124f3565b60405180910390f35b34801561047257600080fd5b5061047b610d87565b6040516104889190612397565b60405180910390f35b34801561049d57600080fd5b506104b860048036038101906104b39190612818565b610e19565b005b3480156104c657600080fd5b506104e160048036038101906104dc91906128f9565b610e2f565b005b3480156104ef57600080fd5b5061050a600480360381019061050591906123ef565b610e91565b6040516105179190612397565b60405180910390f35b34801561052c57600080fd5b50610535610f38565b6040516105429190612397565b60405180910390f35b34801561055757600080fd5b50610572600480360381019061056d919061297c565b610fc6565b60405161057f91906122ec565b60405180910390f35b60007f780e9d63000000000000000000000000000000000000000000000000000000007bffffffffffffffffffffffffffffffffffffffffffffffffffffffff1916827bffffffffffffffffffffffffffffffffffffffffffffffffffffffff191614806105fb57506105fa8261105a565b5b9050919050565b606060008054610611906129eb565b80601f016020809104026020016040519081016040528092919081815260200182805461063d906129eb565b801561068a5780601f1061065f5761010080835404028352916020019161068a565b820191906000526020600020905b81548152906001019060200180831161066d57829003601f168201915b5050505050905090565b600061069f8261113c565b6106de576040517f08c379a00000000000000000000000000000000000000000000000000000000081526004016106d590612a8e565b60405180910390fd5b6004600083815260200190815260200160002060009054906101000a900473ffffffffffffffffffffffffffffffffffffffff169050919050565b600061072482610b6c565b90508073ffffffffffffffffffffffffffffffffffffffff168373ffffffffffffffffffffffffffffffffffffffff1603610794576040517f08c379a000000000000000000000000000000000000000000000000000000000815260040161078b90612b20565b60405180910390fd5b8073ffffffffffffffffffffffffffffffffffffffff166107b36111a8565b73ffffffffffffffffffffffffffffffffffffffff1614806107e257506107e1816107dc6111a8565b610fc6565b5b610821576040517f08c379a000000000000000000000000000000000000000000000000000000000815260040161081890612bb2565b60405180910390fd5b61082b83836111b0565b505050565b600181565b6000600880549050905090565b61085361084d6111a8565b82611269565b610892576040517f08c379a000000000000000000000000000000000000000000000000000000000815260040161088990612c44565b60405180910390fd5b61089d838383611347565b505050565b60006108ad83610c1d565b82106108ee576040517f08c379a00000000000000000000000000000000000000000000000000000000081526004016108e590612cd6565b60405180910390fd5b600660008473ffffffffffffffffffffffffffffffffffffffff1673ffffffffffffffffffffffffffffffffffffffff168152602001908152602001600020600083815260200190815260200160002054905092915050565b6000610953600a6115ad565b9050600082118015610966575060018211155b6109a5576040517f08c379a000000000000000000000000000000000000000000000000000000000815260040161099c90612d68565b60405180910390fd5b60005b828110156109cb576109b86115bb565b80806109c390612db7565b9150506109a8565b505050565b600047905060008111610a18576040517f08c379a0000000000000000000000000000000000000000000000000000000008152600401610a0f90612e4b565b60405180910390fd5b60003373ffffffffffffffffffffffffffffffffffffffff1682604051610a3e90612e9c565b60006040518083038185875af1925050503d8060008114610a7b576040519150601f19603f3d011682016040523d82523d6000602084013e610a80565b606091505b5050905080610ac4576040517f08c379a0000000000000000000000000000000000000000000000000000000008152600401610abb90612efd565b60405180910390fd5b5050565b610ae383838360405180602001604052806000815250610e2f565b505050565b6000610af2610835565b8210610b33576040517f08c379a0000000000000000000000000000000000000000000000000000000008152600401610b2a90612f8f565b60405180910390fd5b60088281548110610b4757610b46612faf565b5b90600052602060002001549050919050565b80600b9081610b68919061318a565b5050565b6000806002600084815260200190815260200160002060009054906101000a900473ffffffffffffffffffffffffffffffffffffffff169050600073ffffffffffffffffffffffffffffffffffffffff168173ffffffffffffffffffffffffffffffffffffffff1603610c14576040517f08c379a0000000000000000000000000000000000000000000000000000000008152600401610c0b906132ce565b60405180910390fd5b80915050919050565b60008073ffffffffffffffffffffffffffffffffffffffff168273ffffffffffffffffffffffffffffffffffffffff1603610c8d576040517f08c379a0000000000000000000000000000000000000000000000000000000008152600401610c8490613360565b60405180910390fd5b600360008373ffffffffffffffffffffffffffffffffffffffff1673ffffffffffffffffffffffffffffffffffffffff168152602001908152602001600020549050919050565b60606000610ce183610c1d565b905060008167ffffffffffffffff811115610cff57610cfe61256b565b5b604051908082528060200260200182016040528015610d2d5781602001602082028036833780820191505090505b50905060005b82811015610d7757610d4585826108a2565b828281518110610d5857610d57612faf565b5b6020026020010181815250508080610d6f90612db7565b915050610d33565b508092505050919050565b600081565b606060018054610d96906129eb565b80601f0160208091040260200160405190810160405280929190818152602001828054610dc2906129eb565b8015610e0f5780601f10610de457610100808354040283529160200191610e0f565b820191906000526020600020905b815481529060010190602001808311610df257829003601f168201915b5050505050905090565b610e2b610e246111a8565b83836115e0565b5050565b610e40610e3a6111a8565b83611269565b610e7f576040517f08c379a0000000000000000000000000000000000000000000000000000000008152600401610e7690612c44565b60405180910390fd5b610e8b8484848461174c565b50505050565b6060610e9c8261113c565b610edb576040517f08c379a0000000000000000000000000000000000000000000000000000000008152600401610ed2906133f2565b60405180910390fd5b6000610ee56117a8565b90506000815111610f055760405180602001604052806000815250610f30565b80610f0f8461183a565b604051602001610f2092919061344e565b6040516020818303038152906040525b915050919050565b600b8054610f45906129eb565b80601f0160208091040260200160405190810160405280929190818152602001828054610f71906129eb565b8015610fbe5780601f10610f9357610100808354040283529160200191610fbe565b820191906000526020600020905b815481529060010190602001808311610fa157829003601f168201915b505050505081565b6000600560008473ffffffffffffffffffffffffffffffffffffffff1673ffffffffffffffffffffffffffffffffffffffff16815260200190815260200160002060008373ffffffffffffffffffffffffffffffffffffffff1673ffffffffffffffffffffffffffffffffffffffff16815260200190815260200160002060009054906101000a900460ff16905092915050565b60007f80ac58cd000000000000000000000000000000000000000000000000000000007bffffffffffffffffffffffffffffffffffffffffffffffffffffffff1916827bffffffffffffffffffffffffffffffffffffffffffffffffffffffff1916148061112557507f5b5e139f000000000000000000000000000000000000000000000000000000007bffffffffffffffffffffffffffffffffffffffffffffffffffffffff1916827bffffffffffffffffffffffffffffffffffffffffffffffffffffffff1916145b8061113557506111348261199a565b5b9050919050565b60008073ffffffffffffffffffffffffffffffffffffffff166002600084815260200190815260200160002060009054906101000a900473ffffffffffffffffffffffffffffffffffffffff1673ffffffffffffffffffffffffffffffffffffffff1614159050919050565b600033905090565b816004600083815260200190815260200160002060006101000a81548173ffffffffffffffffffffffffffffffffffffffff021916908373ffffffffffffffffffffffffffffffffffffffff160217905550808273ffffffffffffffffffffffffffffffffffffffff1661122383610b6c565b73ffffffffffffffffffffffffffffffffffffffff167f8c5be1e5ebec7d5bd14f71427d1e84f3dd0314c0f7b2291e5b200ac8c7c3b92560405160405180910390a45050565b60006112748261113c565b6112b3576040517f08c379a00000000000000000000000000000000000000000000000000000000081526004016112aa906134e4565b60405180910390fd5b60006112be83610b6c565b90508073ffffffffffffffffffffffffffffffffffffffff168473ffffffffffffffffffffffffffffffffffffffff16148061130057506112ff8185610fc6565b5b8061133e57508373ffffffffffffffffffffffffffffffffffffffff1661132684610694565b73ffffffffffffffffffffffffffffffffffffffff16145b91505092915050565b8273ffffffffffffffffffffffffffffffffffffffff1661136782610b6c565b73ffffffffffffffffffffffffffffffffffffffff16146113bd576040517f08c379a00000000000000000000000000000000000000000000000000000000081526004016113b490613576565b60405180910390fd5b600073ffffffffffffffffffffffffffffffffffffffff168273ffffffffffffffffffffffffffffffffffffffff160361142c576040517f08c379a000000000000000000000000000000000000000000000000000000000815260040161142390613608565b60405180910390fd5b611437838383611a04565b6114426000826111b0565b6001600360008573ffffffffffffffffffffffffffffffffffffffff1673ffffffffffffffffffffffffffffffffffffffff16815260200190815260200160002060008282546114929190613628565b925050819055506001600360008473ffffffffffffffffffffffffffffffffffffffff1673ffffffffffffffffffffffffffffffffffffffff16815260200190815260200160002060008282546114e9919061365c565b92505081905550816002600083815260200190815260200160002060006101000a81548173ffffffffffffffffffffffffffffffffffffffff021916908373ffffffffffffffffffffffffffffffffffffffff160217905550808273ffffffffffffffffffffffffffffffffffffffff168473ffffffffffffffffffffffffffffffffffffffff167fddf252ad1be2c89b69c2b068fc378daa952ba7f163c4a11628f55a4df523b3ef60405160405180910390a46115a8838383611b16565b505050565b600081600001549050919050565b60006115c7600a6115ad565b90506115d33382611b1b565b6115dd600a611b39565b50565b8173ffffffffffffffffffffffffffffffffffffffff168373ffffffffffffffffffffffffffffffffffffffff160361164e576040517f08c379a0000000000000000000000000000000000000000000000000000000008152600401611645906136dc565b60405180910390fd5b80600560008573ffffffffffffffffffffffffffffffffffffffff1673ffffffffffffffffffffffffffffffffffffffff16815260200190815260200160002060008473ffffffffffffffffffffffffffffffffffffffff1673ffffffffffffffffffffffffffffffffffffffff16815260200190815260200160002060006101000a81548160ff0219169083151502179055508173ffffffffffffffffffffffffffffffffffffffff168373ffffffffffffffffffffffffffffffffffffffff167f17307eab39ab6107e8899845ad3d59bd9653f200f220920489ca2b5937696c318360405161173f91906122ec565b60405180910390a3505050565b611757848484611347565b61176384848484611b4f565b6117a2576040517f08c379a00000000000000000000000000000000000000000000000000000000081526004016117999061376e565b60405180910390fd5b50505050565b6060600b80546117b7906129eb565b80601f01602080910402602001604051908101604052809291908181526020018280546117e3906129eb565b80156118305780601f1061180557610100808354040283529160200191611830565b820191906000526020600020905b81548152906001019060200180831161181357829003601f168201915b5050505050905090565b606060008203611881576040518060400160405280600181526020017f30000000000000000000000000000000000000000000000000000000000000008152509050611995565b600082905060005b600082146118b357808061189c90612db7565b915050600a826118ac91906137bd565b9150611889565b60008167ffffffffffffffff8111156118cf576118ce61256b565b5b6040519080825280601f01601f1916602001820160405280156119015781602001600182028036833780820191505090505b5090505b6000851461198e5760018261191a9190613628565b9150600a8561192991906137ee565b6030611935919061365c565b60f81b81838151811061194b5761194a612faf565b5b60200101907effffffffffffffffffffffffffffffffffffffffffffffffffffffffffffff1916908160001a905350600a8561198791906137bd565b9450611905565b8093505050505b919050565b60007f01ffc9a7000000000000000000000000000000000000000000000000000000007bffffffffffffffffffffffffffffffffffffffffffffffffffffffff1916827bffffffffffffffffffffffffffffffffffffffffffffffffffffffff1916149050919050565b611a0f838383611cd6565b600073ffffffffffffffffffffffffffffffffffffffff168373ffffffffffffffffffffffffffffffffffffffff1603611a5157611a4c81611cdb565b611a90565b8173ffffffffffffffffffffffffffffffffffffffff168373ffffffffffffffffffffffffffffffffffffffff1614611a8f57611a8e8382611d24565b5b5b600073ffffffffffffffffffffffffffffffffffffffff168273ffffffffffffffffffffffffffffffffffffffff1603611ad257611acd81611e91565b611b11565b8273ffffffffffffffffffffffffffffffffffffffff168273ffffffffffffffffffffffffffffffffffffffff1614611b1057611b0f8282611f62565b5b5b505050565b505050565b611b35828260405180602001604052806000815250611fe1565b5050565b6001816000016000828254019250508190555050565b6000611b708473ffffffffffffffffffffffffffffffffffffffff1661203c565b15611cc9578373ffffffffffffffffffffffffffffffffffffffff1663150b7a02611b996111a8565b8786866040518563ffffffff1660e01b8152600401611bbb9493929190613874565b6020604051808303816000875af1925050508015611bf757506040513d601f19601f82011682018060405250810190611bf491906138d5565b60015b611c79573d8060008114611c27576040519150601f19603f3d011682016040523d82523d6000602084013e611c2c565b606091505b506000815103611c71576040517f08c379a0000000000000000000000000000000000000000000000000000000008152600401611c689061376e565b60405180910390fd5b805181602001fd5b63150b7a0260e01b7bffffffffffffffffffffffffffffffffffffffffffffffffffffffff1916817bffffffffffffffffffffffffffffffffffffffffffffffffffffffff191614915050611cce565b600190505b949350505050565b505050565b6008805490506009600083815260200190815260200160002081905550600881908060018154018082558091505060019003906000526020600020016000909190919091505550565b60006001611d3184610c1d565b611d3b9190613628565b9050600060076000848152602001908152602001600020549050818114611e20576000600660008673ffffffffffffffffffffffffffffffffffffffff1673ffffffffffffffffffffffffffffffffffffffff168152602001908152602001600020600084815260200190815260200160002054905080600660008773ffffffffffffffffffffffffffffffffffffffff1673ffffffffffffffffffffffffffffffffffffffff168152602001908152602001600020600084815260200190815260200160002081905550816007600083815260200190815260200160002081905550505b6007600084815260200190815260200160002060009055600660008573ffffffffffffffffffffffffffffffffffffffff1673ffffffffffffffffffffffffffffffffffffffff16815260200190815260200160002060008381526020019081526020016000206000905550505050565b60006001600880549050611ea59190613628565b9050600060096000848152602001908152602001600020549050600060088381548110611ed557611ed4612faf565b5b906000526020600020015490508060088381548110611ef757611ef6612faf565b5b906000526020600020018190555081600960008381526020019081526020016000208190555060096000858152602001908152602001600020600090556008805480611f4657611f45613902565b5b6001900381819060005260206000200160009055905550505050565b6000611f6d83610c1d565b905081600660008573ffffffffffffffffffffffffffffffffffffffff1673ffffffffffffffffffffffffffffffffffffffff168152602001908152602001600020600083815260200190815260200160002081905550806007600084815260200190815260200160002081905550505050565b611feb838361205f565b611ff86000848484611b4f565b612037576040517f08c379a000000000000000000000000000000000000000000000000000000000815260040161202e9061376e565b60405180910390fd5b505050565b6000808273ffffffffffffffffffffffffffffffffffffffff163b119050919050565b600073ffffffffffffffffffffffffffffffffffffffff168273ffffffffffffffffffffffffffffffffffffffff16036120ce576040517f08c379a00000000000000000000000000000000000000000000000000000000081526004016120c59061397d565b60405180910390fd5b6120d78161113c565b15612117576040517f08c379a000000000000000000000000000000000000000000000000000000000815260040161210e906139e9565b60405180910390fd5b61212360008383611a04565b6001600360008473ffffffffffffffffffffffffffffffffffffffff1673ffffffffffffffffffffffffffffffffffffffff1681526020019081526020016000206000828254612173919061365c565b92505081905550816002600083815260200190815260200160002060006101000a81548173ffffffffffffffffffffffffffffffffffffffff021916908373ffffffffffffffffffffffffffffffffffffffff160217905550808273ffffffffffffffffffffffffffffffffffffffff16600073ffffffffffffffffffffffffffffffffffffffff167fddf252ad1be2c89b69c2b068fc378daa952ba7f163c4a11628f55a4df523b3ef60405160405180910390a461223460008383611b16565b5050565b6000604051905090565b600080fd5b600080fd5b60007fffffffff0000000000000000000000000000000000000000000000000000000082169050919050565b6122818161224c565b811461228c57600080fd5b50565b60008135905061229e81612278565b92915050565b6000602082840312156122ba576122b9612242565b5b60006122c88482850161228f565b91505092915050565b60008115159050919050565b6122e6816122d1565b82525050565b600060208201905061230160008301846122dd565b92915050565b600081519050919050565b600082825260208201905092915050565b60005b83811015612341578082015181840152602081019050612326565b60008484015250505050565b6000601f19601f8301169050919050565b600061236982612307565b6123738185612312565b9350612383818560208601612323565b61238c8161234d565b840191505092915050565b600060208201905081810360008301526123b1818461235e565b905092915050565b6000819050919050565b6123cc816123b9565b81146123d757600080fd5b50565b6000813590506123e9816123c3565b92915050565b60006020828403121561240557612404612242565b5b6000612413848285016123da565b91505092915050565b600073ffffffffffffffffffffffffffffffffffffffff82169050919050565b60006124478261241c565b9050919050565b6124578161243c565b82525050565b6000602082019050612472600083018461244e565b92915050565b6124818161243c565b811461248c57600080fd5b50565b60008135905061249e81612478565b92915050565b600080604083850312156124bb576124ba612242565b5b60006124c98582860161248f565b92505060206124da858286016123da565b9150509250929050565b6124ed816123b9565b82525050565b600060208201905061250860008301846124e4565b92915050565b60008060006060848603121561252757612526612242565b5b60006125358682870161248f565b93505060206125468682870161248f565b9250506040612557868287016123da565b9150509250925092565b600080fd5b600080fd5b7f4e487b7100000000000000000000000000000000000000000000000000000000600052604160045260246000fd5b6125a38261234d565b810181811067ffffffffffffffff821117156125c2576125c161256b565b5b80604052505050565b60006125d5612238565b90506125e1828261259a565b919050565b600067ffffffffffffffff8211156126015761260061256b565b5b61260a8261234d565b9050602081019050919050565b82818337600083830152505050565b6000612639612634846125e6565b6125cb565b90508281526020810184848401111561265557612654612566565b5b612660848285612617565b509392505050565b600082601f83011261267d5761267c612561565b5b813561268d848260208601612626565b91505092915050565b6000602082840312156126ac576126ab612242565b5b600082013567ffffffffffffffff8111156126ca576126c9612247565b5b6126d684828501612668565b91505092915050565b6000602082840312156126f5576126f4612242565b5b60006127038482850161248f565b91505092915050565b600081519050919050565b600082825260208201905092915050565b6000819050602082019050919050565b612741816123b9565b82525050565b60006127538383612738565b60208301905092915050565b6000602082019050919050565b60006127778261270c565b6127818185612717565b935061278c83612728565b8060005b838110156127bd5781516127a48882612747565b97506127af8361275f565b925050600181019050612790565b5085935050505092915050565b600060208201905081810360008301526127e4818461276c565b905092915050565b6127f5816122d1565b811461280057600080fd5b50565b600081359050612812816127ec565b92915050565b6000806040838503121561282f5761282e612242565b5b600061283d8582860161248f565b925050602061284e85828601612803565b9150509250929050565b600067ffffffffffffffff8211156128735761287261256b565b5b61287c8261234d565b9050602081019050919050565b600061289c61289784612858565b6125cb565b9050828152602081018484840111156128b8576128b7612566565b5b6128c3848285612617565b509392505050565b600082601f8301126128e0576128df612561565b5b81356128f0848260208601612889565b91505092915050565b6000806000806080858703121561291357612912612242565b5b60006129218782880161248f565b94505060206129328782880161248f565b9350506040612943878288016123da565b925050606085013567ffffffffffffffff81111561296457612963612247565b5b612970878288016128cb565b91505092959194509250565b6000806040838503121561299357612992612242565b5b60006129a18582860161248f565b92505060206129b28582860161248f565b9150509250929050565b7f4e487b7100000000000000000000000000000000000000000000000000000000600052602260045260246000fd5b60006002820490506001821680612a0357607f821691505b602082108103612a1657612a156129bc565b5b50919050565b7f4552433732313a20617070726f76656420717565727920666f72206e6f6e657860008201527f697374656e7420746f6b656e0000000000000000000000000000000000000000602082015250565b6000612a78602c83612312565b9150612a8382612a1c565b604082019050919050565b60006020820190508181036000830152612aa781612a6b565b9050919050565b7f4552433732313a20617070726f76616c20746f2063757272656e74206f776e6560008201527f7200000000000000000000000000000000000000000000000000000000000000602082015250565b6000612b0a602183612312565b9150612b1582612aae565b604082019050919050565b60006020820190508181036000830152612b3981612afd565b9050919050565b7f4552433732313a20617070726f76652063616c6c6572206973206e6f74206f7760008201527f6e6572206e6f7220617070726f76656420666f7220616c6c0000000000000000602082015250565b6000612b9c603883612312565b9150612ba782612b40565b604082019050919050565b60006020820190508181036000830152612bcb81612b8f565b9050919050565b7f4552433732313a207472616e736665722063616c6c6572206973206e6f74206f60008201527f776e6572206e6f7220617070726f766564000000000000000000000000000000602082015250565b6000612c2e603183612312565b9150612c3982612bd2565b604082019050919050565b60006020820190508181036000830152612c5d81612c21565b9050919050565b7f455243373231456e756d657261626c653a206f776e657220696e646578206f7560008201527f74206f6620626f756e6473000000000000000000000000000000000000000000602082015250565b6000612cc0602b83612312565b9150612ccb82612c64565b604082019050919050565b60006020820190508181036000830152612cef81612cb3565b9050919050565b7f43616e6e6f74206d696e7420737065636966696564206e756d626572206f662060008201527f4e4654732e000000000000000000000000000000000000000000000000000000602082015250565b6000612d52602583612312565b9150612d5d82612cf6565b604082019050919050565b60006020820190508181036000830152612d8181612d45565b9050919050565b7f4e487b7100000000000000000000000000000000000000000000000000000000600052601160045260246000fd5b6000612dc2826123b9565b91507fffffffffffffffffffffffffffffffffffffffffffffffffffffffffffffffff8203612df457612df3612d88565b5b600182019050919050565b7f4e6f206574686572206c65667420746f20776974686472617700000000000000600082015250565b6000612e35601983612312565b9150612e4082612dff565b602082019050919050565b60006020820190508181036000830152612e6481612e28565b9050919050565b600081905092915050565b50565b6000612e86600083612e6b565b9150612e9182612e76565b600082019050919050565b6000612ea782612e79565b9150819050919050565b7f5472616e73666572206661696c65642e00000000000000000000000000000000600082015250565b6000612ee7601083612312565b9150612ef282612eb1565b602082019050919050565b60006020820190508181036000830152612f1681612eda565b9050919050565b7f455243373231456e756d657261626c653a20676c6f62616c20696e646578206f60008201527f7574206f6620626f756e64730000000000000000000000000000000000000000602082015250565b6000612f79602c83612312565b9150612f8482612f1d565b604082019050919050565b60006020820190508181036000830152612fa881612f6c565b9050919050565b7f4e487b7100000000000000000000000000000000000000000000000000000000600052603260045260246000fd5b60008190508160005260206000209050919050565b60006020601f8301049050919050565b600082821b905092915050565b6000600883026130407fffffffffffffffffffffffffffffffffffffffffffffffffffffffffffffffff82613003565b61304a8683613003565b95508019841693508086168417925050509392505050565b6000819050919050565b600061308761308261307d846123b9565b613062565b6123b9565b9050919050565b6000819050919050565b6130a18361306c565b6130b56130ad8261308e565b848454613010565b825550505050565b600090565b6130ca6130bd565b6130d5818484613098565b505050565b5b818110156130f9576130ee6000826130c2565b6001810190506130db565b5050565b601f82111561313e5761310f81612fde565b61311884612ff3565b81016020851015613127578190505b61313b61313385612ff3565b8301826130da565b50505b505050565b600082821c905092915050565b600061316160001984600802613143565b1980831691505092915050565b600061317a8383613150565b9150826002028217905092915050565b61319382612307565b67ffffffffffffffff8111156131ac576131ab61256b565b5b6131b682546129eb565b6131c18282856130fd565b600060209050601f8311600181146131f457600084156131e2578287015190505b6131ec858261316e565b865550613254565b601f19841661320286612fde565b60005b8281101561322a57848901518255600182019150602085019450602081019050613205565b868310156132475784890151613243601f891682613150565b8355505b6001600288020188555050505b505050505050565b7f4552433732313a206f776e657220717565727920666f72206e6f6e657869737460008201527f656e7420746f6b656e0000000000000000000000000000000000000000000000602082015250565b60006132b8602983612312565b91506132c38261325c565b604082019050919050565b600060208201905081810360008301526132e7816132ab565b9050919050565b7f4552433732313a2062616c616e636520717565727920666f7220746865207a6560008201527f726f206164647265737300000000000000000000000000000000000000000000602082015250565b600061334a602a83612312565b9150613355826132ee565b604082019050919050565b600060208201905081810360008301526133798161333d565b9050919050565b7f4552433732314d657461646174613a2055524920717565727920666f72206e6f60008201527f6e6578697374656e7420746f6b656e0000000000000000000000000000000000602082015250565b60006133dc602f83612312565b91506133e782613380565b604082019050919050565b6000602082019050818103600083015261340b816133cf565b9050919050565b600081905092915050565b600061342882612307565b6134328185613412565b9350613442818560208601612323565b80840191505092915050565b600061345a828561341d565b9150613466828461341d565b91508190509392505050565b7f4552433732313a206f70657261746f7220717565727920666f72206e6f6e657860008201527f697374656e7420746f6b656e0000000000000000000000000000000000000000602082015250565b60006134ce602c83612312565b91506134d982613472565b604082019050919050565b600060208201905081810360008301526134fd816134c1565b9050919050565b7f4552433732313a207472616e736665722066726f6d20696e636f72726563742060008201527f6f776e6572000000000000000000000000000000000000000000000000000000602082015250565b6000613560602583612312565b915061356b82613504565b604082019050919050565b6000602082019050818103600083015261358f81613553565b9050919050565b7f4552433732313a207472616e7366657220746f20746865207a65726f2061646460008201527f7265737300000000000000000000000000000000000000000000000000000000602082015250565b60006135f2602483612312565b91506135fd82613596565b604082019050919050565b60006020820190508181036000830152613621816135e5565b9050919050565b6000613633826123b9565b915061363e836123b9565b925082820390508181111561365657613655612d88565b5b92915050565b6000613667826123b9565b9150613672836123b9565b925082820190508082111561368a57613689612d88565b5b92915050565b7f4552433732313a20617070726f766520746f2063616c6c657200000000000000600082015250565b60006136c6601983612312565b91506136d182613690565b602082019050919050565b600060208201905081810360008301526136f5816136b9565b9050919050565b7f4552433732313a207472616e7366657220746f206e6f6e20455243373231526560008201527f63656976657220696d706c656d656e7465720000000000000000000000000000602082015250565b6000613758603283612312565b9150613763826136fc565b604082019050919050565b600060208201905081810360008301526137878161374b565b9050919050565b7f4e487b7100000000000000000000000000000000000000000000000000000000600052601260045260246000fd5b60006137c8826123b9565b91506137d3836123b9565b9250826137e3576137e261378e565b5b828204905092915050565b60006137f9826123b9565b9150613804836123b9565b9250826138145761381361378e565b5b828206905092915050565b600081519050919050565b600082825260208201905092915050565b60006138468261381f565b613850818561382a565b9350613860818560208601612323565b6138698161234d565b840191505092915050565b6000608082019050613889600083018761244e565b613896602083018661244e565b6138a360408301856124e4565b81810360608301526138b5818461383b565b905095945050505050565b6000815190506138cf81612278565b92915050565b6000602082840312156138eb576138ea612242565b5b60006138f9848285016138c0565b91505092915050565b7f4e487b7100000000000000000000000000000000000000000000000000000000600052603160045260246000fd5b7f4552433732313a206d696e7420746f20746865207a65726f2061646472657373600082015250565b6000613967602083612312565b915061397282613931565b602082019050919050565b600060208201905081810360008301526139968161395a565b9050919050565b7f4552433732313a20746f6b656e20616c7265616479206d696e74656400000000600082015250565b60006139d3601c83612312565b91506139de8261399d565b602082019050919050565b60006020820190508181036000830152613a02816139c6565b905091905056fea26469706673582212209968c6e49d6474ebe4f38a21a4188c2b9ab389e4387dcd4b759921528e89366f64736f6c63430008140033",
  "linkReferences": {},
  "deployedLinkReferences": {}
}