{
  "_format": "hh-sol-artifact-1",
  "contractName": "IndexFriends",
  "sourceName": "contracts/IndexFriends.sol",
  "abi": [
    {
      "inputs": [
        {
          "internalType": "string",
          "name": "baseURI",
          "type": "string"
        }
      ],
      "stateMutability": "nonpayable",
      "type": "constructor"
    },
    {
      "anonymous": false,
      "inputs": [
        {
          "indexed": true,
          "internalType": "address",
          "name": "owner",
          "type": "address"
        },
        {
          "indexed": true,
          "internalType": "address",
          "name": "approved",
          "type": "address"
        },
        {
          "indexed": true,
          "internalType": "uint256",
          "name": "tokenId",
          "type": "uint256"
        }
      ],
      "name": "Approval",
      "type": "event"
    },
    {
      "anonymous": false,
      "inputs": [
        {
          "indexed": true,
          "internalType": "address",
          "name": "owner",
          "type": "address"
        },
        {
          "indexed": true,
          "internalType": "address",
          "name": "operator",
          "type": "address"
        },
        {
          "indexed": false,
          "internalType": "bool",
          "name": "approved",
          "type": "bool"
        }
      ],
      "name": "ApprovalForAll",
      "type": "event"
    },
    {
      "anonymous": false,
      "inputs": [
        {
          "indexed": true,
          "internalType": "address",
          "name": "previousOwner",
          "type": "address"
        },
        {
          "indexed": true,
          "internalType": "address",
          "name": "newOwner",
          "type": "address"
        }
      ],
      "name": "OwnershipTransferred",
      "type": "event"
    },
    {
      "anonymous": false,
      "inputs": [
        {
          "indexed": true,
          "internalType": "address",
          "name": "from",
          "type": "address"
        },
        {
          "indexed": true,
          "internalType": "address",
          "name": "to",
          "type": "address"
        },
        {
          "indexed": true,
          "internalType": "uint256",
          "name": "tokenId",
          "type": "uint256"
        }
      ],
      "name": "Transfer",
      "type": "event"
    },
    {
      "inputs": [],
      "name": "MAX_PER_MINT",
      "outputs": [
        {
          "internalType": "uint256",
          "name": "",
          "type": "uint256"
        }
      ],
      "stateMutability": "view",
      "type": "function"
    },
    {
      "inputs": [],
      "name": "MAX_SUPPLY",
      "outputs": [
        {
          "internalType": "uint256",
          "name": "",
          "type": "uint256"
        }
      ],
      "stateMutability": "view",
      "type": "function"
    },
    {
      "inputs": [],
      "name": "PRICE",
      "outputs": [
        {
          "internalType": "uint256",
          "name": "",
          "type": "uint256"
        }
      ],
      "stateMutability": "view",
      "type": "function"
    },
    {
      "inputs": [
        {
          "internalType": "address",
          "name": "to",
          "type": "address"
        },
        {
          "internalType": "uint256",
          "name": "tokenId",
          "type": "uint256"
        }
      ],
      "name": "approve",
      "outputs": [],
      "stateMutability": "nonpayable",
      "type": "function"
    },
    {
      "inputs": [
        {
          "internalType": "address",
          "name": "owner",
          "type": "address"
        }
      ],
      "name": "balanceOf",
      "outputs": [
        {
          "internalType": "uint256",
          "name": "",
          "type": "uint256"
        }
      ],
      "stateMutability": "view",
      "type": "function"
    },
    {
      "inputs": [],
      "name": "baseTokenURI",
      "outputs": [
        {
          "internalType": "string",
          "name": "",
          "type": "string"
        }
      ],
      "stateMutability": "view",
      "type": "function"
    },
    {
      "inputs": [
        {
          "internalType": "uint256",
          "name": "tokenId",
          "type": "uint256"
        }
      ],
      "name": "getApproved",
      "outputs": [
        {
          "internalType": "address",
          "name": "",
          "type": "address"
        }
      ],
      "stateMutability": "view",
      "type": "function"
    },
    {
      "inputs": [
        {
          "internalType": "address",
          "name": "owner",
          "type": "address"
        },
        {
          "internalType": "address",
          "name": "operator",
          "type": "address"
        }
      ],
      "name": "isApprovedForAll",
      "outputs": [
        {
          "internalType": "bool",
          "name": "",
          "type": "bool"
        }
      ],
      "stateMutability": "view",
      "type": "function"
    },
    {
      "inputs": [
        {
          "internalType": "uint256",
          "name": "_count",
          "type": "uint256"
        }
      ],
      "name": "mintNFTs",
      "outputs": [],
      "stateMutability": "payable",
      "type": "function"
    },
    {
      "inputs": [],
      "name": "name",
      "outputs": [
        {
          "internalType": "string",
          "name": "",
          "type": "string"
        }
      ],
      "stateMutability": "view",
      "type": "function"
    },
    {
      "inputs": [],
      "name": "owner",
      "outputs": [
        {
          "internalType": "address",
          "name": "",
          "type": "address"
        }
      ],
      "stateMutability": "view",
      "type": "function"
    },
    {
      "inputs": [
        {
          "internalType": "uint256",
          "name": "tokenId",
          "type": "uint256"
        }
      ],
      "name": "ownerOf",
      "outputs": [
        {
          "internalType": "address",
          "name": "",
          "type": "address"
        }
      ],
      "stateMutability": "view",
      "type": "function"
    },
    {
      "inputs": [],
      "name": "renounceOwnership",
      "outputs": [],
      "stateMutability": "nonpayable",
      "type": "function"
    },
    {
      "inputs": [
        {
          "internalType": "address",
          "name": "from",
          "type": "address"
        },
        {
          "internalType": "address",
          "name": "to",
          "type": "address"
        },
        {
          "internalType": "uint256",
          "name": "tokenId",
          "type": "uint256"
        }
      ],
      "name": "safeTransferFrom",
      "outputs": [],
      "stateMutability": "nonpayable",
      "type": "function"
    },
    {
      "inputs": [
        {
          "internalType": "address",
          "name": "from",
          "type": "address"
        },
        {
          "internalType": "address",
          "name": "to",
          "type": "address"
        },
        {
          "internalType": "uint256",
          "name": "tokenId",
          "type": "uint256"
        },
        {
          "internalType": "bytes",
          "name": "_data",
          "type": "bytes"
        }
      ],
      "name": "safeTransferFrom",
      "outputs": [],
      "stateMutability": "nonpayable",
      "type": "function"
    },
    {
      "inputs": [
        {
          "internalType": "address",
          "name": "operator",
          "type": "address"
        },
        {
          "internalType": "bool",
          "name": "approved",
          "type": "bool"
        }
      ],
      "name": "setApprovalForAll",
      "outputs": [],
      "stateMutability": "nonpayable",
      "type": "function"
    },
    {
      "inputs": [
        {
          "internalType": "string",
          "name": "_baseTokenURI",
          "type": "string"
        }
      ],
      "name": "setBaseURI",
      "outputs": [],
      "stateMutability": "nonpayable",
      "type": "function"
    },
    {
      "inputs": [
        {
          "internalType": "bytes4",
          "name": "interfaceId",
          "type": "bytes4"
        }
      ],
      "name": "supportsInterface",
      "outputs": [
        {
          "internalType": "bool",
          "name": "",
          "type": "bool"
        }
      ],
      "stateMutability": "view",
      "type": "function"
    },
    {
      "inputs": [],
      "name": "symbol",
      "outputs": [
        {
          "internalType": "string",
          "name": "",
          "type": "string"
        }
      ],
      "stateMutability": "view",
      "type": "function"
    },
    {
      "inputs": [
        {
          "internalType": "uint256",
          "name": "index",
          "type": "uint256"
        }
      ],
      "name": "tokenByIndex",
      "outputs": [
        {
          "internalType": "uint256",
          "name": "",
          "type": "uint256"
        }
      ],
      "stateMutability": "view",
      "type": "function"
    },
    {
      "inputs": [
        {
          "internalType": "address",
          "name": "owner",
          "type": "address"
        },
        {
          "internalType": "uint256",
          "name": "index",
          "type": "uint256"
        }
      ],
      "name": "tokenOfOwnerByIndex",
      "outputs": [
        {
          "internalType": "uint256",
          "name": "",
          "type": "uint256"
        }
      ],
      "stateMutability": "view",
      "type": "function"
    },
    {
      "inputs": [
        {
          "internalType": "uint256",
          "name": "tokenId",
          "type": "uint256"
        }
      ],
      "name": "tokenURI",
      "outputs": [
        {
          "internalType": "string",
          "name": "",
          "type": "string"
        }
      ],
      "stateMutability": "view",
      "type": "function"
    },
    {
      "inputs": [
        {
          "internalType": "address",
          "name": "_owner",
          "type": "address"
        }
      ],
      "name": "tokensOfOwner",
      "outputs": [
        {
          "internalType": "uint256[]",
          "name": "",
          "type": "uint256[]"
        }
      ],
      "stateMutability": "view",
      "type": "function"
    },
    {
      "inputs": [],
      "name": "totalSupply",
      "outputs": [
        {
          "internalType": "uint256",
          "name": "",
          "type": "uint256"
        }
      ],
      "stateMutability": "view",
      "type": "function"
    },
    {
      "inputs": [
        {
          "internalType": "address",
          "name": "from",
          "type": "address"
        },
        {
          "internalType": "address",
          "name": "to",
          "type": "address"
        },
        {
          "internalType": "uint256",
          "name": "tokenId",
          "type": "uint256"
        }
      ],
      "name": "transferFrom",
      "outputs": [],
      "stateMutability": "nonpayable",
      "type": "function"
    },
    {
      "inputs": [
        {
          "internalType": "address",
          "name": "newOwner",
          "type": "address"
        }
      ],
      "name": "transferOwnership",
      "outputs": [],
      "stateMutability": "nonpayable",
      "type": "function"
    },
    {
      "inputs": [],
      "name": "withdraw",
      "outputs": [],
      "stateMutability": "payable",
      "type": "function"
    }
  ],
  "bytecode": "0x60806040523480156200001157600080fd5b5060405162004580380380620045808339818101604052810190620000379190620003d4565b6040518060400160405280600c81526020017f496e646578467269656e647300000000000000000000000000000000000000008152506040518060400160405280600c81526020017f496e646578467269656e647300000000000000000000000000000000000000008152508160009080519060200190620000bb929190620002b2565b508060019080519060200190620000d4929190620002b2565b505050620000f7620000eb6200010f60201b60201c565b6200011760201b60201c565b6200010881620001dd60201b60201c565b506200060c565b600033905090565b6000600a60009054906101000a900473ffffffffffffffffffffffffffffffffffffffff16905081600a60006101000a81548173ffffffffffffffffffffffffffffffffffffffff021916908373ffffffffffffffffffffffffffffffffffffffff1602179055508173ffffffffffffffffffffffffffffffffffffffff168173ffffffffffffffffffffffffffffffffffffffff167f8be0079c531659141344cd1fd0a4f28419497f9722a3daafe3b4186f6b6457e060405160405180910390a35050565b620001ed6200010f60201b60201c565b73ffffffffffffffffffffffffffffffffffffffff16620002136200028860201b60201c565b73ffffffffffffffffffffffffffffffffffffffff16146200026c576040517f08c379a0000000000000000000000000000000000000000000000000000000008152600401620002639062000440565b60405180910390fd5b80600c908051906020019062000284929190620002b2565b5050565b6000600a60009054906101000a900473ffffffffffffffffffffffffffffffffffffffff16905090565b828054620002c09062000508565b90600052602060002090601f016020900481019282620002e4576000855562000330565b82601f10620002ff57805160ff191683800117855562000330565b8280016001018555821562000330579182015b828111156200032f57825182559160200191906001019062000312565b5b5090506200033f919062000343565b5090565b5b808211156200035e57600081600090555060010162000344565b5090565b60006200037962000373846200048b565b62000462565b9050828152602081018484840111156200039257600080fd5b6200039f848285620004d2565b509392505050565b600082601f830112620003b957600080fd5b8151620003cb84826020860162000362565b91505092915050565b600060208284031215620003e757600080fd5b600082015167ffffffffffffffff8111156200040257600080fd5b6200041084828501620003a7565b91505092915050565b600062000428602083620004c1565b91506200043582620005e3565b602082019050919050565b600060208201905081810360008301526200045b8162000419565b9050919050565b60006200046e62000481565b90506200047c82826200053e565b919050565b6000604051905090565b600067ffffffffffffffff821115620004a957620004a8620005a3565b5b620004b482620005d2565b9050602081019050919050565b600082825260208201905092915050565b60005b83811015620004f2578082015181840152602081019050620004d5565b8381111562000502576000848401525b50505050565b600060028204905060018216806200052157607f821691505b6020821081141562000538576200053762000574565b5b50919050565b6200054982620005d2565b810181811067ffffffffffffffff821117156200056b576200056a620005a3565b5b80604052505050565b7f4e487b7100000000000000000000000000000000000000000000000000000000600052602260045260246000fd5b7f4e487b7100000000000000000000000000000000000000000000000000000000600052604160045260246000fd5b6000601f19601f8301169050919050565b7f4f776e61626c653a2063616c6c6572206973206e6f7420746865206f776e6572600082015250565b613f64806200061c6000396000f3fe60806040526004361061019c5760003560e01c806355f804b3116100ec57806395d89b411161008a578063c87b56dd11610064578063c87b56dd146105ac578063d547cfb7146105e9578063e985e9c514610614578063f2fde38b146106515761019c565b806395d89b411461052f578063a22cb4651461055a578063b88d4fde146105835761019c565b8063715018a6116100c6578063715018a6146104855780638462151c1461049c5780638d859f3e146104d95780638da5cb5b146105045761019c565b806355f804b3146103e25780636352211e1461040b57806370a08231146104485761019c565b806323b872dd116101595780633b4b1381116101335780633b4b1381146103565780633ccfd60b1461037257806342842e0e1461037c5780634f6ccce7146103a55761019c565b806323b872dd146102c55780632f745c59146102ee57806332cb6b0c1461032b5761019c565b806301ffc9a7146101a157806306fdde03146101de578063081812fc14610209578063095ea7b31461024657806309d42b301461026f57806318160ddd1461029a575b600080fd5b3480156101ad57600080fd5b506101c860048036038101906101c39190612bd6565b61067a565b6040516101d591906131ce565b60405180910390f35b3480156101ea57600080fd5b506101f36106f4565b60405161020091906131e9565b60405180910390f35b34801561021557600080fd5b50610230600480360381019061022b9190612c69565b610786565b60405161023d9190613145565b60405180910390f35b34801561025257600080fd5b5061026d60048036038101906102689190612b9a565b61080b565b005b34801561027b57600080fd5b50610284610923565b60405161029191906134cb565b60405180910390f35b3480156102a657600080fd5b506102af610928565b6040516102bc91906134cb565b60405180910390f35b3480156102d157600080fd5b506102ec60048036038101906102e79190612a94565b610935565b005b3480156102fa57600080fd5b5061031560048036038101906103109190612b9a565b610995565b60405161032291906134cb565b60405180910390f35b34801561033757600080fd5b50610340610a3a565b60405161034d91906134cb565b60405180910390f35b610370600480360381019061036b9190612c69565b610a3f565b005b61037a610b1e565b005b34801561038857600080fd5b506103a3600480360381019061039e9190612a94565b610c92565b005b3480156103b157600080fd5b506103cc60048036038101906103c79190612c69565b610cb2565b6040516103d991906134cb565b60405180910390f35b3480156103ee57600080fd5b5061040960048036038101906104049190612c28565b610d49565b005b34801561041757600080fd5b50610432600480360381019061042d9190612c69565b610ddf565b60405161043f9190613145565b60405180910390f35b34801561045457600080fd5b5061046f600480360381019061046a9190612a2f565b610e91565b60405161047c91906134cb565b60405180910390f35b34801561049157600080fd5b5061049a610f49565b005b3480156104a857600080fd5b506104c360048036038101906104be9190612a2f565b610fd1565b6040516104d091906131ac565b60405180910390f35b3480156104e557600080fd5b506104ee6110cb565b6040516104fb91906134cb565b60405180910390f35b34801561051057600080fd5b506105196110d0565b6040516105269190613145565b60405180910390f35b34801561053b57600080fd5b506105446110fa565b60405161055191906131e9565b60405180910390f35b34801561056657600080fd5b50610581600480360381019061057c9190612b5e565b61118c565b005b34801561058f57600080fd5b506105aa60048036038101906105a59190612ae3565b6111a2565b005b3480156105b857600080fd5b506105d360048036038101906105ce9190612c69565b611204565b6040516105e091906131e9565b60405180910390f35b3480156105f557600080fd5b506105fe6112ab565b60405161060b91906131e9565b60405180910390f35b34801561062057600080fd5b5061063b60048036038101906106369190612a58565b611339565b60405161064891906131ce565b60405180910390f35b34801561065d57600080fd5b5061067860048036038101906106739190612a2f565b6113cd565b005b60007f780e9d63000000000000000000000000000000000000000000000000000000007bffffffffffffffffffffffffffffffffffffffffffffffffffffffff1916827bffffffffffffffffffffffffffffffffffffffffffffffffffffffff191614806106ed57506106ec826114c5565b5b9050919050565b60606000805461070390613765565b80601f016020809104026020016040519081016040528092919081815260200182805461072f90613765565b801561077c5780601f106107515761010080835404028352916020019161077c565b820191906000526020600020905b81548152906001019060200180831161075f57829003601f168201915b5050505050905090565b6000610791826115a7565b6107d0576040517f08c379a00000000000000000000000000000000000000000000000000000000081526004016107c7906133eb565b60405180910390fd5b6004600083815260200190815260200160002060009054906101000a900473ffffffffffffffffffffffffffffffffffffffff169050919050565b600061081682610ddf565b90508073ffffffffffffffffffffffffffffffffffffffff168373ffffffffffffffffffffffffffffffffffffffff161415610887576040517f08c379a000000000000000000000000000000000000000000000000000000000815260040161087e9061344b565b60405180910390fd5b8073ffffffffffffffffffffffffffffffffffffffff166108a6611613565b73ffffffffffffffffffffffffffffffffffffffff1614806108d557506108d4816108cf611613565b611339565b5b610914576040517f08c379a000000000000000000000000000000000000000000000000000000000815260040161090b9061334b565b60405180910390fd5b61091e838361161b565b505050565b600681565b6000600880549050905090565b610946610940611613565b826116d4565b610985576040517f08c379a000000000000000000000000000000000000000000000000000000000815260040161097c9061348b565b60405180910390fd5b6109908383836117b2565b505050565b60006109a083610e91565b82106109e1576040517f08c379a00000000000000000000000000000000000000000000000000000000081526004016109d89061320b565b60405180910390fd5b600660008473ffffffffffffffffffffffffffffffffffffffff1673ffffffffffffffffffffffffffffffffffffffff168152602001908152602001600020600083815260200190815260200160002054905092915050565b606481565b6000610a4b600b611a19565b90506064610a628383611a2790919063ffffffff16565b1115610aa3576040517f08c379a0000000000000000000000000000000000000000000000000000000008152600401610a9a906132eb565b60405180910390fd5b600082118015610ab4575060068211155b610af3576040517f08c379a0000000000000000000000000000000000000000000000000000000008152600401610aea9061330b565b60405180910390fd5b60005b82811015610b1957610b06611a3d565b8080610b11906137c8565b915050610af6565b505050565b610b26611613565b73ffffffffffffffffffffffffffffffffffffffff16610b446110d0565b73ffffffffffffffffffffffffffffffffffffffff1614610b9a576040517f08c379a0000000000000000000000000000000000000000000000000000000008152600401610b919061340b565b60405180910390fd5b600047905060008111610be2576040517f08c379a0000000000000000000000000000000000000000000000000000000008152600401610bd9906133cb565b60405180910390fd5b60003373ffffffffffffffffffffffffffffffffffffffff1682604051610c0890613130565b60006040518083038185875af1925050503d8060008114610c45576040519150601f19603f3d011682016040523d82523d6000602084013e610c4a565b606091505b5050905080610c8e576040517f08c379a0000000000000000000000000000000000000000000000000000000008152600401610c859061346b565b60405180910390fd5b5050565b610cad838383604051806020016040528060008152506111a2565b505050565b6000610cbc610928565b8210610cfd576040517f08c379a0000000000000000000000000000000000000000000000000000000008152600401610cf4906134ab565b60405180910390fd5b60088281548110610d37577f4e487b7100000000000000000000000000000000000000000000000000000000600052603260045260246000fd5b90600052602060002001549050919050565b610d51611613565b73ffffffffffffffffffffffffffffffffffffffff16610d6f6110d0565b73ffffffffffffffffffffffffffffffffffffffff1614610dc5576040517f08c379a0000000000000000000000000000000000000000000000000000000008152600401610dbc9061340b565b60405180910390fd5b80600c9080519060200190610ddb929190612853565b5050565b6000806002600084815260200190815260200160002060009054906101000a900473ffffffffffffffffffffffffffffffffffffffff169050600073ffffffffffffffffffffffffffffffffffffffff168173ffffffffffffffffffffffffffffffffffffffff161415610e88576040517f08c379a0000000000000000000000000000000000000000000000000000000008152600401610e7f9061338b565b60405180910390fd5b80915050919050565b60008073ffffffffffffffffffffffffffffffffffffffff168273ffffffffffffffffffffffffffffffffffffffff161415610f02576040517f08c379a0000000000000000000000000000000000000000000000000000000008152600401610ef99061336b565b60405180910390fd5b600360008373ffffffffffffffffffffffffffffffffffffffff1673ffffffffffffffffffffffffffffffffffffffff168152602001908152602001600020549050919050565b610f51611613565b73ffffffffffffffffffffffffffffffffffffffff16610f6f6110d0565b73ffffffffffffffffffffffffffffffffffffffff1614610fc5576040517f08c379a0000000000000000000000000000000000000000000000000000000008152600401610fbc9061340b565b60405180910390fd5b610fcf6000611a62565b565b60606000610fde83610e91565b905060008167ffffffffffffffff811115611022577f4e487b7100000000000000000000000000000000000000000000000000000000600052604160045260246000fd5b6040519080825280602002602001820160405280156110505781602001602082028036833780820191505090505b50905060005b828110156110c0576110688582610995565b8282815181106110a1577f4e487b7100000000000000000000000000000000000000000000000000000000600052603260045260246000fd5b60200260200101818152505080806110b8906137c8565b915050611056565b508092505050919050565b600081565b6000600a60009054906101000a900473ffffffffffffffffffffffffffffffffffffffff16905090565b60606001805461110990613765565b80601f016020809104026020016040519081016040528092919081815260200182805461113590613765565b80156111825780601f1061115757610100808354040283529160200191611182565b820191906000526020600020905b81548152906001019060200180831161116557829003601f168201915b5050505050905090565b61119e611197611613565b8383611b28565b5050565b6111b36111ad611613565b836116d4565b6111f2576040517f08c379a00000000000000000000000000000000000000000000000000000000081526004016111e99061348b565b60405180910390fd5b6111fe84848484611c95565b50505050565b606061120f826115a7565b61124e576040517f08c379a00000000000000000000000000000000000000000000000000000000081526004016112459061342b565b60405180910390fd5b6000611258611cf1565b9050600081511161127857604051806020016040528060008152506112a3565b8061128284611d83565b60405160200161129392919061310c565b6040516020818303038152906040525b915050919050565b600c80546112b890613765565b80601f01602080910402602001604051908101604052809291908181526020018280546112e490613765565b80156113315780601f1061130657610100808354040283529160200191611331565b820191906000526020600020905b81548152906001019060200180831161131457829003601f168201915b505050505081565b6000600560008473ffffffffffffffffffffffffffffffffffffffff1673ffffffffffffffffffffffffffffffffffffffff16815260200190815260200160002060008373ffffffffffffffffffffffffffffffffffffffff1673ffffffffffffffffffffffffffffffffffffffff16815260200190815260200160002060009054906101000a900460ff16905092915050565b6113d5611613565b73ffffffffffffffffffffffffffffffffffffffff166113f36110d0565b73ffffffffffffffffffffffffffffffffffffffff1614611449576040517f08c379a00000000000000000000000000000000000000000000000000000000081526004016114409061340b565b60405180910390fd5b600073ffffffffffffffffffffffffffffffffffffffff168173ffffffffffffffffffffffffffffffffffffffff1614156114b9576040517f08c379a00000000000000000000000000000000000000000000000000000000081526004016114b09061324b565b60405180910390fd5b6114c281611a62565b50565b60007f80ac58cd000000000000000000000000000000000000000000000000000000007bffffffffffffffffffffffffffffffffffffffffffffffffffffffff1916827bffffffffffffffffffffffffffffffffffffffffffffffffffffffff1916148061159057507f5b5e139f000000000000000000000000000000000000000000000000000000007bffffffffffffffffffffffffffffffffffffffffffffffffffffffff1916827bffffffffffffffffffffffffffffffffffffffffffffffffffffffff1916145b806115a0575061159f82611f30565b5b9050919050565b60008073ffffffffffffffffffffffffffffffffffffffff166002600084815260200190815260200160002060009054906101000a900473ffffffffffffffffffffffffffffffffffffffff1673ffffffffffffffffffffffffffffffffffffffff1614159050919050565b600033905090565b816004600083815260200190815260200160002060006101000a81548173ffffffffffffffffffffffffffffffffffffffff021916908373ffffffffffffffffffffffffffffffffffffffff160217905550808273ffffffffffffffffffffffffffffffffffffffff1661168e83610ddf565b73ffffffffffffffffffffffffffffffffffffffff167f8c5be1e5ebec7d5bd14f71427d1e84f3dd0314c0f7b2291e5b200ac8c7c3b92560405160405180910390a45050565b60006116df826115a7565b61171e576040517f08c379a00000000000000000000000000000000000000000000000000000000081526004016117159061332b565b60405180910390fd5b600061172983610ddf565b90508073ffffffffffffffffffffffffffffffffffffffff168473ffffffffffffffffffffffffffffffffffffffff16148061176b575061176a8185611339565b5b806117a957508373ffffffffffffffffffffffffffffffffffffffff1661179184610786565b73ffffffffffffffffffffffffffffffffffffffff16145b91505092915050565b8273ffffffffffffffffffffffffffffffffffffffff166117d282610ddf565b73ffffffffffffffffffffffffffffffffffffffff1614611828576040517f08c379a000000000000000000000000000000000000000000000000000000000815260040161181f9061326b565b60405180910390fd5b600073ffffffffffffffffffffffffffffffffffffffff168273ffffffffffffffffffffffffffffffffffffffff161415611898576040517f08c379a000000000000000000000000000000000000000000000000000000000815260040161188f906132ab565b60405180910390fd5b6118a3838383611f9a565b6118ae60008261161b565b6001600360008573ffffffffffffffffffffffffffffffffffffffff1673ffffffffffffffffffffffffffffffffffffffff16815260200190815260200160002060008282546118fe919061367b565b925050819055506001600360008473ffffffffffffffffffffffffffffffffffffffff1673ffffffffffffffffffffffffffffffffffffffff168152602001908152602001600020600082825461195591906135f4565b92505081905550816002600083815260200190815260200160002060006101000a81548173ffffffffffffffffffffffffffffffffffffffff021916908373ffffffffffffffffffffffffffffffffffffffff160217905550808273ffffffffffffffffffffffffffffffffffffffff168473ffffffffffffffffffffffffffffffffffffffff167fddf252ad1be2c89b69c2b068fc378daa952ba7f163c4a11628f55a4df523b3ef60405160405180910390a4611a148383836120ae565b505050565b600081600001549050919050565b60008183611a3591906135f4565b905092915050565b6000611a49600b611a19565b9050611a5533826120b3565b611a5f600b6120d1565b50565b6000600a60009054906101000a900473ffffffffffffffffffffffffffffffffffffffff16905081600a60006101000a81548173ffffffffffffffffffffffffffffffffffffffff021916908373ffffffffffffffffffffffffffffffffffffffff1602179055508173ffffffffffffffffffffffffffffffffffffffff168173ffffffffffffffffffffffffffffffffffffffff167f8be0079c531659141344cd1fd0a4f28419497f9722a3daafe3b4186f6b6457e060405160405180910390a35050565b8173ffffffffffffffffffffffffffffffffffffffff168373ffffffffffffffffffffffffffffffffffffffff161415611b97576040517f08c379a0000000000000000000000000000000000000000000000000000000008152600401611b8e906132cb565b60405180910390fd5b80600560008573ffffffffffffffffffffffffffffffffffffffff1673ffffffffffffffffffffffffffffffffffffffff16815260200190815260200160002060008473ffffffffffffffffffffffffffffffffffffffff1673ffffffffffffffffffffffffffffffffffffffff16815260200190815260200160002060006101000a81548160ff0219169083151502179055508173ffffffffffffffffffffffffffffffffffffffff168373ffffffffffffffffffffffffffffffffffffffff167f17307eab39ab6107e8899845ad3d59bd9653f200f220920489ca2b5937696c3183604051611c8891906131ce565b60405180910390a3505050565b611ca08484846117b2565b611cac848484846120e7565b611ceb576040517f08c379a0000000000000000000000000000000000000000000000000000000008152600401611ce29061322b565b60405180910390fd5b50505050565b6060600c8054611d0090613765565b80601f0160208091040260200160405190810160405280929190818152602001828054611d2c90613765565b8015611d795780601f10611d4e57610100808354040283529160200191611d79565b820191906000526020600020905b815481529060010190602001808311611d5c57829003601f168201915b5050505050905090565b60606000821415611dcb576040518060400160405280600181526020017f30000000000000000000000000000000000000000000000000000000000000008152509050611f2b565b600082905060005b60008214611dfd578080611de6906137c8565b915050600a82611df6919061364a565b9150611dd3565b60008167ffffffffffffffff811115611e3f577f4e487b7100000000000000000000000000000000000000000000000000000000600052604160045260246000fd5b6040519080825280601f01601f191660200182016040528015611e715781602001600182028036833780820191505090505b5090505b60008514611f2457600182611e8a919061367b565b9150600a85611e999190613811565b6030611ea591906135f4565b60f81b818381518110611ee1577f4e487b7100000000000000000000000000000000000000000000000000000000600052603260045260246000fd5b60200101907effffffffffffffffffffffffffffffffffffffffffffffffffffffffffffff1916908160001a905350600a85611f1d919061364a565b9450611e75565b8093505050505b919050565b60007f01ffc9a7000000000000000000000000000000000000000000000000000000007bffffffffffffffffffffffffffffffffffffffffffffffffffffffff1916827bffffffffffffffffffffffffffffffffffffffffffffffffffffffff1916149050919050565b611fa583838361227e565b600073ffffffffffffffffffffffffffffffffffffffff168373ffffffffffffffffffffffffffffffffffffffff161415611fe857611fe381612283565b612027565b8173ffffffffffffffffffffffffffffffffffffffff168373ffffffffffffffffffffffffffffffffffffffff16146120265761202583826122cc565b5b5b600073ffffffffffffffffffffffffffffffffffffffff168273ffffffffffffffffffffffffffffffffffffffff16141561206a5761206581612439565b6120a9565b8273ffffffffffffffffffffffffffffffffffffffff168273ffffffffffffffffffffffffffffffffffffffff16146120a8576120a7828261257c565b5b5b505050565b505050565b6120cd8282604051806020016040528060008152506125fb565b5050565b6001816000016000828254019250508190555050565b60006121088473ffffffffffffffffffffffffffffffffffffffff16612656565b15612271578373ffffffffffffffffffffffffffffffffffffffff1663150b7a02612131611613565b8786866040518563ffffffff1660e01b81526004016121539493929190613160565b602060405180830381600087803b15801561216d57600080fd5b505af192505050801561219e57506040513d601f19601f8201168201806040525081019061219b9190612bff565b60015b612221573d80600081146121ce576040519150601f19603f3d011682016040523d82523d6000602084013e6121d3565b606091505b50600081511415612219576040517f08c379a00000000000000000000000000000000000000000000000000000000081526004016122109061322b565b60405180910390fd5b805181602001fd5b63150b7a0260e01b7bffffffffffffffffffffffffffffffffffffffffffffffffffffffff1916817bffffffffffffffffffffffffffffffffffffffffffffffffffffffff191614915050612276565b600190505b949350505050565b505050565b6008805490506009600083815260200190815260200160002081905550600881908060018154018082558091505060019003906000526020600020016000909190919091505550565b600060016122d984610e91565b6122e3919061367b565b90506000600760008481526020019081526020016000205490508181146123c8576000600660008673ffffffffffffffffffffffffffffffffffffffff1673ffffffffffffffffffffffffffffffffffffffff168152602001908152602001600020600084815260200190815260200160002054905080600660008773ffffffffffffffffffffffffffffffffffffffff1673ffffffffffffffffffffffffffffffffffffffff168152602001908152602001600020600084815260200190815260200160002081905550816007600083815260200190815260200160002081905550505b6007600084815260200190815260200160002060009055600660008573ffffffffffffffffffffffffffffffffffffffff1673ffffffffffffffffffffffffffffffffffffffff16815260200190815260200160002060008381526020019081526020016000206000905550505050565b6000600160088054905061244d919061367b565b90506000600960008481526020019081526020016000205490506000600883815481106124a3577f4e487b7100000000000000000000000000000000000000000000000000000000600052603260045260246000fd5b9060005260206000200154905080600883815481106124eb577f4e487b7100000000000000000000000000000000000000000000000000000000600052603260045260246000fd5b906000526020600020018190555081600960008381526020019081526020016000208190555060096000858152602001908152602001600020600090556008805480612560577f4e487b7100000000000000000000000000000000000000000000000000000000600052603160045260246000fd5b6001900381819060005260206000200160009055905550505050565b600061258783610e91565b905081600660008573ffffffffffffffffffffffffffffffffffffffff1673ffffffffffffffffffffffffffffffffffffffff168152602001908152602001600020600083815260200190815260200160002081905550806007600084815260200190815260200160002081905550505050565b6126058383612679565b61261260008484846120e7565b612651576040517f08c379a00000000000000000000000000000000000000000000000000000000081526004016126489061322b565b60405180910390fd5b505050565b6000808273ffffffffffffffffffffffffffffffffffffffff163b119050919050565b600073ffffffffffffffffffffffffffffffffffffffff168273ffffffffffffffffffffffffffffffffffffffff1614156126e9576040517f08c379a00000000000000000000000000000000000000000000000000000000081526004016126e0906133ab565b60405180910390fd5b6126f2816115a7565b15612732576040517f08c379a00000000000000000000000000000000000000000000000000000000081526004016127299061328b565b60405180910390fd5b61273e60008383611f9a565b6001600360008473ffffffffffffffffffffffffffffffffffffffff1673ffffffffffffffffffffffffffffffffffffffff168152602001908152602001600020600082825461278e91906135f4565b92505081905550816002600083815260200190815260200160002060006101000a81548173ffffffffffffffffffffffffffffffffffffffff021916908373ffffffffffffffffffffffffffffffffffffffff160217905550808273ffffffffffffffffffffffffffffffffffffffff16600073ffffffffffffffffffffffffffffffffffffffff167fddf252ad1be2c89b69c2b068fc378daa952ba7f163c4a11628f55a4df523b3ef60405160405180910390a461284f600083836120ae565b5050565b82805461285f90613765565b90600052602060002090601f01602090048101928261288157600085556128c8565b82601f1061289a57805160ff19168380011785556128c8565b828001600101855582156128c8579182015b828111156128c75782518255916020019190600101906128ac565b5b5090506128d591906128d9565b5090565b5b808211156128f25760008160009055506001016128da565b5090565b60006129096129048461350b565b6134e6565b90508281526020810184848401111561292157600080fd5b61292c848285613723565b509392505050565b60006129476129428461353c565b6134e6565b90508281526020810184848401111561295f57600080fd5b61296a848285613723565b509392505050565b60008135905061298181613ed2565b92915050565b60008135905061299681613ee9565b92915050565b6000813590506129ab81613f00565b92915050565b6000815190506129c081613f00565b92915050565b600082601f8301126129d757600080fd5b81356129e78482602086016128f6565b91505092915050565b600082601f830112612a0157600080fd5b8135612a11848260208601612934565b91505092915050565b600081359050612a2981613f17565b92915050565b600060208284031215612a4157600080fd5b6000612a4f84828501612972565b91505092915050565b60008060408385031215612a6b57600080fd5b6000612a7985828601612972565b9250506020612a8a85828601612972565b9150509250929050565b600080600060608486031215612aa957600080fd5b6000612ab786828701612972565b9350506020612ac886828701612972565b9250506040612ad986828701612a1a565b9150509250925092565b60008060008060808587031215612af957600080fd5b6000612b0787828801612972565b9450506020612b1887828801612972565b9350506040612b2987828801612a1a565b925050606085013567ffffffffffffffff811115612b4657600080fd5b612b52878288016129c6565b91505092959194509250565b60008060408385031215612b7157600080fd5b6000612b7f85828601612972565b9250506020612b9085828601612987565b9150509250929050565b60008060408385031215612bad57600080fd5b6000612bbb85828601612972565b9250506020612bcc85828601612a1a565b9150509250929050565b600060208284031215612be857600080fd5b6000612bf68482850161299c565b91505092915050565b600060208284031215612c1157600080fd5b6000612c1f848285016129b1565b91505092915050565b600060208284031215612c3a57600080fd5b600082013567ffffffffffffffff811115612c5457600080fd5b612c60848285016129f0565b91505092915050565b600060208284031215612c7b57600080fd5b6000612c8984828501612a1a565b91505092915050565b6000612c9e83836130ee565b60208301905092915050565b612cb3816136af565b82525050565b6000612cc48261357d565b612cce81856135ab565b9350612cd98361356d565b8060005b83811015612d0a578151612cf18882612c92565b9750612cfc8361359e565b925050600181019050612cdd565b5085935050505092915050565b612d20816136c1565b82525050565b6000612d3182613588565b612d3b81856135bc565b9350612d4b818560208601613732565b612d54816138fe565b840191505092915050565b6000612d6a82613593565b612d7481856135d8565b9350612d84818560208601613732565b612d8d816138fe565b840191505092915050565b6000612da382613593565b612dad81856135e9565b9350612dbd818560208601613732565b80840191505092915050565b6000612dd6602b836135d8565b9150612de18261390f565b604082019050919050565b6000612df96032836135d8565b9150612e048261395e565b604082019050919050565b6000612e1c6026836135d8565b9150612e27826139ad565b604082019050919050565b6000612e3f6025836135d8565b9150612e4a826139fc565b604082019050919050565b6000612e62601c836135d8565b9150612e6d82613a4b565b602082019050919050565b6000612e856024836135d8565b9150612e9082613a74565b604082019050919050565b6000612ea86019836135d8565b9150612eb382613ac3565b602082019050919050565b6000612ecb6015836135d8565b9150612ed682613aec565b602082019050919050565b6000612eee6025836135d8565b9150612ef982613b15565b604082019050919050565b6000612f11602c836135d8565b9150612f1c82613b64565b604082019050919050565b6000612f346038836135d8565b9150612f3f82613bb3565b604082019050919050565b6000612f57602a836135d8565b9150612f6282613c02565b604082019050919050565b6000612f7a6029836135d8565b9150612f8582613c51565b604082019050919050565b6000612f9d6020836135d8565b9150612fa882613ca0565b602082019050919050565b6000612fc06019836135d8565b9150612fcb82613cc9565b602082019050919050565b6000612fe3602c836135d8565b9150612fee82613cf2565b604082019050919050565b60006130066020836135d8565b915061301182613d41565b602082019050919050565b6000613029602f836135d8565b915061303482613d6a565b604082019050919050565b600061304c6021836135d8565b915061305782613db9565b604082019050919050565b600061306f6000836135cd565b915061307a82613e08565b600082019050919050565b60006130926010836135d8565b915061309d82613e0b565b602082019050919050565b60006130b56031836135d8565b91506130c082613e34565b604082019050919050565b60006130d8602c836135d8565b91506130e382613e83565b604082019050919050565b6130f781613719565b82525050565b61310681613719565b82525050565b60006131188285612d98565b91506131248284612d98565b91508190509392505050565b600061313b82613062565b9150819050919050565b600060208201905061315a6000830184612caa565b92915050565b60006080820190506131756000830187612caa565b6131826020830186612caa565b61318f60408301856130fd565b81810360608301526131a18184612d26565b905095945050505050565b600060208201905081810360008301526131c68184612cb9565b905092915050565b60006020820190506131e36000830184612d17565b92915050565b600060208201905081810360008301526132038184612d5f565b905092915050565b6000602082019050818103600083015261322481612dc9565b9050919050565b6000602082019050818103600083015261324481612dec565b9050919050565b6000602082019050818103600083015261326481612e0f565b9050919050565b6000602082019050818103600083015261328481612e32565b9050919050565b600060208201905081810360008301526132a481612e55565b9050919050565b600060208201905081810360008301526132c481612e78565b9050919050565b600060208201905081810360008301526132e481612e9b565b9050919050565b6000602082019050818103600083015261330481612ebe565b9050919050565b6000602082019050818103600083015261332481612ee1565b9050919050565b6000602082019050818103600083015261334481612f04565b9050919050565b6000602082019050818103600083015261336481612f27565b9050919050565b6000602082019050818103600083015261338481612f4a565b9050919050565b600060208201905081810360008301526133a481612f6d565b9050919050565b600060208201905081810360008301526133c481612f90565b9050919050565b600060208201905081810360008301526133e481612fb3565b9050919050565b6000602082019050818103600083015261340481612fd6565b9050919050565b6000602082019050818103600083015261342481612ff9565b9050919050565b600060208201905081810360008301526134448161301c565b9050919050565b600060208201905081810360008301526134648161303f565b9050919050565b6000602082019050818103600083015261348481613085565b9050919050565b600060208201905081810360008301526134a4816130a8565b9050919050565b600060208201905081810360008301526134c4816130cb565b9050919050565b60006020820190506134e060008301846130fd565b92915050565b60006134f0613501565b90506134fc8282613797565b919050565b6000604051905090565b600067ffffffffffffffff821115613526576135256138cf565b5b61352f826138fe565b9050602081019050919050565b600067ffffffffffffffff821115613557576135566138cf565b5b613560826138fe565b9050602081019050919050565b6000819050602082019050919050565b600081519050919050565b600081519050919050565b600081519050919050565b6000602082019050919050565b600082825260208201905092915050565b600082825260208201905092915050565b600081905092915050565b600082825260208201905092915050565b600081905092915050565b60006135ff82613719565b915061360a83613719565b9250827fffffffffffffffffffffffffffffffffffffffffffffffffffffffffffffffff0382111561363f5761363e613842565b5b828201905092915050565b600061365582613719565b915061366083613719565b9250826136705761366f613871565b5b828204905092915050565b600061368682613719565b915061369183613719565b9250828210156136a4576136a3613842565b5b828203905092915050565b60006136ba826136f9565b9050919050565b60008115159050919050565b60007fffffffff0000000000000000000000000000000000000000000000000000000082169050919050565b600073ffffffffffffffffffffffffffffffffffffffff82169050919050565b6000819050919050565b82818337600083830152505050565b60005b83811015613750578082015181840152602081019050613735565b8381111561375f576000848401525b50505050565b6000600282049050600182168061377d57607f821691505b60208210811415613791576137906138a0565b5b50919050565b6137a0826138fe565b810181811067ffffffffffffffff821117156137bf576137be6138cf565b5b80604052505050565b60006137d382613719565b91507fffffffffffffffffffffffffffffffffffffffffffffffffffffffffffffffff82141561380657613805613842565b5b600182019050919050565b600061381c82613719565b915061382783613719565b92508261383757613836613871565b5b828206905092915050565b7f4e487b7100000000000000000000000000000000000000000000000000000000600052601160045260246000fd5b7f4e487b7100000000000000000000000000000000000000000000000000000000600052601260045260246000fd5b7f4e487b7100000000000000000000000000000000000000000000000000000000600052602260045260246000fd5b7f4e487b7100000000000000000000000000000000000000000000000000000000600052604160045260246000fd5b6000601f19601f8301169050919050565b7f455243373231456e756d657261626c653a206f776e657220696e646578206f7560008201527f74206f6620626f756e6473000000000000000000000000000000000000000000602082015250565b7f4552433732313a207472616e7366657220746f206e6f6e20455243373231526560008201527f63656976657220696d706c656d656e7465720000000000000000000000000000602082015250565b7f4f776e61626c653a206e6577206f776e657220697320746865207a65726f206160008201527f6464726573730000000000000000000000000000000000000000000000000000602082015250565b7f4552433732313a207472616e736665722066726f6d20696e636f72726563742060008201527f6f776e6572000000000000000000000000000000000000000000000000000000602082015250565b7f4552433732313a20746f6b656e20616c7265616479206d696e74656400000000600082015250565b7f4552433732313a207472616e7366657220746f20746865207a65726f2061646460008201527f7265737300000000000000000000000000000000000000000000000000000000602082015250565b7f4552433732313a20617070726f766520746f2063616c6c657200000000000000600082015250565b7f4e6f7420656e6f756768204e465473206c656674210000000000000000000000600082015250565b7f43616e6e6f74206d696e7420737065636966696564206e756d626572206f662060008201527f4e4654732e000000000000000000000000000000000000000000000000000000602082015250565b7f4552433732313a206f70657261746f7220717565727920666f72206e6f6e657860008201527f697374656e7420746f6b656e0000000000000000000000000000000000000000602082015250565b7f4552433732313a20617070726f76652063616c6c6572206973206e6f74206f7760008201527f6e6572206e6f7220617070726f76656420666f7220616c6c0000000000000000602082015250565b7f4552433732313a2062616c616e636520717565727920666f7220746865207a6560008201527f726f206164647265737300000000000000000000000000000000000000000000602082015250565b7f4552433732313a206f776e657220717565727920666f72206e6f6e657869737460008201527f656e7420746f6b656e0000000000000000000000000000000000000000000000602082015250565b7f4552433732313a206d696e7420746f20746865207a65726f2061646472657373600082015250565b7f4e6f206574686572206c65667420746f20776974686472617700000000000000600082015250565b7f4552433732313a20617070726f76656420717565727920666f72206e6f6e657860008201527f697374656e7420746f6b656e0000000000000000000000000000000000000000602082015250565b7f4f776e61626c653a2063616c6c6572206973206e6f7420746865206f776e6572600082015250565b7f4552433732314d657461646174613a2055524920717565727920666f72206e6f60008201527f6e6578697374656e7420746f6b656e0000000000000000000000000000000000602082015250565b7f4552433732313a20617070726f76616c20746f2063757272656e74206f776e6560008201527f7200000000000000000000000000000000000000000000000000000000000000602082015250565b50565b7f5472616e73666572206661696c65642e00000000000000000000000000000000600082015250565b7f4552433732313a207472616e736665722063616c6c6572206973206e6f74206f60008201527f776e6572206e6f7220617070726f766564000000000000000000000000000000602082015250565b7f455243373231456e756d657261626c653a20676c6f62616c20696e646578206f60008201527f7574206f6620626f756e64730000000000000000000000000000000000000000602082015250565b613edb816136af565b8114613ee657600080fd5b50565b613ef2816136c1565b8114613efd57600080fd5b50565b613f09816136cd565b8114613f1457600080fd5b50565b613f2081613719565b8114613f2b57600080fd5b5056fea26469706673582212208cc2a8285bf92fb55b27da1c738b0cc80d8b0cf396e613fa9fabc626fab3830c64736f6c63430008040033",
  "linkReferences": {},
  "deployedLinkReferences": {}
}