{
  "_format": "hh-sol-artifact-1",
  "contractName": "CbcatDiploma",
  "sourceName": "contracts/CbcatDiploma.sol",
  "abi": [
    {
      "inputs": [
        {
          "internalType": "string",
          "name": "baseURI",
          "type": "string"
        }
      ],
      "stateMutability": "nonpayable",
      "type": "constructor"
    },
    {
      "anonymous": false,
      "inputs": [
        {
          "indexed": true,
          "internalType": "address",
          "name": "owner",
          "type": "address"
        },
        {
          "indexed": true,
          "internalType": "address",
          "name": "approved",
          "type": "address"
        },
        {
          "indexed": true,
          "internalType": "uint256",
          "name": "tokenId",
          "type": "uint256"
        }
      ],
      "name": "Approval",
      "type": "event"
    },
    {
      "anonymous": false,
      "inputs": [
        {
          "indexed": true,
          "internalType": "address",
          "name": "owner",
          "type": "address"
        },
        {
          "indexed": true,
          "internalType": "address",
          "name": "operator",
          "type": "address"
        },
        {
          "indexed": false,
          "internalType": "bool",
          "name": "approved",
          "type": "bool"
        }
      ],
      "name": "ApprovalForAll",
      "type": "event"
    },
    {
      "anonymous": false,
      "inputs": [
        {
          "indexed": true,
          "internalType": "address",
          "name": "previousOwner",
          "type": "address"
        },
        {
          "indexed": true,
          "internalType": "address",
          "name": "newOwner",
          "type": "address"
        }
      ],
      "name": "OwnershipTransferred",
      "type": "event"
    },
    {
      "anonymous": false,
      "inputs": [
        {
          "indexed": true,
          "internalType": "address",
          "name": "from",
          "type": "address"
        },
        {
          "indexed": true,
          "internalType": "address",
          "name": "to",
          "type": "address"
        },
        {
          "indexed": true,
          "internalType": "uint256",
          "name": "tokenId",
          "type": "uint256"
        }
      ],
      "name": "Transfer",
      "type": "event"
    },
    {
      "inputs": [],
      "name": "MAX_PER_MINT",
      "outputs": [
        {
          "internalType": "uint256",
          "name": "",
          "type": "uint256"
        }
      ],
      "stateMutability": "view",
      "type": "function"
    },
    {
      "inputs": [],
      "name": "PRICE",
      "outputs": [
        {
          "internalType": "uint256",
          "name": "",
          "type": "uint256"
        }
      ],
      "stateMutability": "view",
      "type": "function"
    },
    {
      "inputs": [
        {
          "internalType": "address",
          "name": "to",
          "type": "address"
        },
        {
          "internalType": "uint256",
          "name": "tokenId",
          "type": "uint256"
        }
      ],
      "name": "approve",
      "outputs": [],
      "stateMutability": "nonpayable",
      "type": "function"
    },
    {
      "inputs": [
        {
          "internalType": "address",
          "name": "owner",
          "type": "address"
        }
      ],
      "name": "balanceOf",
      "outputs": [
        {
          "internalType": "uint256",
          "name": "",
          "type": "uint256"
        }
      ],
      "stateMutability": "view",
      "type": "function"
    },
    {
      "inputs": [],
      "name": "baseTokenURI",
      "outputs": [
        {
          "internalType": "string",
          "name": "",
          "type": "string"
        }
      ],
      "stateMutability": "view",
      "type": "function"
    },
    {
      "inputs": [
        {
          "internalType": "uint256",
          "name": "tokenId",
          "type": "uint256"
        }
      ],
      "name": "getApproved",
      "outputs": [
        {
          "internalType": "address",
          "name": "",
          "type": "address"
        }
      ],
      "stateMutability": "view",
      "type": "function"
    },
    {
      "inputs": [
        {
          "internalType": "address",
          "name": "owner",
          "type": "address"
        },
        {
          "internalType": "address",
          "name": "operator",
          "type": "address"
        }
      ],
      "name": "isApprovedForAll",
      "outputs": [
        {
          "internalType": "bool",
          "name": "",
          "type": "bool"
        }
      ],
      "stateMutability": "view",
      "type": "function"
    },
    {
      "inputs": [
        {
          "internalType": "uint256",
          "name": "_count",
          "type": "uint256"
        }
      ],
      "name": "mintNFTs",
      "outputs": [],
      "stateMutability": "payable",
      "type": "function"
    },
    {
      "inputs": [],
      "name": "name",
      "outputs": [
        {
          "internalType": "string",
          "name": "",
          "type": "string"
        }
      ],
      "stateMutability": "view",
      "type": "function"
    },
    {
      "inputs": [],
      "name": "owner",
      "outputs": [
        {
          "internalType": "address",
          "name": "",
          "type": "address"
        }
      ],
      "stateMutability": "view",
      "type": "function"
    },
    {
      "inputs": [
        {
          "internalType": "uint256",
          "name": "tokenId",
          "type": "uint256"
        }
      ],
      "name": "ownerOf",
      "outputs": [
        {
          "internalType": "address",
          "name": "",
          "type": "address"
        }
      ],
      "stateMutability": "view",
      "type": "function"
    },
    {
      "inputs": [],
      "name": "renounceOwnership",
      "outputs": [],
      "stateMutability": "nonpayable",
      "type": "function"
    },
    {
      "inputs": [
        {
          "internalType": "address",
          "name": "from",
          "type": "address"
        },
        {
          "internalType": "address",
          "name": "to",
          "type": "address"
        },
        {
          "internalType": "uint256",
          "name": "tokenId",
          "type": "uint256"
        }
      ],
      "name": "safeTransferFrom",
      "outputs": [],
      "stateMutability": "nonpayable",
      "type": "function"
    },
    {
      "inputs": [
        {
          "internalType": "address",
          "name": "from",
          "type": "address"
        },
        {
          "internalType": "address",
          "name": "to",
          "type": "address"
        },
        {
          "internalType": "uint256",
          "name": "tokenId",
          "type": "uint256"
        },
        {
          "internalType": "bytes",
          "name": "_data",
          "type": "bytes"
        }
      ],
      "name": "safeTransferFrom",
      "outputs": [],
      "stateMutability": "nonpayable",
      "type": "function"
    },
    {
      "inputs": [
        {
          "internalType": "address",
          "name": "operator",
          "type": "address"
        },
        {
          "internalType": "bool",
          "name": "approved",
          "type": "bool"
        }
      ],
      "name": "setApprovalForAll",
      "outputs": [],
      "stateMutability": "nonpayable",
      "type": "function"
    },
    {
      "inputs": [
        {
          "internalType": "string",
          "name": "_baseTokenURI",
          "type": "string"
        }
      ],
      "name": "setBaseURI",
      "outputs": [],
      "stateMutability": "nonpayable",
      "type": "function"
    },
    {
      "inputs": [
        {
          "internalType": "bytes4",
          "name": "interfaceId",
          "type": "bytes4"
        }
      ],
      "name": "supportsInterface",
      "outputs": [
        {
          "internalType": "bool",
          "name": "",
          "type": "bool"
        }
      ],
      "stateMutability": "view",
      "type": "function"
    },
    {
      "inputs": [],
      "name": "symbol",
      "outputs": [
        {
          "internalType": "string",
          "name": "",
          "type": "string"
        }
      ],
      "stateMutability": "view",
      "type": "function"
    },
    {
      "inputs": [
        {
          "internalType": "uint256",
          "name": "index",
          "type": "uint256"
        }
      ],
      "name": "tokenByIndex",
      "outputs": [
        {
          "internalType": "uint256",
          "name": "",
          "type": "uint256"
        }
      ],
      "stateMutability": "view",
      "type": "function"
    },
    {
      "inputs": [
        {
          "internalType": "address",
          "name": "owner",
          "type": "address"
        },
        {
          "internalType": "uint256",
          "name": "index",
          "type": "uint256"
        }
      ],
      "name": "tokenOfOwnerByIndex",
      "outputs": [
        {
          "internalType": "uint256",
          "name": "",
          "type": "uint256"
        }
      ],
      "stateMutability": "view",
      "type": "function"
    },
    {
      "inputs": [
        {
          "internalType": "uint256",
          "name": "tokenId",
          "type": "uint256"
        }
      ],
      "name": "tokenURI",
      "outputs": [
        {
          "internalType": "string",
          "name": "",
          "type": "string"
        }
      ],
      "stateMutability": "view",
      "type": "function"
    },
    {
      "inputs": [
        {
          "internalType": "address",
          "name": "_owner",
          "type": "address"
        }
      ],
      "name": "tokensOfOwner",
      "outputs": [
        {
          "internalType": "uint256[]",
          "name": "",
          "type": "uint256[]"
        }
      ],
      "stateMutability": "view",
      "type": "function"
    },
    {
      "inputs": [],
      "name": "totalSupply",
      "outputs": [
        {
          "internalType": "uint256",
          "name": "",
          "type": "uint256"
        }
      ],
      "stateMutability": "view",
      "type": "function"
    },
    {
      "inputs": [
        {
          "internalType": "address",
          "name": "from",
          "type": "address"
        },
        {
          "internalType": "address",
          "name": "to",
          "type": "address"
        },
        {
          "internalType": "uint256",
          "name": "tokenId",
          "type": "uint256"
        }
      ],
      "name": "transferFrom",
      "outputs": [],
      "stateMutability": "nonpayable",
      "type": "function"
    },
    {
      "inputs": [
        {
          "internalType": "address",
          "name": "newOwner",
          "type": "address"
        }
      ],
      "name": "transferOwnership",
      "outputs": [],
      "stateMutability": "nonpayable",
      "type": "function"
    },
    {
      "inputs": [],
      "name": "withdraw",
      "outputs": [],
      "stateMutability": "payable",
      "type": "function"
    }
  ],
  "bytecode": "0x60806040523480156200001157600080fd5b506040516200442a3803806200442a833981810160405281019062000037919062000430565b6040518060400160405280600c81526020017f43626361744469706c6f6d6100000000000000000000000000000000000000008152506040518060400160405280600c81526020017f43626361744469706c6f6d6100000000000000000000000000000000000000008152508160009081620000b49190620006cc565b508060019081620000c69190620006cc565b505050620000e9620000dd6200010160201b60201c565b6200010960201b60201c565b620000fa81620001cf60201b60201c565b5062000836565b600033905090565b6000600a60009054906101000a900473ffffffffffffffffffffffffffffffffffffffff16905081600a60006101000a81548173ffffffffffffffffffffffffffffffffffffffff021916908373ffffffffffffffffffffffffffffffffffffffff1602179055508173ffffffffffffffffffffffffffffffffffffffff168173ffffffffffffffffffffffffffffffffffffffff167f8be0079c531659141344cd1fd0a4f28419497f9722a3daafe3b4186f6b6457e060405160405180910390a35050565b620001df6200010160201b60201c565b73ffffffffffffffffffffffffffffffffffffffff16620002056200027360201b60201c565b73ffffffffffffffffffffffffffffffffffffffff16146200025e576040517f08c379a0000000000000000000000000000000000000000000000000000000008152600401620002559062000814565b60405180910390fd5b80600c90816200026f9190620006cc565b5050565b6000600a60009054906101000a900473ffffffffffffffffffffffffffffffffffffffff16905090565b6000604051905090565b600080fd5b600080fd5b600080fd5b600080fd5b6000601f19601f8301169050919050565b7f4e487b7100000000000000000000000000000000000000000000000000000000600052604160045260246000fd5b6200030682620002bb565b810181811067ffffffffffffffff82111715620003285762000327620002cc565b5b80604052505050565b60006200033d6200029d565b90506200034b8282620002fb565b919050565b600067ffffffffffffffff8211156200036e576200036d620002cc565b5b6200037982620002bb565b9050602081019050919050565b60005b83811015620003a657808201518184015260208101905062000389565b60008484015250505050565b6000620003c9620003c38462000350565b62000331565b905082815260208101848484011115620003e857620003e7620002b6565b5b620003f584828562000386565b509392505050565b600082601f830112620004155762000414620002b1565b5b815162000427848260208601620003b2565b91505092915050565b600060208284031215620004495762000448620002a7565b5b600082015167ffffffffffffffff8111156200046a5762000469620002ac565b5b6200047884828501620003fd565b91505092915050565b600081519050919050565b7f4e487b7100000000000000000000000000000000000000000000000000000000600052602260045260246000fd5b60006002820490506001821680620004d457607f821691505b602082108103620004ea57620004e96200048c565b5b50919050565b60008190508160005260206000209050919050565b60006020601f8301049050919050565b600082821b905092915050565b600060088302620005547fffffffffffffffffffffffffffffffffffffffffffffffffffffffffffffffff8262000515565b62000560868362000515565b95508019841693508086168417925050509392505050565b6000819050919050565b6000819050919050565b6000620005ad620005a7620005a18462000578565b62000582565b62000578565b9050919050565b6000819050919050565b620005c9836200058c565b620005e1620005d882620005b4565b84845462000522565b825550505050565b600090565b620005f8620005e9565b62000605818484620005be565b505050565b5b818110156200062d5762000621600082620005ee565b6001810190506200060b565b5050565b601f8211156200067c576200064681620004f0565b620006518462000505565b8101602085101562000661578190505b62000679620006708562000505565b8301826200060a565b50505b505050565b600082821c905092915050565b6000620006a16000198460080262000681565b1980831691505092915050565b6000620006bc83836200068e565b9150826002028217905092915050565b620006d78262000481565b67ffffffffffffffff811115620006f357620006f2620002cc565b5b620006ff8254620004bb565b6200070c82828562000631565b600060209050601f8311600181146200074457600084156200072f578287015190505b6200073b8582620006ae565b865550620007ab565b601f1984166200075486620004f0565b60005b828110156200077e5784890151825560018201915060208501945060208101905062000757565b868310156200079e57848901516200079a601f8916826200068e565b8355505b6001600288020188555050505b505050505050565b600082825260208201905092915050565b7f4f776e61626c653a2063616c6c6572206973206e6f7420746865206f776e6572600082015250565b6000620007fc602083620007b3565b91506200080982620007c4565b602082019050919050565b600060208201905081810360008301526200082f81620007ed565b9050919050565b613be480620008466000396000f3fe6080604052600436106101815760003560e01c80636352211e116100d157806395d89b411161008a578063c87b56dd11610064578063c87b56dd14610566578063d547cfb7146105a3578063e985e9c5146105ce578063f2fde38b1461060b57610181565b806395d89b41146104e9578063a22cb46514610514578063b88d4fde1461053d57610181565b80636352211e146103c557806370a0823114610402578063715018a61461043f5780638462151c146104565780638d859f3e146104935780638da5cb5b146104be57610181565b806323b872dd1161013e5780633ccfd60b116101185780633ccfd60b1461032c57806342842e0e146103365780634f6ccce71461035f57806355f804b31461039c57610181565b806323b872dd146102aa5780632f745c59146102d35780633b4b13811461031057610181565b806301ffc9a71461018657806306fdde03146101c3578063081812fc146101ee578063095ea7b31461022b57806309d42b301461025457806318160ddd1461027f575b600080fd5b34801561019257600080fd5b506101ad60048036038101906101a8919061230e565b610634565b6040516101ba9190612356565b60405180910390f35b3480156101cf57600080fd5b506101d86106ae565b6040516101e59190612401565b60405180910390f35b3480156101fa57600080fd5b5061021560048036038101906102109190612459565b610740565b60405161022291906124c7565b60405180910390f35b34801561023757600080fd5b50610252600480360381019061024d919061250e565b6107c5565b005b34801561026057600080fd5b506102696108dc565b604051610276919061255d565b60405180910390f35b34801561028b57600080fd5b506102946108e1565b6040516102a1919061255d565b60405180910390f35b3480156102b657600080fd5b506102d160048036038101906102cc9190612578565b6108ee565b005b3480156102df57600080fd5b506102fa60048036038101906102f5919061250e565b61094e565b604051610307919061255d565b60405180910390f35b61032a60048036038101906103259190612459565b6109f3565b005b610334610a7c565b005b34801561034257600080fd5b5061035d60048036038101906103589190612578565b610bf0565b005b34801561036b57600080fd5b5061038660048036038101906103819190612459565b610c10565b604051610393919061255d565b60405180910390f35b3480156103a857600080fd5b506103c360048036038101906103be9190612700565b610c81565b005b3480156103d157600080fd5b506103ec60048036038101906103e79190612459565b610d10565b6040516103f991906124c7565b60405180910390f35b34801561040e57600080fd5b5061042960048036038101906104249190612749565b610dc1565b604051610436919061255d565b60405180910390f35b34801561044b57600080fd5b50610454610e78565b005b34801561046257600080fd5b5061047d60048036038101906104789190612749565b610f00565b60405161048a9190612834565b60405180910390f35b34801561049f57600080fd5b506104a8610fae565b6040516104b5919061255d565b60405180910390f35b3480156104ca57600080fd5b506104d3610fb3565b6040516104e091906124c7565b60405180910390f35b3480156104f557600080fd5b506104fe610fdd565b60405161050b9190612401565b60405180910390f35b34801561052057600080fd5b5061053b60048036038101906105369190612882565b61106f565b005b34801561054957600080fd5b50610564600480360381019061055f9190612963565b611085565b005b34801561057257600080fd5b5061058d60048036038101906105889190612459565b6110e7565b60405161059a9190612401565b60405180910390f35b3480156105af57600080fd5b506105b861118e565b6040516105c59190612401565b60405180910390f35b3480156105da57600080fd5b506105f560048036038101906105f091906129e6565b61121c565b6040516106029190612356565b60405180910390f35b34801561061757600080fd5b50610632600480360381019061062d9190612749565b6112b0565b005b60007f780e9d63000000000000000000000000000000000000000000000000000000007bffffffffffffffffffffffffffffffffffffffffffffffffffffffff1916827bffffffffffffffffffffffffffffffffffffffffffffffffffffffff191614806106a757506106a6826113a7565b5b9050919050565b6060600080546106bd90612a55565b80601f01602080910402602001604051908101604052809291908181526020018280546106e990612a55565b80156107365780601f1061070b57610100808354040283529160200191610736565b820191906000526020600020905b81548152906001019060200180831161071957829003601f168201915b5050505050905090565b600061074b82611489565b61078a576040517f08c379a000000000000000000000000000000000000000000000000000000000815260040161078190612af8565b60405180910390fd5b6004600083815260200190815260200160002060009054906101000a900473ffffffffffffffffffffffffffffffffffffffff169050919050565b60006107d082610d10565b90508073ffffffffffffffffffffffffffffffffffffffff168373ffffffffffffffffffffffffffffffffffffffff1603610840576040517f08c379a000000000000000000000000000000000000000000000000000000000815260040161083790612b8a565b60405180910390fd5b8073ffffffffffffffffffffffffffffffffffffffff1661085f6114f5565b73ffffffffffffffffffffffffffffffffffffffff16148061088e575061088d816108886114f5565b61121c565b5b6108cd576040517f08c379a00000000000000000000000000000000000000000000000000000000081526004016108c490612c1c565b60405180910390fd5b6108d783836114fd565b505050565b600181565b6000600880549050905090565b6108ff6108f96114f5565b826115b6565b61093e576040517f08c379a000000000000000000000000000000000000000000000000000000000815260040161093590612cae565b60405180910390fd5b610949838383611694565b505050565b600061095983610dc1565b821061099a576040517f08c379a000000000000000000000000000000000000000000000000000000000815260040161099190612d40565b60405180910390fd5b600660008473ffffffffffffffffffffffffffffffffffffffff1673ffffffffffffffffffffffffffffffffffffffff168152602001908152602001600020600083815260200190815260200160002054905092915050565b60006109ff600b6118fa565b9050600082118015610a12575060018211155b610a51576040517f08c379a0000000000000000000000000000000000000000000000000000000008152600401610a4890612dd2565b60405180910390fd5b60005b82811015610a7757610a64611908565b8080610a6f90612e21565b915050610a54565b505050565b610a846114f5565b73ffffffffffffffffffffffffffffffffffffffff16610aa2610fb3565b73ffffffffffffffffffffffffffffffffffffffff1614610af8576040517f08c379a0000000000000000000000000000000000000000000000000000000008152600401610aef90612eb5565b60405180910390fd5b600047905060008111610b40576040517f08c379a0000000000000000000000000000000000000000000000000000000008152600401610b3790612f21565b60405180910390fd5b60003373ffffffffffffffffffffffffffffffffffffffff1682604051610b6690612f72565b60006040518083038185875af1925050503d8060008114610ba3576040519150601f19603f3d011682016040523d82523d6000602084013e610ba8565b606091505b5050905080610bec576040517f08c379a0000000000000000000000000000000000000000000000000000000008152600401610be390612fd3565b60405180910390fd5b5050565b610c0b83838360405180602001604052806000815250611085565b505050565b6000610c1a6108e1565b8210610c5b576040517f08c379a0000000000000000000000000000000000000000000000000000000008152600401610c5290613065565b60405180910390fd5b60088281548110610c6f57610c6e613085565b5b90600052602060002001549050919050565b610c896114f5565b73ffffffffffffffffffffffffffffffffffffffff16610ca7610fb3565b73ffffffffffffffffffffffffffffffffffffffff1614610cfd576040517f08c379a0000000000000000000000000000000000000000000000000000000008152600401610cf490612eb5565b60405180910390fd5b80600c9081610d0c9190613260565b5050565b6000806002600084815260200190815260200160002060009054906101000a900473ffffffffffffffffffffffffffffffffffffffff169050600073ffffffffffffffffffffffffffffffffffffffff168173ffffffffffffffffffffffffffffffffffffffff1603610db8576040517f08c379a0000000000000000000000000000000000000000000000000000000008152600401610daf906133a4565b60405180910390fd5b80915050919050565b60008073ffffffffffffffffffffffffffffffffffffffff168273ffffffffffffffffffffffffffffffffffffffff1603610e31576040517f08c379a0000000000000000000000000000000000000000000000000000000008152600401610e2890613436565b60405180910390fd5b600360008373ffffffffffffffffffffffffffffffffffffffff1673ffffffffffffffffffffffffffffffffffffffff168152602001908152602001600020549050919050565b610e806114f5565b73ffffffffffffffffffffffffffffffffffffffff16610e9e610fb3565b73ffffffffffffffffffffffffffffffffffffffff1614610ef4576040517f08c379a0000000000000000000000000000000000000000000000000000000008152600401610eeb90612eb5565b60405180910390fd5b610efe600061192d565b565b60606000610f0d83610dc1565b905060008167ffffffffffffffff811115610f2b57610f2a6125d5565b5b604051908082528060200260200182016040528015610f595781602001602082028036833780820191505090505b50905060005b82811015610fa357610f71858261094e565b828281518110610f8457610f83613085565b5b6020026020010181815250508080610f9b90612e21565b915050610f5f565b508092505050919050565b600081565b6000600a60009054906101000a900473ffffffffffffffffffffffffffffffffffffffff16905090565b606060018054610fec90612a55565b80601f016020809104026020016040519081016040528092919081815260200182805461101890612a55565b80156110655780601f1061103a57610100808354040283529160200191611065565b820191906000526020600020905b81548152906001019060200180831161104857829003601f168201915b5050505050905090565b61108161107a6114f5565b83836119f3565b5050565b6110966110906114f5565b836115b6565b6110d5576040517f08c379a00000000000000000000000000000000000000000000000000000000081526004016110cc90612cae565b60405180910390fd5b6110e184848484611b5f565b50505050565b60606110f282611489565b611131576040517f08c379a0000000000000000000000000000000000000000000000000000000008152600401611128906134c8565b60405180910390fd5b600061113b611bbb565b9050600081511161115b5760405180602001604052806000815250611186565b8061116584611c4d565b604051602001611176929190613524565b6040516020818303038152906040525b915050919050565b600c805461119b90612a55565b80601f01602080910402602001604051908101604052809291908181526020018280546111c790612a55565b80156112145780601f106111e957610100808354040283529160200191611214565b820191906000526020600020905b8154815290600101906020018083116111f757829003601f168201915b505050505081565b6000600560008473ffffffffffffffffffffffffffffffffffffffff1673ffffffffffffffffffffffffffffffffffffffff16815260200190815260200160002060008373ffffffffffffffffffffffffffffffffffffffff1673ffffffffffffffffffffffffffffffffffffffff16815260200190815260200160002060009054906101000a900460ff16905092915050565b6112b86114f5565b73ffffffffffffffffffffffffffffffffffffffff166112d6610fb3565b73ffffffffffffffffffffffffffffffffffffffff161461132c576040517f08c379a000000000000000000000000000000000000000000000000000000000815260040161132390612eb5565b60405180910390fd5b600073ffffffffffffffffffffffffffffffffffffffff168173ffffffffffffffffffffffffffffffffffffffff160361139b576040517f08c379a0000000000000000000000000000000000000000000000000000000008152600401611392906135ba565b60405180910390fd5b6113a48161192d565b50565b60007f80ac58cd000000000000000000000000000000000000000000000000000000007bffffffffffffffffffffffffffffffffffffffffffffffffffffffff1916827bffffffffffffffffffffffffffffffffffffffffffffffffffffffff1916148061147257507f5b5e139f000000000000000000000000000000000000000000000000000000007bffffffffffffffffffffffffffffffffffffffffffffffffffffffff1916827bffffffffffffffffffffffffffffffffffffffffffffffffffffffff1916145b80611482575061148182611dad565b5b9050919050565b60008073ffffffffffffffffffffffffffffffffffffffff166002600084815260200190815260200160002060009054906101000a900473ffffffffffffffffffffffffffffffffffffffff1673ffffffffffffffffffffffffffffffffffffffff1614159050919050565b600033905090565b816004600083815260200190815260200160002060006101000a81548173ffffffffffffffffffffffffffffffffffffffff021916908373ffffffffffffffffffffffffffffffffffffffff160217905550808273ffffffffffffffffffffffffffffffffffffffff1661157083610d10565b73ffffffffffffffffffffffffffffffffffffffff167f8c5be1e5ebec7d5bd14f71427d1e84f3dd0314c0f7b2291e5b200ac8c7c3b92560405160405180910390a45050565b60006115c182611489565b611600576040517f08c379a00000000000000000000000000000000000000000000000000000000081526004016115f79061364c565b60405180910390fd5b600061160b83610d10565b90508073ffffffffffffffffffffffffffffffffffffffff168473ffffffffffffffffffffffffffffffffffffffff16148061164d575061164c818561121c565b5b8061168b57508373ffffffffffffffffffffffffffffffffffffffff1661167384610740565b73ffffffffffffffffffffffffffffffffffffffff16145b91505092915050565b8273ffffffffffffffffffffffffffffffffffffffff166116b482610d10565b73ffffffffffffffffffffffffffffffffffffffff161461170a576040517f08c379a0000000000000000000000000000000000000000000000000000000008152600401611701906136de565b60405180910390fd5b600073ffffffffffffffffffffffffffffffffffffffff168273ffffffffffffffffffffffffffffffffffffffff1603611779576040517f08c379a000000000000000000000000000000000000000000000000000000000815260040161177090613770565b60405180910390fd5b611784838383611e17565b61178f6000826114fd565b6001600360008573ffffffffffffffffffffffffffffffffffffffff1673ffffffffffffffffffffffffffffffffffffffff16815260200190815260200160002060008282546117df9190613790565b925050819055506001600360008473ffffffffffffffffffffffffffffffffffffffff1673ffffffffffffffffffffffffffffffffffffffff168152602001908152602001600020600082825461183691906137c4565b92505081905550816002600083815260200190815260200160002060006101000a81548173ffffffffffffffffffffffffffffffffffffffff021916908373ffffffffffffffffffffffffffffffffffffffff160217905550808273ffffffffffffffffffffffffffffffffffffffff168473ffffffffffffffffffffffffffffffffffffffff167fddf252ad1be2c89b69c2b068fc378daa952ba7f163c4a11628f55a4df523b3ef60405160405180910390a46118f5838383611e8b565b505050565b600081600001549050919050565b6000611914600b6118fa565b90506119203382611e90565b61192a600b611eae565b50565b6000600a60009054906101000a900473ffffffffffffffffffffffffffffffffffffffff16905081600a60006101000a81548173ffffffffffffffffffffffffffffffffffffffff021916908373ffffffffffffffffffffffffffffffffffffffff1602179055508173ffffffffffffffffffffffffffffffffffffffff168173ffffffffffffffffffffffffffffffffffffffff167f8be0079c531659141344cd1fd0a4f28419497f9722a3daafe3b4186f6b6457e060405160405180910390a35050565b8173ffffffffffffffffffffffffffffffffffffffff168373ffffffffffffffffffffffffffffffffffffffff1603611a61576040517f08c379a0000000000000000000000000000000000000000000000000000000008152600401611a5890613844565b60405180910390fd5b80600560008573ffffffffffffffffffffffffffffffffffffffff1673ffffffffffffffffffffffffffffffffffffffff16815260200190815260200160002060008473ffffffffffffffffffffffffffffffffffffffff1673ffffffffffffffffffffffffffffffffffffffff16815260200190815260200160002060006101000a81548160ff0219169083151502179055508173ffffffffffffffffffffffffffffffffffffffff168373ffffffffffffffffffffffffffffffffffffffff167f17307eab39ab6107e8899845ad3d59bd9653f200f220920489ca2b5937696c3183604051611b529190612356565b60405180910390a3505050565b611b6a848484611694565b611b7684848484611ec4565b611bb5576040517f08c379a0000000000000000000000000000000000000000000000000000000008152600401611bac906138d6565b60405180910390fd5b50505050565b6060600c8054611bca90612a55565b80601f0160208091040260200160405190810160405280929190818152602001828054611bf690612a55565b8015611c435780601f10611c1857610100808354040283529160200191611c43565b820191906000526020600020905b815481529060010190602001808311611c2657829003601f168201915b5050505050905090565b606060008203611c94576040518060400160405280600181526020017f30000000000000000000000000000000000000000000000000000000000000008152509050611da8565b600082905060005b60008214611cc6578080611caf90612e21565b915050600a82611cbf9190613925565b9150611c9c565b60008167ffffffffffffffff811115611ce257611ce16125d5565b5b6040519080825280601f01601f191660200182016040528015611d145781602001600182028036833780820191505090505b5090505b60008514611da157600182611d2d9190613790565b9150600a85611d3c9190613956565b6030611d4891906137c4565b60f81b818381518110611d5e57611d5d613085565b5b60200101907effffffffffffffffffffffffffffffffffffffffffffffffffffffffffffff1916908160001a905350600a85611d9a9190613925565b9450611d18565b8093505050505b919050565b60007f01ffc9a7000000000000000000000000000000000000000000000000000000007bffffffffffffffffffffffffffffffffffffffffffffffffffffffff1916827bffffffffffffffffffffffffffffffffffffffffffffffffffffffff1916149050919050565b600073ffffffffffffffffffffffffffffffffffffffff168373ffffffffffffffffffffffffffffffffffffffff1614611e86576040517f08c379a0000000000000000000000000000000000000000000000000000000008152600401611e7d906139d3565b60405180910390fd5b505050565b505050565b611eaa82826040518060200160405280600081525061204b565b5050565b6001816000016000828254019250508190555050565b6000611ee58473ffffffffffffffffffffffffffffffffffffffff166120a6565b1561203e578373ffffffffffffffffffffffffffffffffffffffff1663150b7a02611f0e6114f5565b8786866040518563ffffffff1660e01b8152600401611f309493929190613a48565b6020604051808303816000875af1925050508015611f6c57506040513d601f19601f82011682018060405250810190611f699190613aa9565b60015b611fee573d8060008114611f9c576040519150601f19603f3d011682016040523d82523d6000602084013e611fa1565b606091505b506000815103611fe6576040517f08c379a0000000000000000000000000000000000000000000000000000000008152600401611fdd906138d6565b60405180910390fd5b805181602001fd5b63150b7a0260e01b7bffffffffffffffffffffffffffffffffffffffffffffffffffffffff1916817bffffffffffffffffffffffffffffffffffffffffffffffffffffffff191614915050612043565b600190505b949350505050565b61205583836120c9565b6120626000848484611ec4565b6120a1576040517f08c379a0000000000000000000000000000000000000000000000000000000008152600401612098906138d6565b60405180910390fd5b505050565b6000808273ffffffffffffffffffffffffffffffffffffffff163b119050919050565b600073ffffffffffffffffffffffffffffffffffffffff168273ffffffffffffffffffffffffffffffffffffffff1603612138576040517f08c379a000000000000000000000000000000000000000000000000000000000815260040161212f90613b22565b60405180910390fd5b61214181611489565b15612181576040517f08c379a000000000000000000000000000000000000000000000000000000000815260040161217890613b8e565b60405180910390fd5b61218d60008383611e17565b6001600360008473ffffffffffffffffffffffffffffffffffffffff1673ffffffffffffffffffffffffffffffffffffffff16815260200190815260200160002060008282546121dd91906137c4565b92505081905550816002600083815260200190815260200160002060006101000a81548173ffffffffffffffffffffffffffffffffffffffff021916908373ffffffffffffffffffffffffffffffffffffffff160217905550808273ffffffffffffffffffffffffffffffffffffffff16600073ffffffffffffffffffffffffffffffffffffffff167fddf252ad1be2c89b69c2b068fc378daa952ba7f163c4a11628f55a4df523b3ef60405160405180910390a461229e60008383611e8b565b5050565b6000604051905090565b600080fd5b600080fd5b60007fffffffff0000000000000000000000000000000000000000000000000000000082169050919050565b6122eb816122b6565b81146122f657600080fd5b50565b600081359050612308816122e2565b92915050565b600060208284031215612324576123236122ac565b5b6000612332848285016122f9565b91505092915050565b60008115159050919050565b6123508161233b565b82525050565b600060208201905061236b6000830184612347565b92915050565b600081519050919050565b600082825260208201905092915050565b60005b838110156123ab578082015181840152602081019050612390565b60008484015250505050565b6000601f19601f8301169050919050565b60006123d382612371565b6123dd818561237c565b93506123ed81856020860161238d565b6123f6816123b7565b840191505092915050565b6000602082019050818103600083015261241b81846123c8565b905092915050565b6000819050919050565b61243681612423565b811461244157600080fd5b50565b6000813590506124538161242d565b92915050565b60006020828403121561246f5761246e6122ac565b5b600061247d84828501612444565b91505092915050565b600073ffffffffffffffffffffffffffffffffffffffff82169050919050565b60006124b182612486565b9050919050565b6124c1816124a6565b82525050565b60006020820190506124dc60008301846124b8565b92915050565b6124eb816124a6565b81146124f657600080fd5b50565b600081359050612508816124e2565b92915050565b60008060408385031215612525576125246122ac565b5b6000612533858286016124f9565b925050602061254485828601612444565b9150509250929050565b61255781612423565b82525050565b6000602082019050612572600083018461254e565b92915050565b600080600060608486031215612591576125906122ac565b5b600061259f868287016124f9565b93505060206125b0868287016124f9565b92505060406125c186828701612444565b9150509250925092565b600080fd5b600080fd5b7f4e487b7100000000000000000000000000000000000000000000000000000000600052604160045260246000fd5b61260d826123b7565b810181811067ffffffffffffffff8211171561262c5761262b6125d5565b5b80604052505050565b600061263f6122a2565b905061264b8282612604565b919050565b600067ffffffffffffffff82111561266b5761266a6125d5565b5b612674826123b7565b9050602081019050919050565b82818337600083830152505050565b60006126a361269e84612650565b612635565b9050828152602081018484840111156126bf576126be6125d0565b5b6126ca848285612681565b509392505050565b600082601f8301126126e7576126e66125cb565b5b81356126f7848260208601612690565b91505092915050565b600060208284031215612716576127156122ac565b5b600082013567ffffffffffffffff811115612734576127336122b1565b5b612740848285016126d2565b91505092915050565b60006020828403121561275f5761275e6122ac565b5b600061276d848285016124f9565b91505092915050565b600081519050919050565b600082825260208201905092915050565b6000819050602082019050919050565b6127ab81612423565b82525050565b60006127bd83836127a2565b60208301905092915050565b6000602082019050919050565b60006127e182612776565b6127eb8185612781565b93506127f683612792565b8060005b8381101561282757815161280e88826127b1565b9750612819836127c9565b9250506001810190506127fa565b5085935050505092915050565b6000602082019050818103600083015261284e81846127d6565b905092915050565b61285f8161233b565b811461286a57600080fd5b50565b60008135905061287c81612856565b92915050565b60008060408385031215612899576128986122ac565b5b60006128a7858286016124f9565b92505060206128b88582860161286d565b9150509250929050565b600067ffffffffffffffff8211156128dd576128dc6125d5565b5b6128e6826123b7565b9050602081019050919050565b6000612906612901846128c2565b612635565b905082815260208101848484011115612922576129216125d0565b5b61292d848285612681565b509392505050565b600082601f83011261294a576129496125cb565b5b813561295a8482602086016128f3565b91505092915050565b6000806000806080858703121561297d5761297c6122ac565b5b600061298b878288016124f9565b945050602061299c878288016124f9565b93505060406129ad87828801612444565b925050606085013567ffffffffffffffff8111156129ce576129cd6122b1565b5b6129da87828801612935565b91505092959194509250565b600080604083850312156129fd576129fc6122ac565b5b6000612a0b858286016124f9565b9250506020612a1c858286016124f9565b9150509250929050565b7f4e487b7100000000000000000000000000000000000000000000000000000000600052602260045260246000fd5b60006002820490506001821680612a6d57607f821691505b602082108103612a8057612a7f612a26565b5b50919050565b7f4552433732313a20617070726f76656420717565727920666f72206e6f6e657860008201527f697374656e7420746f6b656e0000000000000000000000000000000000000000602082015250565b6000612ae2602c8361237c565b9150612aed82612a86565b604082019050919050565b60006020820190508181036000830152612b1181612ad5565b9050919050565b7f4552433732313a20617070726f76616c20746f2063757272656e74206f776e6560008201527f7200000000000000000000000000000000000000000000000000000000000000602082015250565b6000612b7460218361237c565b9150612b7f82612b18565b604082019050919050565b60006020820190508181036000830152612ba381612b67565b9050919050565b7f4552433732313a20617070726f76652063616c6c6572206973206e6f74206f7760008201527f6e6572206e6f7220617070726f76656420666f7220616c6c0000000000000000602082015250565b6000612c0660388361237c565b9150612c1182612baa565b604082019050919050565b60006020820190508181036000830152612c3581612bf9565b9050919050565b7f4552433732313a207472616e736665722063616c6c6572206973206e6f74206f60008201527f776e6572206e6f7220617070726f766564000000000000000000000000000000602082015250565b6000612c9860318361237c565b9150612ca382612c3c565b604082019050919050565b60006020820190508181036000830152612cc781612c8b565b9050919050565b7f455243373231456e756d657261626c653a206f776e657220696e646578206f7560008201527f74206f6620626f756e6473000000000000000000000000000000000000000000602082015250565b6000612d2a602b8361237c565b9150612d3582612cce565b604082019050919050565b60006020820190508181036000830152612d5981612d1d565b9050919050565b7f43616e6e6f74206d696e7420737065636966696564206e756d626572206f662060008201527f4e4654732e000000000000000000000000000000000000000000000000000000602082015250565b6000612dbc60258361237c565b9150612dc782612d60565b604082019050919050565b60006020820190508181036000830152612deb81612daf565b9050919050565b7f4e487b7100000000000000000000000000000000000000000000000000000000600052601160045260246000fd5b6000612e2c82612423565b91507fffffffffffffffffffffffffffffffffffffffffffffffffffffffffffffffff8203612e5e57612e5d612df2565b5b600182019050919050565b7f4f776e61626c653a2063616c6c6572206973206e6f7420746865206f776e6572600082015250565b6000612e9f60208361237c565b9150612eaa82612e69565b602082019050919050565b60006020820190508181036000830152612ece81612e92565b9050919050565b7f4e6f206574686572206c65667420746f20776974686472617700000000000000600082015250565b6000612f0b60198361237c565b9150612f1682612ed5565b602082019050919050565b60006020820190508181036000830152612f3a81612efe565b9050919050565b600081905092915050565b50565b6000612f5c600083612f41565b9150612f6782612f4c565b600082019050919050565b6000612f7d82612f4f565b9150819050919050565b7f5472616e73666572206661696c65642e00000000000000000000000000000000600082015250565b6000612fbd60108361237c565b9150612fc882612f87565b602082019050919050565b60006020820190508181036000830152612fec81612fb0565b9050919050565b7f455243373231456e756d657261626c653a20676c6f62616c20696e646578206f60008201527f7574206f6620626f756e64730000000000000000000000000000000000000000602082015250565b600061304f602c8361237c565b915061305a82612ff3565b604082019050919050565b6000602082019050818103600083015261307e81613042565b9050919050565b7f4e487b7100000000000000000000000000000000000000000000000000000000600052603260045260246000fd5b60008190508160005260206000209050919050565b60006020601f8301049050919050565b600082821b905092915050565b6000600883026131167fffffffffffffffffffffffffffffffffffffffffffffffffffffffffffffffff826130d9565b61312086836130d9565b95508019841693508086168417925050509392505050565b6000819050919050565b600061315d61315861315384612423565b613138565b612423565b9050919050565b6000819050919050565b61317783613142565b61318b61318382613164565b8484546130e6565b825550505050565b600090565b6131a0613193565b6131ab81848461316e565b505050565b5b818110156131cf576131c4600082613198565b6001810190506131b1565b5050565b601f821115613214576131e5816130b4565b6131ee846130c9565b810160208510156131fd578190505b613211613209856130c9565b8301826131b0565b50505b505050565b600082821c905092915050565b600061323760001984600802613219565b1980831691505092915050565b60006132508383613226565b9150826002028217905092915050565b61326982612371565b67ffffffffffffffff811115613282576132816125d5565b5b61328c8254612a55565b6132978282856131d3565b600060209050601f8311600181146132ca57600084156132b8578287015190505b6132c28582613244565b86555061332a565b601f1984166132d8866130b4565b60005b82811015613300578489015182556001820191506020850194506020810190506132db565b8683101561331d5784890151613319601f891682613226565b8355505b6001600288020188555050505b505050505050565b7f4552433732313a206f776e657220717565727920666f72206e6f6e657869737460008201527f656e7420746f6b656e0000000000000000000000000000000000000000000000602082015250565b600061338e60298361237c565b915061339982613332565b604082019050919050565b600060208201905081810360008301526133bd81613381565b9050919050565b7f4552433732313a2062616c616e636520717565727920666f7220746865207a6560008201527f726f206164647265737300000000000000000000000000000000000000000000602082015250565b6000613420602a8361237c565b915061342b826133c4565b604082019050919050565b6000602082019050818103600083015261344f81613413565b9050919050565b7f4552433732314d657461646174613a2055524920717565727920666f72206e6f60008201527f6e6578697374656e7420746f6b656e0000000000000000000000000000000000602082015250565b60006134b2602f8361237c565b91506134bd82613456565b604082019050919050565b600060208201905081810360008301526134e1816134a5565b9050919050565b600081905092915050565b60006134fe82612371565b61350881856134e8565b935061351881856020860161238d565b80840191505092915050565b600061353082856134f3565b915061353c82846134f3565b91508190509392505050565b7f4f776e61626c653a206e6577206f776e657220697320746865207a65726f206160008201527f6464726573730000000000000000000000000000000000000000000000000000602082015250565b60006135a460268361237c565b91506135af82613548565b604082019050919050565b600060208201905081810360008301526135d381613597565b9050919050565b7f4552433732313a206f70657261746f7220717565727920666f72206e6f6e657860008201527f697374656e7420746f6b656e0000000000000000000000000000000000000000602082015250565b6000613636602c8361237c565b9150613641826135da565b604082019050919050565b6000602082019050818103600083015261366581613629565b9050919050565b7f4552433732313a207472616e736665722066726f6d20696e636f72726563742060008201527f6f776e6572000000000000000000000000000000000000000000000000000000602082015250565b60006136c860258361237c565b91506136d38261366c565b604082019050919050565b600060208201905081810360008301526136f7816136bb565b9050919050565b7f4552433732313a207472616e7366657220746f20746865207a65726f2061646460008201527f7265737300000000000000000000000000000000000000000000000000000000602082015250565b600061375a60248361237c565b9150613765826136fe565b604082019050919050565b600060208201905081810360008301526137898161374d565b9050919050565b600061379b82612423565b91506137a683612423565b92508282039050818111156137be576137bd612df2565b5b92915050565b60006137cf82612423565b91506137da83612423565b92508282019050808211156137f2576137f1612df2565b5b92915050565b7f4552433732313a20617070726f766520746f2063616c6c657200000000000000600082015250565b600061382e60198361237c565b9150613839826137f8565b602082019050919050565b6000602082019050818103600083015261385d81613821565b9050919050565b7f4552433732313a207472616e7366657220746f206e6f6e20455243373231526560008201527f63656976657220696d706c656d656e7465720000000000000000000000000000602082015250565b60006138c060328361237c565b91506138cb82613864565b604082019050919050565b600060208201905081810360008301526138ef816138b3565b9050919050565b7f4e487b7100000000000000000000000000000000000000000000000000000000600052601260045260246000fd5b600061393082612423565b915061393b83612423565b92508261394b5761394a6138f6565b5b828204905092915050565b600061396182612423565b915061396c83612423565b92508261397c5761397b6138f6565b5b828206905092915050565b7f4572723a20746f6b656e207472616e7366657220697320424c4f434b45440000600082015250565b60006139bd601e8361237c565b91506139c882613987565b602082019050919050565b600060208201905081810360008301526139ec816139b0565b9050919050565b600081519050919050565b600082825260208201905092915050565b6000613a1a826139f3565b613a2481856139fe565b9350613a3481856020860161238d565b613a3d816123b7565b840191505092915050565b6000608082019050613a5d60008301876124b8565b613a6a60208301866124b8565b613a77604083018561254e565b8181036060830152613a898184613a0f565b905095945050505050565b600081519050613aa3816122e2565b92915050565b600060208284031215613abf57613abe6122ac565b5b6000613acd84828501613a94565b91505092915050565b7f4552433732313a206d696e7420746f20746865207a65726f2061646472657373600082015250565b6000613b0c60208361237c565b9150613b1782613ad6565b602082019050919050565b60006020820190508181036000830152613b3b81613aff565b9050919050565b7f4552433732313a20746f6b656e20616c7265616479206d696e74656400000000600082015250565b6000613b78601c8361237c565b9150613b8382613b42565b602082019050919050565b60006020820190508181036000830152613ba781613b6b565b905091905056fea26469706673582212207fcc980ed3089a90a2c3e127e0dafacc099fed9e59fdcaa3fd2be973f39c2f6664736f6c63430008140033",
  "linkReferences": {},
  "deployedLinkReferences": {}
}