{
  "_format": "hh-sol-artifact-1",
  "contractName": "PurchasedTicket",
  "sourceName": "contracts/PurchasedTicked.sol",
  "abi": [
    {
      "inputs": [
        {
          "internalType": "string",
          "name": "baseURI",
          "type": "string"
        }
      ],
      "stateMutability": "nonpayable",
      "type": "constructor"
    },
    {
      "anonymous": false,
      "inputs": [
        {
          "indexed": true,
          "internalType": "address",
          "name": "owner",
          "type": "address"
        },
        {
          "indexed": true,
          "internalType": "address",
          "name": "approved",
          "type": "address"
        },
        {
          "indexed": true,
          "internalType": "uint256",
          "name": "tokenId",
          "type": "uint256"
        }
      ],
      "name": "Approval",
      "type": "event"
    },
    {
      "anonymous": false,
      "inputs": [
        {
          "indexed": true,
          "internalType": "address",
          "name": "owner",
          "type": "address"
        },
        {
          "indexed": true,
          "internalType": "address",
          "name": "operator",
          "type": "address"
        },
        {
          "indexed": false,
          "internalType": "bool",
          "name": "approved",
          "type": "bool"
        }
      ],
      "name": "ApprovalForAll",
      "type": "event"
    },
    {
      "anonymous": false,
      "inputs": [
        {
          "indexed": true,
          "internalType": "address",
          "name": "from",
          "type": "address"
        },
        {
          "indexed": true,
          "internalType": "address",
          "name": "to",
          "type": "address"
        },
        {
          "indexed": true,
          "internalType": "uint256",
          "name": "tokenId",
          "type": "uint256"
        }
      ],
      "name": "Transfer",
      "type": "event"
    },
    {
      "inputs": [],
      "name": "MAX_PER_MINT",
      "outputs": [
        {
          "internalType": "uint256",
          "name": "",
          "type": "uint256"
        }
      ],
      "stateMutability": "view",
      "type": "function"
    },
    {
      "inputs": [],
      "name": "PRICE",
      "outputs": [
        {
          "internalType": "uint256",
          "name": "",
          "type": "uint256"
        }
      ],
      "stateMutability": "view",
      "type": "function"
    },
    {
      "inputs": [
        {
          "internalType": "address",
          "name": "to",
          "type": "address"
        },
        {
          "internalType": "uint256",
          "name": "tokenId",
          "type": "uint256"
        }
      ],
      "name": "approve",
      "outputs": [],
      "stateMutability": "nonpayable",
      "type": "function"
    },
    {
      "inputs": [
        {
          "internalType": "address",
          "name": "owner",
          "type": "address"
        }
      ],
      "name": "balanceOf",
      "outputs": [
        {
          "internalType": "uint256",
          "name": "",
          "type": "uint256"
        }
      ],
      "stateMutability": "view",
      "type": "function"
    },
    {
      "inputs": [],
      "name": "baseTokenURI",
      "outputs": [
        {
          "internalType": "string",
          "name": "",
          "type": "string"
        }
      ],
      "stateMutability": "view",
      "type": "function"
    },
    {
      "inputs": [
        {
          "internalType": "uint256",
          "name": "tokenId",
          "type": "uint256"
        }
      ],
      "name": "getApproved",
      "outputs": [
        {
          "internalType": "address",
          "name": "",
          "type": "address"
        }
      ],
      "stateMutability": "view",
      "type": "function"
    },
    {
      "inputs": [
        {
          "internalType": "address",
          "name": "owner",
          "type": "address"
        },
        {
          "internalType": "address",
          "name": "operator",
          "type": "address"
        }
      ],
      "name": "isApprovedForAll",
      "outputs": [
        {
          "internalType": "bool",
          "name": "",
          "type": "bool"
        }
      ],
      "stateMutability": "view",
      "type": "function"
    },
    {
      "inputs": [
        {
          "internalType": "address",
          "name": "_owner",
          "type": "address"
        }
      ],
      "name": "isNFTOwner",
      "outputs": [
        {
          "internalType": "bool",
          "name": "",
          "type": "bool"
        }
      ],
      "stateMutability": "view",
      "type": "function"
    },
    {
      "inputs": [
        {
          "internalType": "int256",
          "name": "count",
          "type": "int256"
        }
      ],
      "name": "mintNFTs",
      "outputs": [],
      "stateMutability": "payable",
      "type": "function"
    },
    {
      "inputs": [],
      "name": "name",
      "outputs": [
        {
          "internalType": "string",
          "name": "",
          "type": "string"
        }
      ],
      "stateMutability": "view",
      "type": "function"
    },
    {
      "inputs": [
        {
          "internalType": "uint256",
          "name": "",
          "type": "uint256"
        }
      ],
      "name": "nftOwners",
      "outputs": [
        {
          "internalType": "address",
          "name": "",
          "type": "address"
        }
      ],
      "stateMutability": "view",
      "type": "function"
    },
    {
      "inputs": [
        {
          "internalType": "uint256",
          "name": "tokenId",
          "type": "uint256"
        }
      ],
      "name": "ownerOf",
      "outputs": [
        {
          "internalType": "address",
          "name": "",
          "type": "address"
        }
      ],
      "stateMutability": "view",
      "type": "function"
    },
    {
      "inputs": [
        {
          "internalType": "address",
          "name": "from",
          "type": "address"
        },
        {
          "internalType": "address",
          "name": "to",
          "type": "address"
        },
        {
          "internalType": "uint256",
          "name": "tokenId",
          "type": "uint256"
        }
      ],
      "name": "safeTransferFrom",
      "outputs": [],
      "stateMutability": "nonpayable",
      "type": "function"
    },
    {
      "inputs": [
        {
          "internalType": "address",
          "name": "from",
          "type": "address"
        },
        {
          "internalType": "address",
          "name": "to",
          "type": "address"
        },
        {
          "internalType": "uint256",
          "name": "tokenId",
          "type": "uint256"
        },
        {
          "internalType": "bytes",
          "name": "_data",
          "type": "bytes"
        }
      ],
      "name": "safeTransferFrom",
      "outputs": [],
      "stateMutability": "nonpayable",
      "type": "function"
    },
    {
      "inputs": [
        {
          "internalType": "address",
          "name": "",
          "type": "address"
        }
      ],
      "name": "scoreBoard",
      "outputs": [
        {
          "internalType": "uint256",
          "name": "",
          "type": "uint256"
        }
      ],
      "stateMutability": "view",
      "type": "function"
    },
    {
      "inputs": [
        {
          "internalType": "address",
          "name": "operator",
          "type": "address"
        },
        {
          "internalType": "bool",
          "name": "approved",
          "type": "bool"
        }
      ],
      "name": "setApprovalForAll",
      "outputs": [],
      "stateMutability": "nonpayable",
      "type": "function"
    },
    {
      "inputs": [
        {
          "internalType": "string",
          "name": "_baseTokenURI",
          "type": "string"
        }
      ],
      "name": "setBaseURI",
      "outputs": [],
      "stateMutability": "nonpayable",
      "type": "function"
    },
    {
      "inputs": [
        {
          "internalType": "address",
          "name": "player",
          "type": "address"
        },
        {
          "internalType": "uint256",
          "name": "score",
          "type": "uint256"
        }
      ],
      "name": "setScoreForPlayer",
      "outputs": [
        {
          "internalType": "bool",
          "name": "",
          "type": "bool"
        }
      ],
      "stateMutability": "nonpayable",
      "type": "function"
    },
    {
      "inputs": [
        {
          "internalType": "bytes4",
          "name": "interfaceId",
          "type": "bytes4"
        }
      ],
      "name": "supportsInterface",
      "outputs": [
        {
          "internalType": "bool",
          "name": "",
          "type": "bool"
        }
      ],
      "stateMutability": "view",
      "type": "function"
    },
    {
      "inputs": [],
      "name": "symbol",
      "outputs": [
        {
          "internalType": "string",
          "name": "",
          "type": "string"
        }
      ],
      "stateMutability": "view",
      "type": "function"
    },
    {
      "inputs": [
        {
          "internalType": "uint256",
          "name": "index",
          "type": "uint256"
        }
      ],
      "name": "tokenByIndex",
      "outputs": [
        {
          "internalType": "uint256",
          "name": "",
          "type": "uint256"
        }
      ],
      "stateMutability": "view",
      "type": "function"
    },
    {
      "inputs": [
        {
          "internalType": "address",
          "name": "owner",
          "type": "address"
        },
        {
          "internalType": "uint256",
          "name": "index",
          "type": "uint256"
        }
      ],
      "name": "tokenOfOwnerByIndex",
      "outputs": [
        {
          "internalType": "uint256",
          "name": "",
          "type": "uint256"
        }
      ],
      "stateMutability": "view",
      "type": "function"
    },
    {
      "inputs": [
        {
          "internalType": "uint256",
          "name": "tokenId",
          "type": "uint256"
        }
      ],
      "name": "tokenURI",
      "outputs": [
        {
          "internalType": "string",
          "name": "",
          "type": "string"
        }
      ],
      "stateMutability": "view",
      "type": "function"
    },
    {
      "inputs": [
        {
          "internalType": "address",
          "name": "_owner",
          "type": "address"
        }
      ],
      "name": "tokensOfOwner",
      "outputs": [
        {
          "internalType": "uint256[]",
          "name": "",
          "type": "uint256[]"
        }
      ],
      "stateMutability": "view",
      "type": "function"
    },
    {
      "inputs": [],
      "name": "totalSupply",
      "outputs": [
        {
          "internalType": "uint256",
          "name": "",
          "type": "uint256"
        }
      ],
      "stateMutability": "view",
      "type": "function"
    },
    {
      "inputs": [
        {
          "internalType": "address",
          "name": "from",
          "type": "address"
        },
        {
          "internalType": "address",
          "name": "to",
          "type": "address"
        },
        {
          "internalType": "uint256",
          "name": "tokenId",
          "type": "uint256"
        }
      ],
      "name": "transferFrom",
      "outputs": [],
      "stateMutability": "nonpayable",
      "type": "function"
    },
    {
      "inputs": [],
      "name": "withdraw",
      "outputs": [],
      "stateMutability": "payable",
      "type": "function"
    }
  ],
  "bytecode": "0x60806040523480156200001157600080fd5b506040516200442438038062004424833981810160405281019062000037919062000289565b6040518060400160405280600f81526020017f5075726368617365645469636b657400000000000000000000000000000000008152506040518060400160405280600f81526020017f5075726368617365645469636b657400000000000000000000000000000000008152508160009081620000b4919062000525565b508060019081620000c6919062000525565b505050620000da81620000e160201b60201c565b506200060c565b80600d9081620000f2919062000525565b5050565b6000604051905090565b600080fd5b600080fd5b600080fd5b600080fd5b6000601f19601f8301169050919050565b7f4e487b7100000000000000000000000000000000000000000000000000000000600052604160045260246000fd5b6200015f8262000114565b810181811067ffffffffffffffff8211171562000181576200018062000125565b5b80604052505050565b600062000196620000f6565b9050620001a4828262000154565b919050565b600067ffffffffffffffff821115620001c757620001c662000125565b5b620001d28262000114565b9050602081019050919050565b60005b83811015620001ff578082015181840152602081019050620001e2565b60008484015250505050565b6000620002226200021c84620001a9565b6200018a565b9050828152602081018484840111156200024157620002406200010f565b5b6200024e848285620001df565b509392505050565b600082601f8301126200026e576200026d6200010a565b5b8151620002808482602086016200020b565b91505092915050565b600060208284031215620002a257620002a162000100565b5b600082015167ffffffffffffffff811115620002c357620002c262000105565b5b620002d18482850162000256565b91505092915050565b600081519050919050565b7f4e487b7100000000000000000000000000000000000000000000000000000000600052602260045260246000fd5b600060028204905060018216806200032d57607f821691505b602082108103620003435762000342620002e5565b5b50919050565b60008190508160005260206000209050919050565b60006020601f8301049050919050565b600082821b905092915050565b600060088302620003ad7fffffffffffffffffffffffffffffffffffffffffffffffffffffffffffffffff826200036e565b620003b986836200036e565b95508019841693508086168417925050509392505050565b6000819050919050565b6000819050919050565b60006200040662000400620003fa84620003d1565b620003db565b620003d1565b9050919050565b6000819050919050565b6200042283620003e5565b6200043a62000431826200040d565b8484546200037b565b825550505050565b600090565b6200045162000442565b6200045e81848462000417565b505050565b5b8181101562000486576200047a60008262000447565b60018101905062000464565b5050565b601f821115620004d5576200049f8162000349565b620004aa846200035e565b81016020851015620004ba578190505b620004d2620004c9856200035e565b83018262000463565b50505b505050565b600082821c905092915050565b6000620004fa60001984600802620004da565b1980831691505092915050565b6000620005158383620004e7565b9150826002028217905092915050565b6200053082620002da565b67ffffffffffffffff8111156200054c576200054b62000125565b5b62000558825462000314565b620005658282856200048a565b600060209050601f8311600181146200059d576000841562000588578287015190505b62000594858262000507565b86555062000604565b601f198416620005ad8662000349565b60005b82811015620005d757848901518255600182019150602085019450602081019050620005b0565b86831015620005f75784890151620005f3601f891682620004e7565b8355505b6001600288020188555050505b505050505050565b613e08806200061c6000396000f3fe60806040526004361061019c5760003560e01c80636352211e116100ec578063b926078f1161008a578063d547cfb711610064578063d547cfb714610617578063dd066ac814610642578063e985e9c51461065e578063f12f43cf1461069b5761019c565b8063b926078f14610560578063bbd94c2f1461059d578063c87b56dd146105da5761019c565b80638d859f3e116100c65780638d859f3e146104b857806395d89b41146104e3578063a22cb4651461050e578063b88d4fde146105375761019c565b80636352211e1461040157806370a082311461043e5780638462151c1461047b5761019c565b806318160ddd116101595780633ccfd60b116101335780633ccfd60b1461036857806342842e0e146103725780634f6ccce71461039b57806355f804b3146103d85761019c565b806318160ddd146102d757806323b872dd146103025780632f745c591461032b5761019c565b806301ffc9a7146101a157806306fdde03146101de578063081812fc14610209578063095ea7b31461024657806309d42b301461026f5780630caa87b21461029a575b600080fd5b3480156101ad57600080fd5b506101c860048036038101906101c391906125c4565b6106d8565b6040516101d5919061260c565b60405180910390f35b3480156101ea57600080fd5b506101f3610752565b60405161020091906126b7565b60405180910390f35b34801561021557600080fd5b50610230600480360381019061022b919061270f565b6107e4565b60405161023d919061277d565b60405180910390f35b34801561025257600080fd5b5061026d600480360381019061026891906127c4565b610869565b005b34801561027b57600080fd5b50610284610980565b6040516102919190612813565b60405180910390f35b3480156102a657600080fd5b506102c160048036038101906102bc919061282e565b610985565b6040516102ce919061260c565b60405180910390f35b3480156102e357600080fd5b506102ec610a33565b6040516102f99190612813565b60405180910390f35b34801561030e57600080fd5b506103296004803603810190610324919061285b565b610a40565b005b34801561033757600080fd5b50610352600480360381019061034d91906127c4565b610aa0565b60405161035f9190612813565b60405180910390f35b610370610b45565b005b34801561037e57600080fd5b506103996004803603810190610394919061285b565b610c3d565b005b3480156103a757600080fd5b506103c260048036038101906103bd919061270f565b610c5d565b6040516103cf9190612813565b60405180910390f35b3480156103e457600080fd5b506103ff60048036038101906103fa91906129e3565b610cce565b005b34801561040d57600080fd5b506104286004803603810190610423919061270f565b610ce1565b604051610435919061277d565b60405180910390f35b34801561044a57600080fd5b506104656004803603810190610460919061282e565b610d92565b6040516104729190612813565b60405180910390f35b34801561048757600080fd5b506104a2600480360381019061049d919061282e565b610e49565b6040516104af9190612aea565b60405180910390f35b3480156104c457600080fd5b506104cd610ef7565b6040516104da9190612813565b60405180910390f35b3480156104ef57600080fd5b506104f8610f01565b60405161050591906126b7565b60405180910390f35b34801561051a57600080fd5b5061053560048036038101906105309190612b38565b610f93565b005b34801561054357600080fd5b5061055e60048036038101906105599190612c19565b610fa9565b005b34801561056c57600080fd5b50610587600480360381019061058291906127c4565b61100b565b604051610594919061260c565b60405180910390f35b3480156105a957600080fd5b506105c460048036038101906105bf919061270f565b611057565b6040516105d1919061277d565b60405180910390f35b3480156105e657600080fd5b5061060160048036038101906105fc919061270f565b611096565b60405161060e91906126b7565b60405180910390f35b34801561062357600080fd5b5061062c61113d565b60405161063991906126b7565b60405180910390f35b61065c60048036038101906106579190612cd2565b6111cb565b005b34801561066a57600080fd5b5061068560048036038101906106809190612cff565b61126b565b604051610692919061260c565b60405180910390f35b3480156106a757600080fd5b506106c260048036038101906106bd919061282e565b6112ff565b6040516106cf9190612813565b60405180910390f35b60007f780e9d63000000000000000000000000000000000000000000000000000000007bffffffffffffffffffffffffffffffffffffffffffffffffffffffff1916827bffffffffffffffffffffffffffffffffffffffffffffffffffffffff1916148061074b575061074a82611317565b5b9050919050565b60606000805461076190612d6e565b80601f016020809104026020016040519081016040528092919081815260200182805461078d90612d6e565b80156107da5780601f106107af576101008083540402835291602001916107da565b820191906000526020600020905b8154815290600101906020018083116107bd57829003601f168201915b5050505050905090565b60006107ef826113f9565b61082e576040517f08c379a000000000000000000000000000000000000000000000000000000000815260040161082590612e11565b60405180910390fd5b6004600083815260200190815260200160002060009054906101000a900473ffffffffffffffffffffffffffffffffffffffff169050919050565b600061087482610ce1565b90508073ffffffffffffffffffffffffffffffffffffffff168373ffffffffffffffffffffffffffffffffffffffff16036108e4576040517f08c379a00000000000000000000000000000000000000000000000000000000081526004016108db90612ea3565b60405180910390fd5b8073ffffffffffffffffffffffffffffffffffffffff16610903611465565b73ffffffffffffffffffffffffffffffffffffffff16148061093257506109318161092c611465565b61126b565b5b610971576040517f08c379a000000000000000000000000000000000000000000000000000000000815260040161096890612f35565b60405180910390fd5b61097b838361146d565b505050565b600181565b600080600090505b600b80549050811015610a28578273ffffffffffffffffffffffffffffffffffffffff16600b82815481106109c5576109c4612f55565b5b9060005260206000200160009054906101000a900473ffffffffffffffffffffffffffffffffffffffff1673ffffffffffffffffffffffffffffffffffffffff1603610a15576001915050610a2e565b8080610a2090612fb3565b91505061098d565b50600090505b919050565b6000600880549050905090565b610a51610a4b611465565b82611526565b610a90576040517f08c379a0000000000000000000000000000000000000000000000000000000008152600401610a879061306d565b60405180910390fd5b610a9b838383611604565b505050565b6000610aab83610d92565b8210610aec576040517f08c379a0000000000000000000000000000000000000000000000000000000008152600401610ae3906130ff565b60405180910390fd5b600660008473ffffffffffffffffffffffffffffffffffffffff1673ffffffffffffffffffffffffffffffffffffffff168152602001908152602001600020600083815260200190815260200160002054905092915050565b600047905060008111610b8d576040517f08c379a0000000000000000000000000000000000000000000000000000000008152600401610b849061316b565b60405180910390fd5b60003373ffffffffffffffffffffffffffffffffffffffff1682604051610bb3906131bc565b60006040518083038185875af1925050503d8060008114610bf0576040519150601f19603f3d011682016040523d82523d6000602084013e610bf5565b606091505b5050905080610c39576040517f08c379a0000000000000000000000000000000000000000000000000000000008152600401610c309061321d565b60405180910390fd5b5050565b610c5883838360405180602001604052806000815250610fa9565b505050565b6000610c67610a33565b8210610ca8576040517f08c379a0000000000000000000000000000000000000000000000000000000008152600401610c9f906132af565b60405180910390fd5b60088281548110610cbc57610cbb612f55565b5b90600052602060002001549050919050565b80600d9081610cdd919061347b565b5050565b6000806002600084815260200190815260200160002060009054906101000a900473ffffffffffffffffffffffffffffffffffffffff169050600073ffffffffffffffffffffffffffffffffffffffff168173ffffffffffffffffffffffffffffffffffffffff1603610d89576040517f08c379a0000000000000000000000000000000000000000000000000000000008152600401610d80906135bf565b60405180910390fd5b80915050919050565b60008073ffffffffffffffffffffffffffffffffffffffff168273ffffffffffffffffffffffffffffffffffffffff1603610e02576040517f08c379a0000000000000000000000000000000000000000000000000000000008152600401610df990613651565b60405180910390fd5b600360008373ffffffffffffffffffffffffffffffffffffffff1673ffffffffffffffffffffffffffffffffffffffff168152602001908152602001600020549050919050565b60606000610e5683610d92565b905060008167ffffffffffffffff811115610e7457610e736128b8565b5b604051908082528060200260200182016040528015610ea25781602001602082028036833780820191505090505b50905060005b82811015610eec57610eba8582610aa0565b828281518110610ecd57610ecc612f55565b5b6020026020010181815250508080610ee490612fb3565b915050610ea8565b508092505050919050565b655af3107a400081565b606060018054610f1090612d6e565b80601f0160208091040260200160405190810160405280929190818152602001828054610f3c90612d6e565b8015610f895780601f10610f5e57610100808354040283529160200191610f89565b820191906000526020600020905b815481529060010190602001808311610f6c57829003601f168201915b5050505050905090565b610fa5610f9e611465565b838361186a565b5050565b610fba610fb4611465565b83611526565b610ff9576040517f08c379a0000000000000000000000000000000000000000000000000000000008152600401610ff09061306d565b60405180910390fd5b611005848484846119d6565b50505050565b600081600c60008573ffffffffffffffffffffffffffffffffffffffff1673ffffffffffffffffffffffffffffffffffffffff1681526020019081526020016000208190555092915050565b600b818154811061106757600080fd5b906000526020600020016000915054906101000a900473ffffffffffffffffffffffffffffffffffffffff1681565b60606110a1826113f9565b6110e0576040517f08c379a00000000000000000000000000000000000000000000000000000000081526004016110d7906136e3565b60405180910390fd5b60006110ea611a32565b9050600081511161110a5760405180602001604052806000815250611135565b8061111484611ac4565b60405160200161112592919061373f565b6040516020818303038152906040525b915050919050565b600d805461114a90612d6e565b80601f016020809104026020016040519081016040528092919081815260200182805461117690612d6e565b80156111c35780601f10611198576101008083540402835291602001916111c3565b820191906000526020600020905b8154815290600101906020018083116111a657829003601f168201915b505050505081565b655af3107a4000341015611214576040517f08c379a000000000000000000000000000000000000000000000000000000000815260040161120b906137af565b60405180910390fd5b6001611220600a611c24565b10611260576040517f08c379a00000000000000000000000000000000000000000000000000000000081526004016112579061381b565b60405180910390fd5b611268611c32565b50565b6000600560008473ffffffffffffffffffffffffffffffffffffffff1673ffffffffffffffffffffffffffffffffffffffff16815260200190815260200160002060008373ffffffffffffffffffffffffffffffffffffffff1673ffffffffffffffffffffffffffffffffffffffff16815260200190815260200160002060009054906101000a900460ff16905092915050565b600c6020528060005260406000206000915090505481565b60007f80ac58cd000000000000000000000000000000000000000000000000000000007bffffffffffffffffffffffffffffffffffffffffffffffffffffffff1916827bffffffffffffffffffffffffffffffffffffffffffffffffffffffff191614806113e257507f5b5e139f000000000000000000000000000000000000000000000000000000007bffffffffffffffffffffffffffffffffffffffffffffffffffffffff1916827bffffffffffffffffffffffffffffffffffffffffffffffffffffffff1916145b806113f257506113f182611cba565b5b9050919050565b60008073ffffffffffffffffffffffffffffffffffffffff166002600084815260200190815260200160002060009054906101000a900473ffffffffffffffffffffffffffffffffffffffff1673ffffffffffffffffffffffffffffffffffffffff1614159050919050565b600033905090565b816004600083815260200190815260200160002060006101000a81548173ffffffffffffffffffffffffffffffffffffffff021916908373ffffffffffffffffffffffffffffffffffffffff160217905550808273ffffffffffffffffffffffffffffffffffffffff166114e083610ce1565b73ffffffffffffffffffffffffffffffffffffffff167f8c5be1e5ebec7d5bd14f71427d1e84f3dd0314c0f7b2291e5b200ac8c7c3b92560405160405180910390a45050565b6000611531826113f9565b611570576040517f08c379a0000000000000000000000000000000000000000000000000000000008152600401611567906138ad565b60405180910390fd5b600061157b83610ce1565b90508073ffffffffffffffffffffffffffffffffffffffff168473ffffffffffffffffffffffffffffffffffffffff1614806115bd57506115bc818561126b565b5b806115fb57508373ffffffffffffffffffffffffffffffffffffffff166115e3846107e4565b73ffffffffffffffffffffffffffffffffffffffff16145b91505092915050565b8273ffffffffffffffffffffffffffffffffffffffff1661162482610ce1565b73ffffffffffffffffffffffffffffffffffffffff161461167a576040517f08c379a00000000000000000000000000000000000000000000000000000000081526004016116719061393f565b60405180910390fd5b600073ffffffffffffffffffffffffffffffffffffffff168273ffffffffffffffffffffffffffffffffffffffff16036116e9576040517f08c379a00000000000000000000000000000000000000000000000000000000081526004016116e0906139d1565b60405180910390fd5b6116f4838383611d24565b6116ff60008261146d565b6001600360008573ffffffffffffffffffffffffffffffffffffffff1673ffffffffffffffffffffffffffffffffffffffff168152602001908152602001600020600082825461174f91906139f1565b925050819055506001600360008473ffffffffffffffffffffffffffffffffffffffff1673ffffffffffffffffffffffffffffffffffffffff16815260200190815260200160002060008282546117a69190613a25565b92505081905550816002600083815260200190815260200160002060006101000a81548173ffffffffffffffffffffffffffffffffffffffff021916908373ffffffffffffffffffffffffffffffffffffffff160217905550808273ffffffffffffffffffffffffffffffffffffffff168473ffffffffffffffffffffffffffffffffffffffff167fddf252ad1be2c89b69c2b068fc378daa952ba7f163c4a11628f55a4df523b3ef60405160405180910390a4611865838383611e36565b505050565b8173ffffffffffffffffffffffffffffffffffffffff168373ffffffffffffffffffffffffffffffffffffffff16036118d8576040517f08c379a00000000000000000000000000000000000000000000000000000000081526004016118cf90613aa5565b60405180910390fd5b80600560008573ffffffffffffffffffffffffffffffffffffffff1673ffffffffffffffffffffffffffffffffffffffff16815260200190815260200160002060008473ffffffffffffffffffffffffffffffffffffffff1673ffffffffffffffffffffffffffffffffffffffff16815260200190815260200160002060006101000a81548160ff0219169083151502179055508173ffffffffffffffffffffffffffffffffffffffff168373ffffffffffffffffffffffffffffffffffffffff167f17307eab39ab6107e8899845ad3d59bd9653f200f220920489ca2b5937696c31836040516119c9919061260c565b60405180910390a3505050565b6119e1848484611604565b6119ed84848484611e3b565b611a2c576040517f08c379a0000000000000000000000000000000000000000000000000000000008152600401611a2390613b37565b60405180910390fd5b50505050565b6060600d8054611a4190612d6e565b80601f0160208091040260200160405190810160405280929190818152602001828054611a6d90612d6e565b8015611aba5780601f10611a8f57610100808354040283529160200191611aba565b820191906000526020600020905b815481529060010190602001808311611a9d57829003601f168201915b5050505050905090565b606060008203611b0b576040518060400160405280600181526020017f30000000000000000000000000000000000000000000000000000000000000008152509050611c1f565b600082905060005b60008214611b3d578080611b2690612fb3565b915050600a82611b369190613b86565b9150611b13565b60008167ffffffffffffffff811115611b5957611b586128b8565b5b6040519080825280601f01601f191660200182016040528015611b8b5781602001600182028036833780820191505090505b5090505b60008514611c1857600182611ba491906139f1565b9150600a85611bb39190613bb7565b6030611bbf9190613a25565b60f81b818381518110611bd557611bd4612f55565b5b60200101907effffffffffffffffffffffffffffffffffffffffffffffffffffffffffffff1916908160001a905350600a85611c119190613b86565b9450611b8f565b8093505050505b919050565b600081600001549050919050565b6000611c3e600a611c24565b9050611c4a3382611fc2565b611c54600a611fe0565b600b339080600181540180825580915050600190039060005260206000200160009091909190916101000a81548173ffffffffffffffffffffffffffffffffffffffff021916908373ffffffffffffffffffffffffffffffffffffffff16021790555050565b60007f01ffc9a7000000000000000000000000000000000000000000000000000000007bffffffffffffffffffffffffffffffffffffffffffffffffffffffff1916827bffffffffffffffffffffffffffffffffffffffffffffffffffffffff1916149050919050565b611d2f838383611ff6565b600073ffffffffffffffffffffffffffffffffffffffff168373ffffffffffffffffffffffffffffffffffffffff1603611d7157611d6c81611ffb565b611db0565b8173ffffffffffffffffffffffffffffffffffffffff168373ffffffffffffffffffffffffffffffffffffffff1614611daf57611dae8382612044565b5b5b600073ffffffffffffffffffffffffffffffffffffffff168273ffffffffffffffffffffffffffffffffffffffff1603611df257611ded816121b1565b611e31565b8273ffffffffffffffffffffffffffffffffffffffff168273ffffffffffffffffffffffffffffffffffffffff1614611e3057611e2f8282612282565b5b5b505050565b505050565b6000611e5c8473ffffffffffffffffffffffffffffffffffffffff16612301565b15611fb5578373ffffffffffffffffffffffffffffffffffffffff1663150b7a02611e85611465565b8786866040518563ffffffff1660e01b8152600401611ea79493929190613c3d565b6020604051808303816000875af1925050508015611ee357506040513d601f19601f82011682018060405250810190611ee09190613c9e565b60015b611f65573d8060008114611f13576040519150601f19603f3d011682016040523d82523d6000602084013e611f18565b606091505b506000815103611f5d576040517f08c379a0000000000000000000000000000000000000000000000000000000008152600401611f5490613b37565b60405180910390fd5b805181602001fd5b63150b7a0260e01b7bffffffffffffffffffffffffffffffffffffffffffffffffffffffff1916817bffffffffffffffffffffffffffffffffffffffffffffffffffffffff191614915050611fba565b600190505b949350505050565b611fdc828260405180602001604052806000815250612324565b5050565b6001816000016000828254019250508190555050565b505050565b6008805490506009600083815260200190815260200160002081905550600881908060018154018082558091505060019003906000526020600020016000909190919091505550565b6000600161205184610d92565b61205b91906139f1565b9050600060076000848152602001908152602001600020549050818114612140576000600660008673ffffffffffffffffffffffffffffffffffffffff1673ffffffffffffffffffffffffffffffffffffffff168152602001908152602001600020600084815260200190815260200160002054905080600660008773ffffffffffffffffffffffffffffffffffffffff1673ffffffffffffffffffffffffffffffffffffffff168152602001908152602001600020600084815260200190815260200160002081905550816007600083815260200190815260200160002081905550505b6007600084815260200190815260200160002060009055600660008573ffffffffffffffffffffffffffffffffffffffff1673ffffffffffffffffffffffffffffffffffffffff16815260200190815260200160002060008381526020019081526020016000206000905550505050565b600060016008805490506121c591906139f1565b90506000600960008481526020019081526020016000205490506000600883815481106121f5576121f4612f55565b5b90600052602060002001549050806008838154811061221757612216612f55565b5b90600052602060002001819055508160096000838152602001908152602001600020819055506009600085815260200190815260200160002060009055600880548061226657612265613ccb565b5b6001900381819060005260206000200160009055905550505050565b600061228d83610d92565b905081600660008573ffffffffffffffffffffffffffffffffffffffff1673ffffffffffffffffffffffffffffffffffffffff168152602001908152602001600020600083815260200190815260200160002081905550806007600084815260200190815260200160002081905550505050565b6000808273ffffffffffffffffffffffffffffffffffffffff163b119050919050565b61232e838361237f565b61233b6000848484611e3b565b61237a576040517f08c379a000000000000000000000000000000000000000000000000000000000815260040161237190613b37565b60405180910390fd5b505050565b600073ffffffffffffffffffffffffffffffffffffffff168273ffffffffffffffffffffffffffffffffffffffff16036123ee576040517f08c379a00000000000000000000000000000000000000000000000000000000081526004016123e590613d46565b60405180910390fd5b6123f7816113f9565b15612437576040517f08c379a000000000000000000000000000000000000000000000000000000000815260040161242e90613db2565b60405180910390fd5b61244360008383611d24565b6001600360008473ffffffffffffffffffffffffffffffffffffffff1673ffffffffffffffffffffffffffffffffffffffff16815260200190815260200160002060008282546124939190613a25565b92505081905550816002600083815260200190815260200160002060006101000a81548173ffffffffffffffffffffffffffffffffffffffff021916908373ffffffffffffffffffffffffffffffffffffffff160217905550808273ffffffffffffffffffffffffffffffffffffffff16600073ffffffffffffffffffffffffffffffffffffffff167fddf252ad1be2c89b69c2b068fc378daa952ba7f163c4a11628f55a4df523b3ef60405160405180910390a461255460008383611e36565b5050565b6000604051905090565b600080fd5b600080fd5b60007fffffffff0000000000000000000000000000000000000000000000000000000082169050919050565b6125a18161256c565b81146125ac57600080fd5b50565b6000813590506125be81612598565b92915050565b6000602082840312156125da576125d9612562565b5b60006125e8848285016125af565b91505092915050565b60008115159050919050565b612606816125f1565b82525050565b600060208201905061262160008301846125fd565b92915050565b600081519050919050565b600082825260208201905092915050565b60005b83811015612661578082015181840152602081019050612646565b60008484015250505050565b6000601f19601f8301169050919050565b600061268982612627565b6126938185612632565b93506126a3818560208601612643565b6126ac8161266d565b840191505092915050565b600060208201905081810360008301526126d1818461267e565b905092915050565b6000819050919050565b6126ec816126d9565b81146126f757600080fd5b50565b600081359050612709816126e3565b92915050565b60006020828403121561272557612724612562565b5b6000612733848285016126fa565b91505092915050565b600073ffffffffffffffffffffffffffffffffffffffff82169050919050565b60006127678261273c565b9050919050565b6127778161275c565b82525050565b6000602082019050612792600083018461276e565b92915050565b6127a18161275c565b81146127ac57600080fd5b50565b6000813590506127be81612798565b92915050565b600080604083850312156127db576127da612562565b5b60006127e9858286016127af565b92505060206127fa858286016126fa565b9150509250929050565b61280d816126d9565b82525050565b60006020820190506128286000830184612804565b92915050565b60006020828403121561284457612843612562565b5b6000612852848285016127af565b91505092915050565b60008060006060848603121561287457612873612562565b5b6000612882868287016127af565b9350506020612893868287016127af565b92505060406128a4868287016126fa565b9150509250925092565b600080fd5b600080fd5b7f4e487b7100000000000000000000000000000000000000000000000000000000600052604160045260246000fd5b6128f08261266d565b810181811067ffffffffffffffff8211171561290f5761290e6128b8565b5b80604052505050565b6000612922612558565b905061292e82826128e7565b919050565b600067ffffffffffffffff82111561294e5761294d6128b8565b5b6129578261266d565b9050602081019050919050565b82818337600083830152505050565b600061298661298184612933565b612918565b9050828152602081018484840111156129a2576129a16128b3565b5b6129ad848285612964565b509392505050565b600082601f8301126129ca576129c96128ae565b5b81356129da848260208601612973565b91505092915050565b6000602082840312156129f9576129f8612562565b5b600082013567ffffffffffffffff811115612a1757612a16612567565b5b612a23848285016129b5565b91505092915050565b600081519050919050565b600082825260208201905092915050565b6000819050602082019050919050565b612a61816126d9565b82525050565b6000612a738383612a58565b60208301905092915050565b6000602082019050919050565b6000612a9782612a2c565b612aa18185612a37565b9350612aac83612a48565b8060005b83811015612add578151612ac48882612a67565b9750612acf83612a7f565b925050600181019050612ab0565b5085935050505092915050565b60006020820190508181036000830152612b048184612a8c565b905092915050565b612b15816125f1565b8114612b2057600080fd5b50565b600081359050612b3281612b0c565b92915050565b60008060408385031215612b4f57612b4e612562565b5b6000612b5d858286016127af565b9250506020612b6e85828601612b23565b9150509250929050565b600067ffffffffffffffff821115612b9357612b926128b8565b5b612b9c8261266d565b9050602081019050919050565b6000612bbc612bb784612b78565b612918565b905082815260208101848484011115612bd857612bd76128b3565b5b612be3848285612964565b509392505050565b600082601f830112612c0057612bff6128ae565b5b8135612c10848260208601612ba9565b91505092915050565b60008060008060808587031215612c3357612c32612562565b5b6000612c41878288016127af565b9450506020612c52878288016127af565b9350506040612c63878288016126fa565b925050606085013567ffffffffffffffff811115612c8457612c83612567565b5b612c9087828801612beb565b91505092959194509250565b6000819050919050565b612caf81612c9c565b8114612cba57600080fd5b50565b600081359050612ccc81612ca6565b92915050565b600060208284031215612ce857612ce7612562565b5b6000612cf684828501612cbd565b91505092915050565b60008060408385031215612d1657612d15612562565b5b6000612d24858286016127af565b9250506020612d35858286016127af565b9150509250929050565b7f4e487b7100000000000000000000000000000000000000000000000000000000600052602260045260246000fd5b60006002820490506001821680612d8657607f821691505b602082108103612d9957612d98612d3f565b5b50919050565b7f4552433732313a20617070726f76656420717565727920666f72206e6f6e657860008201527f697374656e7420746f6b656e0000000000000000000000000000000000000000602082015250565b6000612dfb602c83612632565b9150612e0682612d9f565b604082019050919050565b60006020820190508181036000830152612e2a81612dee565b9050919050565b7f4552433732313a20617070726f76616c20746f2063757272656e74206f776e6560008201527f7200000000000000000000000000000000000000000000000000000000000000602082015250565b6000612e8d602183612632565b9150612e9882612e31565b604082019050919050565b60006020820190508181036000830152612ebc81612e80565b9050919050565b7f4552433732313a20617070726f76652063616c6c6572206973206e6f74206f7760008201527f6e6572206e6f7220617070726f76656420666f7220616c6c0000000000000000602082015250565b6000612f1f603883612632565b9150612f2a82612ec3565b604082019050919050565b60006020820190508181036000830152612f4e81612f12565b9050919050565b7f4e487b7100000000000000000000000000000000000000000000000000000000600052603260045260246000fd5b7f4e487b7100000000000000000000000000000000000000000000000000000000600052601160045260246000fd5b6000612fbe826126d9565b91507fffffffffffffffffffffffffffffffffffffffffffffffffffffffffffffffff8203612ff057612fef612f84565b5b600182019050919050565b7f4552433732313a207472616e736665722063616c6c6572206973206e6f74206f60008201527f776e6572206e6f7220617070726f766564000000000000000000000000000000602082015250565b6000613057603183612632565b915061306282612ffb565b604082019050919050565b600060208201905081810360008301526130868161304a565b9050919050565b7f455243373231456e756d657261626c653a206f776e657220696e646578206f7560008201527f74206f6620626f756e6473000000000000000000000000000000000000000000602082015250565b60006130e9602b83612632565b91506130f48261308d565b604082019050919050565b60006020820190508181036000830152613118816130dc565b9050919050565b7f4e6f206574686572206c65667420746f20776974686472617700000000000000600082015250565b6000613155601983612632565b91506131608261311f565b602082019050919050565b6000602082019050818103600083015261318481613148565b9050919050565b600081905092915050565b50565b60006131a660008361318b565b91506131b182613196565b600082019050919050565b60006131c782613199565b9150819050919050565b7f5472616e73666572206661696c65642e00000000000000000000000000000000600082015250565b6000613207601083612632565b9150613212826131d1565b602082019050919050565b60006020820190508181036000830152613236816131fa565b9050919050565b7f455243373231456e756d657261626c653a20676c6f62616c20696e646578206f60008201527f7574206f6620626f756e64730000000000000000000000000000000000000000602082015250565b6000613299602c83612632565b91506132a48261323d565b604082019050919050565b600060208201905081810360008301526132c88161328c565b9050919050565b60008190508160005260206000209050919050565b60006020601f8301049050919050565b600082821b905092915050565b6000600883026133317fffffffffffffffffffffffffffffffffffffffffffffffffffffffffffffffff826132f4565b61333b86836132f4565b95508019841693508086168417925050509392505050565b6000819050919050565b600061337861337361336e846126d9565b613353565b6126d9565b9050919050565b6000819050919050565b6133928361335d565b6133a661339e8261337f565b848454613301565b825550505050565b600090565b6133bb6133ae565b6133c6818484613389565b505050565b5b818110156133ea576133df6000826133b3565b6001810190506133cc565b5050565b601f82111561342f57613400816132cf565b613409846132e4565b81016020851015613418578190505b61342c613424856132e4565b8301826133cb565b50505b505050565b600082821c905092915050565b600061345260001984600802613434565b1980831691505092915050565b600061346b8383613441565b9150826002028217905092915050565b61348482612627565b67ffffffffffffffff81111561349d5761349c6128b8565b5b6134a78254612d6e565b6134b28282856133ee565b600060209050601f8311600181146134e557600084156134d3578287015190505b6134dd858261345f565b865550613545565b601f1984166134f3866132cf565b60005b8281101561351b578489015182556001820191506020850194506020810190506134f6565b868310156135385784890151613534601f891682613441565b8355505b6001600288020188555050505b505050505050565b7f4552433732313a206f776e657220717565727920666f72206e6f6e657869737460008201527f656e7420746f6b656e0000000000000000000000000000000000000000000000602082015250565b60006135a9602983612632565b91506135b48261354d565b604082019050919050565b600060208201905081810360008301526135d88161359c565b9050919050565b7f4552433732313a2062616c616e636520717565727920666f7220746865207a6560008201527f726f206164647265737300000000000000000000000000000000000000000000602082015250565b600061363b602a83612632565b9150613646826135df565b604082019050919050565b6000602082019050818103600083015261366a8161362e565b9050919050565b7f4552433732314d657461646174613a2055524920717565727920666f72206e6f60008201527f6e6578697374656e7420746f6b656e0000000000000000000000000000000000602082015250565b60006136cd602f83612632565b91506136d882613671565b604082019050919050565b600060208201905081810360008301526136fc816136c0565b9050919050565b600081905092915050565b600061371982612627565b6137238185613703565b9350613733818560208601612643565b80840191505092915050565b600061374b828561370e565b9150613757828461370e565b91508190509392505050565b7f496e73756666696369656e742066756e64730000000000000000000000000000600082015250565b6000613799601283612632565b91506137a482613763565b602082019050919050565b600060208201905081810360008301526137c88161378c565b9050919050565b7f4578636565646564206d6178696d756d20706572206d696e7400000000000000600082015250565b6000613805601983612632565b9150613810826137cf565b602082019050919050565b60006020820190508181036000830152613834816137f8565b9050919050565b7f4552433732313a206f70657261746f7220717565727920666f72206e6f6e657860008201527f697374656e7420746f6b656e0000000000000000000000000000000000000000602082015250565b6000613897602c83612632565b91506138a28261383b565b604082019050919050565b600060208201905081810360008301526138c68161388a565b9050919050565b7f4552433732313a207472616e736665722066726f6d20696e636f72726563742060008201527f6f776e6572000000000000000000000000000000000000000000000000000000602082015250565b6000613929602583612632565b9150613934826138cd565b604082019050919050565b600060208201905081810360008301526139588161391c565b9050919050565b7f4552433732313a207472616e7366657220746f20746865207a65726f2061646460008201527f7265737300000000000000000000000000000000000000000000000000000000602082015250565b60006139bb602483612632565b91506139c68261395f565b604082019050919050565b600060208201905081810360008301526139ea816139ae565b9050919050565b60006139fc826126d9565b9150613a07836126d9565b9250828203905081811115613a1f57613a1e612f84565b5b92915050565b6000613a30826126d9565b9150613a3b836126d9565b9250828201905080821115613a5357613a52612f84565b5b92915050565b7f4552433732313a20617070726f766520746f2063616c6c657200000000000000600082015250565b6000613a8f601983612632565b9150613a9a82613a59565b602082019050919050565b60006020820190508181036000830152613abe81613a82565b9050919050565b7f4552433732313a207472616e7366657220746f206e6f6e20455243373231526560008201527f63656976657220696d706c656d656e7465720000000000000000000000000000602082015250565b6000613b21603283612632565b9150613b2c82613ac5565b604082019050919050565b60006020820190508181036000830152613b5081613b14565b9050919050565b7f4e487b7100000000000000000000000000000000000000000000000000000000600052601260045260246000fd5b6000613b91826126d9565b9150613b9c836126d9565b925082613bac57613bab613b57565b5b828204905092915050565b6000613bc2826126d9565b9150613bcd836126d9565b925082613bdd57613bdc613b57565b5b828206905092915050565b600081519050919050565b600082825260208201905092915050565b6000613c0f82613be8565b613c198185613bf3565b9350613c29818560208601612643565b613c328161266d565b840191505092915050565b6000608082019050613c52600083018761276e565b613c5f602083018661276e565b613c6c6040830185612804565b8181036060830152613c7e8184613c04565b905095945050505050565b600081519050613c9881612598565b92915050565b600060208284031215613cb457613cb3612562565b5b6000613cc284828501613c89565b91505092915050565b7f4e487b7100000000000000000000000000000000000000000000000000000000600052603160045260246000fd5b7f4552433732313a206d696e7420746f20746865207a65726f2061646472657373600082015250565b6000613d30602083612632565b9150613d3b82613cfa565b602082019050919050565b60006020820190508181036000830152613d5f81613d23565b9050919050565b7f4552433732313a20746f6b656e20616c7265616479206d696e74656400000000600082015250565b6000613d9c601c83612632565b9150613da782613d66565b602082019050919050565b60006020820190508181036000830152613dcb81613d8f565b905091905056fea26469706673582212205363a1ae087796a1121737066f7be425084b83e21cac4d2a8068038e7ecda50364736f6c63430008140033",
  "linkReferences": {},
  "deployedLinkReferences": {}
}